:100000000C94FF060C9427070C9427070C942707E1
:100010000C9427070C9427070C9427070C942707A8
:100020000C9427070C9427070C9427070C94270798
:100030000C9427070C9427070C9427070C94270788
:100040000C942E170C9427070C94FC160C94D616BF
:100050000C9427070C9427070C9427070C94270768
:100060000C9478170C942707000103070F1F3F7F9C
:100070000080C0E0F0F8FCFE00000000003E5B4F96
:100080005B3E3E6B4F6B3E1C3E7C3E1C183C7E3CF8
:10009000181C577D571C1C5E7F5E1C00183C180006
:1000A000FFE7C3E7FF0018241800FFE7DBE7FF3096
:1000B000483A060E2629792926407F050507407F04
:1000C00005253F5A3CE73C5A7F3E1C1C08081C1C77
:1000D0003E7F14227F22145F5F005F5F06097F016D
:1000E0007F006689956A606060606094A2FFA29458
:1000F00008047E040810207E201008082A1C080826
:100100001C2A08081E101010100C1E0C1E0C303873
:100110003E3830060E3E0E06000000000000005F74
:1001200000000007000700147F147F14242A7F2A90
:100130001223130864623649562050000807030052
:10014000001C2241000041221C002A1C7F1C2A089E
:10015000083E080800807030000808080808000001
:1001600060600020100804023E5149453E00427F75
:10017000400072494949462141494D331814127FC4
:100180001027454545393C4A494931412111090764
:100190003649494936464949291E000014000000E5
:1001A00040340000000814224114141414140041B7
:1001B00022140802015909063E415D594E7C121174
:1001C000127C7F494949363E414141227F414141AC
:1001D0003E7F494949417F090909013E4141517327
:1001E0007F0808087F00417F41002040413F017F98
:1001F000081422417F404040407F021C027F7F0460
:1002000008107F3E4141413E7F090909063E4151A8
:10021000215E7F09192946264949493203017F0198
:10022000033F4040403F1F2040201F3F4038403F99
:10023000631408146303047804036159494D4300AF
:100240007F4141410204081020004141417F0402E6
:10025000010204404040404000030708002054547D
:1002600078407F284444383844444428384444285B
:100270007F385454541800087E090218A4A49C78AE
:100280007F0804047800447D40002040403D007F0A
:100290001028440000417F40007C047804787C08EA
:1002A0000404783844444438FC18242418182424BE
:1002B00018FC7C08040408485454542404043F44A3
:1002C000243C4040207C1C2040201C3C4030403CD2
:1002D00044281028444C9090907C4464544C440032
:1002E0000836410000007700000041360800020196
:1002F0000204023C2623263C1EA1A161123A404082
:10030000207A3854545559215555794122545478FE
:1003100042215554784020545579400C1E52721297
:100320003955555559395454545939555454580020
:1003300000457C410002457D420001457C407D1224
:1003400011127DF0282528F07C5455450020545486
:100350007C547C0A097F4932494949323A44444431
:100360003A324A4848303A4141217A3A424020786C
:10037000009DA0A07D3D4242423D3D4040403D3C6D
:1003800024FF2424487E4943662B2FFC2F2BFF0992
:1003900029F620C0887E0903205454794100004486
:1003A0007D413048484A32384040227A007A0A0A71
:1003B000727D0D19317D2629292F282629292926E4
:1003C00030484D4020380808080808080808382F29
:1003D00010C8ACBA2F102834FA00007B00000814B3
:1003E0002A142222142A14085500550055AA55AA89
:1003F00055AAFF55FF55FF000000FF00101010FF29
:1004000000141414FF001010FF00FF1010F010F083
:10041000141414FC001414F700FF0000FF00FF1474
:1004200014F404FC141417101F10101F101F1414C0
:10043000141F00101010F0000000001F101010100A
:100440001F10101010F010000000FF1010101010FE
:1004500010101010FF10000000FF140000FF00FF3C
:1004600000001F10170000FC04F4141417101714D8
:1004700014F404F40000FF00F714141414141414FA
:10048000F700F7141414171410101F101F1414146D
:10049000F4141010F010F000001F101F0000001FD7
:1004A00014000000FC140000F010F01010FF10FF0A
:1004B000141414FF141010101F00000000F010FF9F
:1004C000FFFFFFFFF0F0F0F0F0FFFFFF0000000083
:1004D00000FFFF0F0F0F0F0F3844443844FC4A4A07
:1004E0004A347E02020606027E027E0263554941BC
:1004F000633844443C04407E201E2006027E0202F3
:1005000099A5E7A5991C2A492A1C4C7201724C3006
:100510004A4D4D303048784830BC625A463D3E49DD
:100520004949007E0101017E2A2A2A2A2A44445F81
:10053000444440514A444040444A51400000FF0175
:1005400003E080FF000008086B6B08361236243683
:10055000060F090F060000181800000010100030E8
:1005600040FF0101001F01011E00191D1712003C70
:100570003C3C3C00000000000000000800020100BC
:10058000000304070000000000000000DB40A4A6F8
:100590002EAF2000A1C8D300408DAED580A8F1FFBA
:1005A000FFFFFFFFFFFFFFFFFFFFFFFFFFFFF00762
:1005B000FFFFFFFFFFFFFFFEFFFFFFFFFFFFE0006A
:1005C000FFFFFFFFFFFFFF00FFFF9FFFFFE7E000D0
:1005D0003FFFFFFFFFFFF801FF001FFFFFE3E00009
:1005E0000FFF8000FFFFF801FC000FFFFFE1F000AC
:1005F00003FFC000003FF803FC000FFFFFC0F8003E
:1006000003FFC000000018020C000FFFFF001800DD
:1006100003C7E0000000000200000FFFFE0018000A
:1006200000E0600000000002000003FFC0000C00BA
:1006300000383000000000020000000000000C0044
:100640000C1C1C00000000020000000000000E0056
:100650000F000E0000000002000000000000060075
:100660000F800700000000021800000000010700D2
:1006700007C001C0000000030600000000010700E1
:1006800007E00078001FF00101E000000003030014
:1006900003E000FC07FFF801803C0000003F0380FE
:1006A00001FFFFF600FFF800C00780000FFF038086
:1006B00000FFFE00003FF8004000FFFFF80F03E0DE
:1006C0000003F001001FFC0060000000000703F0C1
:1006D0000000F001800FFE0030000000000307FC66
:1006E00000001801C007FE001F000000000E07FFF9
:1006F00000000000E003FFF80F0000000018067F74
:10070000C0000000F801F80C0700FE000070040FA4
:10071000E00000003C00E00E0700FFC000C00C1F1E
:10072000F80000003E0070037F00E3F80380083FFC
:10073000FE0000001F003001FF00C07C0600087FA3
:10074000FF8000001F801801FF00803FCC0010FFD9
:10075000FFE0000007800000FE0080307F0011FFF6
:10076000FFF8000003E000007E0080106300FBFF44
:10077000FFFF000001E000003E008310610EFFFF5C
:10078000FFFF800000F000003C018710613EFFFF8A
:10079000FFFC000000F000003C010F10416FFFFF64
:1007A000FE00000000F800003C010F10410FFFFFA9
:1007B000C007800000F800003C031F10410FF80044
:1007C000000F800000F800007C021E306107FFC0AF
:1007D000001F000001FFFC0078021E202307FFE03D
:1007E000001F000003FFFE00F8021C222207FF800A
:1007F000001C000007800001F8021822C203FF80DD
:10080000001C000007000003F8020022C603FF805E
:10081000001800003C00000FF00300428403FF00BA
:10082000001800007800001FF00380C28403FF005E
:1008300000180001E000003FC000C1020C01FE00F2
:1008400000100007C000007F87F87E061801FE0038
:100850000010003F000000FC080C38041801FC00E8
:10086000001000FC000001E008063C0C1807F8002E
:10087000001003F8000003E007031F9C1C1FF80092
:1008800000100FC00000078E00018FFC0C00F0006C
:1008900000001F8000000FFFF000C3FC0C00F00000
:1008A00000003F0000001FFFFFC061FC0400E000EB
:1008B00000003E000003FF000000307C0C008000C0
:1008C00000007C00001C000000001C1FF8008000DD
:1008D00000007800003000000000060FE0008000FB
:1008E0000000F0000000000000000300FF80800016
:1008F0000000E00000000000000001800FFC80000C
:100900000000C00000000000000000E0007F800048
:100910000000C00000000000000000300003800064
:1009200000004000000000000000001000008000F7
:100930000000000000000000000000200000C000D7
:100940000000000FFC000000000000600000E0005C
:10095000000000FFFFF80000000000E00000F800C9
:1009600000E107FFFFFFE000000003F80000FC00CB
:100970007FFF3FFFFFFFFFC000000FFF0000FF03EE
:10098000FFFFFFFFFFFFFFFF80001FFFE000FFFFF3
:10099000FFFFFFFFFFFFFFFFF8003FFFFFE05353A4
:1009A000443133303620616C6C6F636174696F6EF3
:1009B000206661696C6564000000000000000000B2
:1009C0000000000000000000000000000000000027
:1009D0000000000000000000000000000000000017
:1009E0000000000000000000000000000000000007
:1009F00000000000000000000000000000000000F7
:100A000000000000000000000000000000000000E6
:100A100000000000000000000000000000000000D6
:100A200000000000000000000000000000000000C6
:100A300000000000000000000000000000000000B6
:100A400000000000000000000000000000000000A6
:100A50000000000000000000000000000000000096
:100A60000000000000000000000000000000000086
:100A70000000000000000000000000000000000076
:100A80000000000000000000000000000000000066
:100A90000000000000000000000000000000000056
:100AA0000000000000000000000000000000000046
:100AB0000000000000000000000000000000000036
:100AC0000000000000000000000000000000000026
:100AD0000000000000000000000000000000000F07
:100AE000FFFFF800000000000000000000000030E0
:100AF000000006000000000000000FFFFF000040A3
:100B00000000020000000000000010000080004013
:100B10000000010000000000000020000040004034
:100B20000000010000000000000020000040004024
:100B30000000010000000000000020000040004014
:100B40000000010000000000000020000040004004
:100B50003C00010000000000000020007840004040
:100B60007A0001000000000000002000FC4000406E
:100B70007E0001000000000000002001FA4000405B
:100B80007E0001000000000000002001FE40004047
:100B90007E0001000000000000002001FE40004037
:100BA000380001000000000000002001FE4000406D
:100BB000000001000000000000002000FC40004098
:100BC000000001000000000000002000784000400C
:100BD0000000010000000000000020000040004074
:100BE0000000010000000000000020000040006044
:100BF000000002000000000000001800018000104A
:100C000000000C0000000000000007FFFE00000FC5
:100C1000FFFFF000000000000000000000000000E6
:100C200000000000000000000000000000000000C4
:100C3000000000003FF8000000000000000000007D
:100C400000000000E00E00000000000000000000B6
:100C500000000001801F00000000000000000000F4
:100C600000000003801F00000000000000000000E2
:100C70000000000E001FC000000000000000000087
:100C800000000038001FC000000000F80000000055
:100C9000000001E0001FE000000000040000000070
:100CA00000000380007FE00000000007FF0000005C
:100CB00000001E80005FE0000000000401FFFFFF55
:100CC000FFFFE08001DFE0000000000600100000F0
:100CD000400000800F0FE000000000020030000024
:100CE00040000080383FE0000000000200200000CB
:100CF00040000080C1C0000000000003FC20000094
:100D000040000081070000000000000203FFF00027
:100D10004000008E180000000000000C00201FFFA3
:100D2000FFFFFFF8700000000000003C0020000002
:100D300040000081E00000000000000200300000E0
:100D40004000008180000000000000020030000030
:100D50004000008E0000000000000001FF100000B5
:100D6000400001F8000000000000000001FE00004B
:100D700040001F0000000000000000000003FF0012
:100D80004001E000000000000000000000000080C2
:100D9000400F000000000000000000000000007F85
:100DA000FFF0000000000000000000000000000054
:100DB00000000000000000000000000025002800E6
:100DC0002B0000000000240027002A000404040473
:100DD00004040404020202020202030303030303E5
:100DE00001020408102040800102040810200102C2
:100DF000040810202200FF2100009718311D112443
:100E00001FBECFEFD8E0DEBFCDBF11E0A0E0B1E064
:100E1000E8E9FDE302C005900D92A638B107D9F7C5
:100E200023E0A6E8B1E001C01D92A138B207E1F7C6
:100E300016E0CEEFD6E004C02197FE010E94881D87
:100E4000CD3FD107C9F70E942D190C94BF1E0C94F9
:100E50000000EEE4F2E0A089B18982E08C93A485E1
:100E6000B5851C92A685B7858FEC8C93108EA489CE
:100E7000B58986E08C93A289B3898C9180618C932B
:100E8000A289B3898C9188608C93A289B3898C9153
:100E900080688C930288F389E02D80818F7D808328
:100EA000089590E0FC01E052F24F24918453924F58
:100EB000FC018491882399F090E0880F991FFC0130
:100EC000EE53F24FA591B491FC01E854F24F859195
:100ED00094918FB7F894EC91E22BEC938FBF089527
:100EE0000895AF92BF92CF92DF92EF92FF920F934D
:100EF0001F93CF93DF936C017B018B01040F151FB0
:100F0000EB015E01AE18BF08C017D10759F0699117
:100F1000D601ED91FC910190F081E02DC60109957B
:100F2000892B79F7C501DF91CF911F910F91FF9028
:100F3000EF90DF90CF90BF90AF90089508950895FF
:100F4000FC01538D448D252F30E0842F90E0821BCF
:100F5000930B541710F0CF96089501970895FC0154
:100F6000918D828D981761F0A28DAE0FBF2FB11DAC
:100F70005D968C91928D9F5F9F73928F90E0089504
:100F80008FEF9FEF0895FC01918D828D981731F0BE
:100F9000828DE80FF11D858D90E008958FEF9FEF12
:100FA0000895FC01918D228D892F90E0805C9F4FE8
:100FB000821B91098F73992708958EE492E00E9415
:100FC000D10721E0892B09F420E0822F089580E0E9
:100FD00090E0892B29F00E94DD0781110C9400001C
:100FE0000895FC01A48DA80FB92FB11DA35ABF4FBE
:100FF0002C91848D90E001968F739927848FA68918
:10100000B7892C93A089B1898C91837080648C936B
:10101000938D848D981306C00288F389E02D80811A
:101020008F7D80830895EF92FF920F931F93CF934C
:10103000DF93EC0181E0888F9B8D8C8D98131AC013
:10104000E889F989808185FF15C09FB7F894EE89FA
:10105000FF896083E889F989808183708064808357
:101060009FBF81E090E0DF91CF911F910F91FF90A2
:10107000EF900895F62E0B8D10E00F5F1F4F0F734A
:101080001127E02E8C8D8E110CC00FB607FCFACF05
:10109000E889F989808185FFF5CFCE010E94F107AB
:1010A000F1CFEB8DEC0FFD2FF11DE35AFF4FF082D6
:1010B0009FB7F8940B8FEA89FB8980818062CFCF3C
:1010C000CF93DF93EC01888D8823B9F0AA89BB897F
:1010D000E889F9898C9185FD03C0808186FD0DC06A
:1010E0000FB607FCF7CF8C9185FFF2CF808185FF8B
:1010F000EDCFCE010E94F107E9CFDF91CF910895A6
:1011000090E0FC01E858FA4F2491FC01E052F24FC4
:101110003491FC01E453F24FE491EE23C9F0222311
:1011200039F0233001F1A8F4213019F1223029F1EE
:10113000F0E0EE0FFF1FE854F24FA591B4918FB786
:10114000F894EC91611126C030953E233C938FBFFB
:1011500008952730A9F02830C9F0243049F780914C
:1011600080008F7D03C0809180008F778093800006
:10117000DFCF84B58F7784BDDBCF84B58F7DFBCF88
:101180008091B0008F778093B000D2CF8091B00073
:101190008F7DF9CF3E2BDACF3FB7F89480913B0299
:1011A00090913C02A0913D02B0913E0226B5A89BD1
:1011B00005C02F3F19F00196A11DB11D3FBFBA2FE9
:1011C000A92F982F8827BC01CD01620F711D811DA9
:1011D000911D42E0660F771F881F991F4A95D1F72E
:1011E00008958F929F92AF92BF92CF92DF92EF922B
:1011F000FF924B015C010E94CC086B017C010E94B4
:10120000CC086C197D098E099F09683E73408105E1
:101210009105A8F321E0821A9108A108B10888EE8F
:10122000C80E83E0D81EE11CF11C81149104A104B6
:10123000B10429F7FF90EF90DF90CF90BF90AF906F
:101240009F908F9008952FB7F89460913702709116
:1012500038028091390290913A022FBF0895089583
:10126000FC016370668B84819581268137816130B2
:1012700039F0633029F0918780873387228708957A
:10128000318720879387828708952F923F924F92CC
:101290005F926F927F928F929F92AF92BF92CF9206
:1012A000DF92EF92FF920F931F93CF93DF93CDB70F
:1012B000DEB76A970FB6F894DEBF0FBECDBF9A8F28
:1012C000898F7A8369834A01D22E18870F83370169
:1012D000BC2CDC0159962D913C915A972115310572
:1012E00009F015C118968D919C9119976817790787
:1012F0000CF0D7C11A968D919C91481759070CF0A4
:10130000D0C14C2C512CB6E0CB9E600D711D112428
:101310007C876B87161617060CF0C3C1EA2DF0E028
:10132000FA87E98793E0EE0FFF1F9A95E1F7F88BB4
:10133000EF87CF01840F951F181619060CF0B1C165
:10134000A98DBA8D58968C91811104C0BFEABD1544
:1013500008F4D394A98DBA8DED91FC911197028474
:10136000F385E02DCD010995B5E0DB9EC001112488
:10137000E981FA81FC83EB83312C212C9C012858D4
:101380003F4F388F2F8B4A2D50E05E8B4D8BEF896E
:10139000F88DE20DF31D44919E828D82D12CC12CDB
:1013A00069817A81620D731D7A8B698B842F90E03D
:1013B0009C8B8B8BE98DFA8DA081B18140FF82C01F
:1013C000F1E0BF126FC0AF126DC01C96ED91FC91A1
:1013D0002F813885A4014C0D5D1D69897A89898D1D
:1013E0009A8D0995EB89FC89F595E7954E2F5FEF6E
:1013F000C51AD50A6D817E818D899E89680F791FF6
:101400007E836D8398E0C916D10481F6AFEF2A1A66
:101410003A0AEB81FC81E40DF51DFC83EB83F5E0DA
:101420002F16310409F0B3CF2F81388526153705E3
:10143000B9F0A98DBA8DED91FC91B1E0BB1257C006
:10144000AB1255C069817A816B5F7F4F0088F1894B
:10145000E02D830128E030E0A401898D9A8D099563
:10146000A98DBA8DED91FC9111970688F789E02D31
:10147000CD016A960FB6F894DEBF0FBECDBFDF91E7
:10148000CF911F910F91FF90EF90DF90CF90BF9081
:10149000AF909F908F907F906F905F904F903F9014
:1014A0002F9009941E96ED91FC91EF80F8840985A8
:1014B0001A8592014D815E816B817C81898D9A8D27
:1014C000099590CF2F8138852615370509F48ACFE5
:1014D00031E0B31207C0A31205C01C96ED91FC9138
:1014E000930178CF1E96ED91FC917301E0CF6B854F
:1014F0007C85641975090684F785E02D73010F85D5
:1015000018899201A401898D9A8D0995A9CFF901B5
:1015100034969491329745915491D91AB7E0DB9E55
:10152000400D511D1124F901259134913C8B2B8BD9
:10153000FA0125903490FA013296749031963491E4
:10154000398B329664903196449041E04C1518F0F6
:101550004A1508F07FC0662D062C000C770B7C83A3
:101560006B83842D042C000C990B9E838D83A98D95
:10157000BA8DED91FC9111970284F385E02DCD0198
:101580000995512CD12CC12CEA2DF0E0FA87E9877E
:101590002B2D30E03C872B87A401440D511D47FCC7
:1015A0005A95588F4F8B69817A81660D711D67FC42
:1015B0007A957E876D877989C71608F051CF2C2DD3
:1015C00030E04D815E81420F531FA985BA854A9F45
:1015D000C0014B9F900D5A9F900D1124FC01E80D06
:1015E000F91DF88BEF87852D612C4F89588D420F9F
:1015F000531F5E8B4D8B671408F050C044244394F6
:10160000480E877041F4C1010196EB89FC89E20D17
:10161000F31DD4901C01D7FE19C0A98DBA8DED9190
:10162000FC91662D70E0B1E0BB1219C0AB1217C07F
:101630002D853E85620F731F0484F585E02D2F8173
:1016400038854D895E89898D9A8D0995DD0C639465
:10165000842DD1CF1E821D821C821B8288CF4B819C
:101660005C81640F751FAB85BC856A9FC0016B9F51
:10167000900D7A9F900D112469817A81680F791FEE
:101680000684F785E02DEF80F88409851A859D0191
:101690004F855889898D9A8D0995D8CF570CC39459
:1016A0008ACF6A960FB6F894DEBF0FBECDBFDF912A
:1016B000CF911F910F91FF90EF90DF90CF90BF904F
:1016C000AF909F908F907F906F905F904F903F90E2
:1016D0002F9008958F929F92AF92CF92EF92FF92A8
:1016E0000F931F93CF93DF93EC01262F898D9A8D53
:1016F000009709F051C06A30D1F41D861C868D898F
:1017000048E0849F900111248E859F85820F931F4E
:101710009F878E8781E090E0DF91CF911F910F919D
:10172000FF90EF90CF90AF909F908F9008956D3085
:1017300089F3CC88AD888F898823C1F08C859D85FD
:1017400036E0C39E800D911D1124488559854817A8
:10175000590764F44E855F851D861C8638E0A39E7C
:10176000C0011124840F951F9F878E87EA88FB880C
:10177000088919894E855F856C857D85CE010E941B
:1017800045092C898C859D8546E0249F800D911DFF
:1017900011249D878C87BECF6A3069F41D861C8614
:1017A000FC013896E4912D898E859F85E29F800DFE
:1017B000911D1124ADCF6D3009F4ACCFFC013496EE
:1017C0003491631708F4A6CF3296E491E61708F433
:1017D000A1CFFC01329685909490462F431B342F65
:1017E00047E0349F800C911C1124F401329634910F
:1017F0003196E4913323A9F1EE2399F1CC88F401D9
:101800003596E491AD884F89442301F10E2E000CEA
:10181000FF0BE30FF11DCE9EA001CF9E500D1124B2
:101820006C857D85460F571F688579856417750718
:101830006CF44E855F851D861C86FC013896E4910C
:10184000AE9E400D511D11245F874E87EA88FB88AC
:10185000088919894E855F856C857D85CE010E943A
:101860004509F4013496E4912C898C859D85E29F8D
:10187000800D911D11248DCF6F927F928F929F9238
:10188000AF92BF92CF92DF92EF92FF920F931F938E
:10189000CF93DF93EC016B015A0139014801E881D4
:1018A000F9810284F385E02D0995E881F9810288A8
:1018B000F389E02D87019301A501B601CE010995B9
:1018C000A501480D591D41505109E881F98102884F
:1018D000F389E02D9301B601CE010995E881F981E4
:1018E0000088F189E02D9401A501B601CE0109958A
:1018F000C60CD71CB60161507109E881F9810088D6
:10190000F189E02D9401A501CE010995E881F981C5
:101910000688F789E02DCE01DF91CF911F910F91BD
:10192000FF90EF90DF90CF90BF90AF909F908F90FF
:101930007F906F9009946F927F928F929F92AF9257
:10194000BF92CF92DF92EF92FF920F931F93CF93AC
:10195000DF935C01EB016A01490138018701DC0179
:10196000ED91FC916217730719F5641675062CF05A
:10197000962D872D3A01C92ED82E960126193709A2
:101980002F5F3F4F048CF58DE02DA301BE01C501F3
:101990000995DF91CF911F910F91FF90EF90DF900C
:1019A000CF90BF90AF909F908F907F906F90089551
:1019B0004615570591F42617370724F0892D4B015A
:1019C000C22FD82F9E01281939092F5F3F4F068C4F
:1019D000F78DE02DA601B401DACF0284F385E02D66
:1019E0000995D501ED91FC910488F589E02D8301DD
:1019F0009401A601BE01C5010995D501ED91FC91A7
:101A00000688F789E02DC501DF91CF911F910F91D5
:101A1000FF90EF90DF90CF90BF90AF909F908F900E
:101A20007F906F900994EF92FF920F931F93DC01C8
:101A30001A960D911C911B9718962D913C91199710
:101A4000ED91FC9100A0F1A1E02D7B0150E040E080
:101A500070E060E009951F910F91FF90EF9008955D
:101A60004F925F926F927F928F929F92AF92BF92AE
:101A7000CF92DF92EF92FF920F931F93CF93DF935A
:101A80006C012B015A0139014801DC01ED91FC91F7
:101A90000284F385E02D0995E201640C751CD601E2
:101AA000ED91FC91C615D7055CF40088F189E02D15
:101AB00087019401A501BE01C60109952196EFCFCA
:101AC0000688F789E02DC601DF91CF911F910F9114
:101AD000FF90EF90DF90CF90BF90AF909F908F904E
:101AE0007F906F905F904F9009948F929F92AF92EA
:101AF000BF92CF92DF92EF92FF920F931F93CF93FB
:101B0000DF93EC015B014A016901E881F9810284FC
:101B1000F385E02D099595012C0D3D1D21503109CE
:101B2000E881F9810488F589E02D78018401A40118
:101B3000B501CE010995E881F9810688F789E02D84
:101B4000CE01DF91CF911F910F91FF90EF90DF9029
:101B5000CF90BF90AF909F908F9009948F929F925B
:101B6000AF92BF92CF92DF92EF92FF920F931F93AB
:101B7000CF93DF93EC015B014A0169017801E881B1
:101B8000F9810284F385E02D0995C80CD91C8601E2
:101B900001501109E881F9810488F589E02D95014A
:101BA000A401B501CE010995E881F9810688F7897C
:101BB000E02DCE01DF91CF911F910F91FF90EF901B
:101BC000DF90CF90BF90AF909F908F900994EF924D
:101BD000FF920F931F93DC01ED91FC9100A0F1A106
:101BE000E02D09951F910F91FF90EF9008950F93AD
:101BF0001F93DC01ED91FC91068CF78DE02D09958A
:101C00001F910F9108950F931F93DC01ED91FC91AB
:101C1000048CF58DE02D09951F910F910895DC013D
:101C2000ED91FC910084F185E02D09949F92AF9293
:101C3000BF92CF92DF92EF92FF920F931F93CF93B9
:101C4000DF936C015B01F12CE12C912C10E000E0A2
:101C5000D0E0C0E0CE0187709927990C892B59F408
:101C6000FE0183E0F595E7958A95E1F7EE0DFF1DFE
:101C7000EA0DFB1D949097FE07C021E030E0A8011B
:101C8000BE01C6010E940F0E2196C038D10511F782
:101C90000F5F1F4F80E1E80EF11C00341105C1F603
:101CA000DF91CF911F910F91FF90EF90DF90CF9038
:101CB000BF90AF909F9008952F923F924F925F9266
:101CC0006F927F928F929F92AF92BF92CF92DF924C
:101CD000EF92FF920F931F93CF93DF9300D000D02A
:101CE00000D0CDB7DEB73C016A013E832D83FC8274
:101CF000EB825801A41AB50AB7FE03C0B194A194AF
:101D0000B1088D809E80861A970A97FE03C0919431
:101D1000819491088A149B045CF0902F812F0D818F
:101D20001E819D838E839C2D8D2D6B01692F782FB5
:101D30000C151D055CF09D818E817E836D83692F5E
:101D4000782F902F812F8601C92ED82E1601201AA8
:101D5000310A2B012D813E81421A530A57FE03C0DE
:101D6000519441945108710137FE03C03FEFE31ACB
:101D7000F30AF594E7948D819E81861797075CF5A9
:101D8000A1E0B0E0BA83A983C016D1064CF1D3011B
:101D9000ED91FC910484F585E02D2B813C81A80117
:101DA0006D817E818A149B041CF04D815E81B80197
:101DB000C3010995E418F508F7FE0AC02D813E819C
:101DC00089819A81280F391F3E832D83E20CF31CF1
:101DD0000F5F1F4FD9CF2FEF3FEF3A832983D4CF27
:101DE00026960FB6F894DEBF0FBECDBFDF91CF9120
:101DF0001F910F91FF90EF90DF90CF90BF90AF9029
:101E00009F908F907F906F905F904F903F902F901A
:101E100008952091EC01260F3327331F213231051D
:101E2000ECF420911002FC0190E080E0243069F095
:101E300082E00895A091EC012191AC0144535E4FE2
:101E4000A40FB52FB11D2C930196861798F380919E
:101E5000EC01680F6093EC0180E0089581E0089543
:101E60001092100281E0809312021092110261E040
:101E700082E10E94800861E083E10E948008E9EB32
:101E8000F0E080818E7F808380818D7F808388E4F5
:101E90008093B80085E48093BC000895CF93DF93CE
:101EA00091E09093CB018823B9F0C091B800D09114
:101EB000BA008091BC008A7B8093BC0060E082E124
:101EC0000E94800860E083E10E9480080E94300F39
:101ED000D093BA00C093B800DF91CF910895E091FC
:101EE000450280914402E81730F4F0E0EA55FE4FD5
:101EF000808190E008958FEF9FEF089590914502C3
:101F0000809144022FEF3FEF981748F4E92FF0E05B
:101F1000EA55FE4F208130E09F5F90934502C90152
:101F200008958091440290914502891B990B089570
:101F3000CF92DF92EF92FF920F931F93CF93DF9395
:101F40007C01CB018A0120914D02222389F0EB0113
:101F50006B01C40ED51ECC15DD0569F06991D70162
:101F6000ED91FC910190F081E02DC7010995F3CF2F
:101F7000642F0E94090FC801DF91CF911F910F912B
:101F8000FF90EF90DF90CF900895CF93DF931F9253
:101F9000CDB7DEB7698320914D022223F9F020915D
:101FA0004A02203258F021E030E0FC0133832283E2
:101FB00090E080E00F90DF91CF91089580914B02E7
:101FC000E82FF0E0EA57FE4F998190838F5F80936E
:101FD0004B0280934A0281E090E0ECCF61E0CE01B9
:101FE00001960E94090FF7CFCF92DF92EF92FF92F6
:101FF0000F931F93CF93DF93D0914A0281E0D132A8
:1020000008F09CC0C0914C020E94CC086B017C017E
:102010008091100281116CC082E08093100281E0F7
:10202000809312028FEF80930F0210923402D093AC
:102030003302A6E8B1E0E3E1F2E080E0D8138DC01E
:102040001092350280913502CC0FC82BC093350217
:1020500080911102813009F084C0109211020E9417
:10206000CC086B017C01809135028093BB0080918C
:10207000C7019091C801A091C901B091CA01892BF3
:102080008A2B8B2BA1F00E94CC080091C7011091E4
:10209000C8012091C9013091CA016C197D098E09CE
:1020A0009F09061717072807390708F442C08091CF
:1020B000BC0083FDD8CF85EC8093BC000E94CC0887
:1020C0006B017C0180911002823009F44CC0809138
:1020D0000F028F3F09F469C080910F02803209F42A
:1020E00066C080910F02803309F463C084E026C08B
:1020F0008091C7019091C801A091C901B091CA0116
:10210000892B8A2B8B2B09F483CF0E94CC0800915A
:10211000C7011091C8012091C9013091CA016C1901
:102120007D098E099F09061717072807390708F048
:102130006FCF8091C6010E944E0F85E010924B0236
:1021400010924A0210924D02DF91CF911F910F9190
:10215000FF90EF90DF90CF9008959D9191938F5FC6
:102160006DCF85EEA9CF8091C7019091C801A09154
:10217000C901B091CA01892B8A2B8B2B09F4A2CFFC
:102180000E94CC080091C7011091C8012091C9019B
:102190003091CA016C197D098E099F09061717072E
:1021A0002807390708F08ECFC4CF80E0C7CF82E080
:1021B000C5CF83E0C3CFEF92FF920F931F93CF93CE
:1021C000DF93EC01EC80FD806E157F050CF070C094
:1021D00057FF04C0240F351F50E040E08E819F81DF
:1021E000FA01E20FF31F8E179F071CF49C01241BBA
:1021F000350B121613060CF05BC0922F842F8695B8
:10220000869586958E9DD0018F9DB00D11246A0F05
:102210007B1FAF8DB8A1A60FB71F477049F188E0AB
:10222000841B482F682F70E0FB01E059FF4FE491B9
:10223000281708F063C0621B71092FEF30E002C05D
:10224000359527956A95E2F7E2230130110539F0BB
:10225000B0F10230110561F58C91E82702C08C9134
:10226000E82BEC93941720F12C813D81A20FB31F32
:10227000E92FE41BE83078F00230110521F58E2FAC
:102280009C9190959C932C813D81A20FB31F885007
:102290008830B0F7E770EE2359F0F0E0E859FF4FCF
:1022A000E49101301105F9F010F10230110519F136
:1022B000DF91CF911F910F91FF90EF900895E095DE
:1022C0008C91E823CECF81E00115110509F480E05F
:1022D00081959E2F8C932C813D81A20FB31F985026
:1022E0009830C0F7D7CF8C91E82BEC93E1CFE095F5
:1022F0008C91E823FACF8C91E827F7CF01301105B4
:1023000009F4ADCFE0F20230110509F4A5CFAE0D0E
:10231000BF1DAECF0F931F93CF93DF9377FF04C002
:10232000260F371F70E060E0DC011496CD91DC9140
:10233000FB01E20FF31FCE17DF071CF49E01261BE3
:10234000370B121613064CF5FA0157FD3796A3E02A
:10235000F595E795AA95E1F7EC9FD001ED9FB00DBB
:10236000FC9FB00D11246A0F7B1FDC015F96ED917D
:10237000FC91E60FF71F4770552781E090E001C000
:10238000880F4A95EAF7482F0130110559F0A8F057
:102390002E0F3F1F02301105E1F0DF91CF911F9109
:1023A0000F9108952E0F3F1FE217F307B1F38191AC
:1023B000DF011197842B8C93F7CF80952E0F3F1F51
:1023C000E217F30751F39191DF01119798239C9342
:1023D000F7CFE217F30709F38191DF011197842703
:1023E0008C93F7CF0F931F93FA01DC0156964C9113
:1023F00056974230E9F04330A1F1413061F514962F
:102400004D915C91DA01AE1BBF0BFD01E21BF30B9A
:1024100077FD0BC0DC0116964D915C916417750732
:1024200024F4AB01BF010E948A111F910F910895FE
:1024300014964D915C91DA01A61BB70BBD0161505A
:102440007109DC0116964D915C91DA01AE1BBF0B50
:10245000FD01E21BF30B77FDE8CFAF010E94DB101B
:10246000E4CF16964D915C91DA01A61BB70BBD0126
:1024700061507109CDCF0F931F93FA01DC0156967D
:102480004C9156974230A9F0433091F1413019F503
:1024900014964D915C91DA01AE1BBF0BFD01319793
:1024A000F7FD04C0AB01BF010E94DB101F910F912B
:1024B000089514964D915C91DA01A61BB70BBD01EE
:1024C000DC0116964D915C91DA01AE1BBF0BFD014C
:1024D0003197621B730BF7FDE9CFDC0116964D9126
:1024E0005C91E417F50714F7AF010E948A11DECF63
:1024F00016964D915C91DA01A61BB70BBD01621BCC
:10250000730BCECFFC0177FD64C080859185681781
:1025100079070CF05EC057FD5CC082859385481733
:1025200059070CF056C086898230B1F0833029F10A
:10253000813041F484819581841B950BAB01BC01F2
:10254000615071092130310509F108F443C022308E
:10255000310509F463C0089584819581DC01A61BCF
:10256000B70BBD016150710986819781DC01A41B05
:10257000B50BAD0141505109E5CF86819781861B8E
:10258000970BBA01AC0141505109DCCFCA0157FD8C
:102590000796A3E095958795AA95E1F7A481B58163
:1025A0008A9F90018B9F300D9A9F300D1124620FEE
:1025B000731F078CF0A1E02DE60FF71F477055271A
:1025C00021E030E001C0220F4A95EAF78081822B9A
:1025D00080830895CA0157FD079633E09595879546
:1025E0003A95E1F7A481B5818A9F90018B9F300DC8
:1025F0009A9F300D1124620F731F078CF0A1E02DFC
:10260000E60FF71F4770552781E090E001C0880F63
:102610004A95EAF7809590818923DACFCA0157FD60
:10262000079623E0959587952A95E1F7A481B581D2
:102630008A9F90018B9F300D9A9F300D1124620F5D
:10264000731F078CF0A1E02DE60FF71F4770552789
:1026500021E030E001C0220F4A95EAF7808182270D
:10266000B7CF08958EBD00000DB407FEFDCF8EB527
:102670000895EF92FF920F931F93CF93DF937C0106
:10268000C62F80915A0390915B03009709F459C0BB
:1026900020915E0331E030934D0220934C02109262
:1026A0004B0210924A02DC01ED91FC910190F08105
:1026B000E02D60E009958701EE24E394F12CD1E050
:1026C000C15080915A0390915B03CF3F91F1B0E2EA
:1026D000EB16F104D8F00E94F40F80915A03909108
:1026E0005B0320915E03D0934D0220934C02109225
:1026F0004B0210924A02DC01ED91FC910190F081B5
:10270000E02D60E00995EE24E394F12C80915A03CA
:1027100090915B03F8016491DC01ED91FC910190D3
:10272000F081E02D0995BFEFEB1AFB0A0F5F1F4FF9
:10273000C7CFDF91CF911F910F91FF90EF900C9435
:10274000F40FE0916A03F0916B0390818091700324
:102750008095892380838701C15008F438C0F8012F
:1027600084912091580330915903232B29F00E9422
:1027700032130F5F1F4FF0CF28E030E040E8E091C8
:102780006603F091670390916E03582F5423D9F09C
:102790005081952B9083E0916803F09169039081BB
:1027A00050916F03952B9083E0916803F09169033A
:1027B000508190916F039095952390834695215079
:1027C0003109E9F6D6CF508190959523E3CFDF917B
:1027D000CF911F910F91FF90EF9008951F93CF938A
:1027E000DF93EC018D8D9E8D009721F1162F29A18D
:1027F00031E030934D0220934C0210924B02109224
:102800004A02DC01ED91FC910190F081E02D60E045
:1028100009958D8D9E8DDC01ED91FC910190F081EB
:10282000E02D612F09958D8D9E8DDF91CF911F91A8
:102830000C94F40FADA5BEA59C918BA9809589231E
:102840008C938B8D9C8D892B31F0862FDF91CF91CE
:102850001F910C94321328E030E080E8A9A5BAA5B6
:1028600099A9462F4823C1F04C91942B9C93ABA57A
:10287000BCA59C914AA9942B9C93ABA5BCA54C915B
:102880009AA9909594239C9386952150310931F70C
:10289000DF91CF911F9108954C9190959423E6CFAD
:1028A0008CBD9DBD0895DF92EF92FF920F931F9311
:1028B000CF93DF9380915A0390915B03892B09F4A6
:1028C00098C020917203309173034091740350912A
:1028D000750360E074E284EF90E00E94661D205171
:1028E0003109410951095695479537952795209308
:1028F000B80065E084EF9DE00E94391360914103C8
:1029000061508DE393E00E94EE13209143033091D8
:102910004403C901079697FD079633E0959587957F
:102920003A95E1F72091410330914203829F800163
:10293000839F100D929F100D1124C0915C03D091C4
:102940005D0380915A0390915B030C0F1D1F00974C
:1029500009F48FC020915E0331E030934D02209343
:102960004C0210924B0210924A02DC01ED91FC9154
:102970000190F081E02D60E40995EE24E394F12CC0
:10298000DD24D39480915A0390915B030C171D07AB
:1029900009F446C0B0E2EB16F104D8F00E94F40F3F
:1029A00080915A0390915B0320915E03D0924D0277
:1029B00020934C0210924B0210924A02DC01ED91DE
:1029C000FC910190F081E02D60E40995EE24E39400
:1029D000F12C80915A0390915B036991DC01ED9198
:1029E000FC910190F081E02D0995BFEFEB1AFB0AF5
:1029F000C9CF8091580390915903892B31F0809170
:102A00007B0390917C030E945014E0916C03F09141
:102A10006D0390818091710380958923808369CFB4
:102A20000E94F40F80915A0390915B03892B09F463
:102A300061C02091760330917703409178035091E3
:102A4000790360E074E284EF90E00E94661D2051FB
:102A50003109410951095695479537952795209396
:102A6000B800DF91CF911F910F91FF90EF90DF9011
:102A70000895E0916A03F0916B0380819091700357
:102A8000892B80830C171D0769F2899120915803C7
:102A900030915903232B19F00E943213F3CF28E011
:102AA00030E040E8E0916603F091670390916E0397
:102AB000582F5423D9F05081952B9083E0916803CF
:102AC000F0916903908150916F03952B9083E09171
:102AD0006803F0916903508190916F03909595235D
:102AE0009083469521503109E9F6CCCF50819095DD
:102AF0009523E3CFE0916C03F0916D038081909179
:102B00007103892B8083ADCF1F93CF93DF93EC01AB
:102B1000162F8D8D9E8D892BB1F12DA93EA94FA920
:102B200058AD60E074E284EF90E00E94661D205191
:102B300031094109510956954795379527952093B5
:102B4000B80066EA111167EACE010E94EE138D8D7E
:102B50009E8D892B41F129AD3AAD4BAD5CAD60E066
:102B600074E284EF90E00E94661D20513109410912
:102B7000510956954795379527952093B800DF91D1
:102B8000CF911F9108958B8D9C8D892B21F08EAD57
:102B90009FAD0E945014EFA5F8A990818CA9809553
:102BA00089238083CECFEFA5F8A980819CA9892BAA
:102BB0008083E5CF089590E080E00895209143035D
:102BC00030914403C901079697FD079623E0959538
:102BD00087952A95E1F72091410330914203829F26
:102BE000A001839F500D929F500D112470E060E072
:102BF00080915C0390915D030C94B81EFC010190E0
:102C00000020E9F73197AF01481B590BBC018EE456
:102C100092E00C9471078F929F92AF92BF920F93A4
:102C20001F93CF93DF93CDB7DEB7A1970FB6F8947C
:102C3000DEBF0FBECDBF19A2423008F44AE08E01BC
:102C40000F5D1F4F842E912CB12CA12CA501940156
:102C50000E94661DE62FB901CA01EA30F4F4E05D76
:102C6000D801EE938D01232B242B252B79F790E0AF
:102C700080E0109719F0CD010E94FE15A1960FB6C5
:102C8000F894DEBF0FBECDBFDF91CF911F910F91A2
:102C9000BF90AF909F908F900895E95CE1CF1F9314
:102CA000CF93DF9300D000D0CDB7DEB78EE492E0B3
:102CB0000E94AF078EE492E00E94AF0710E08A33D3
:102CC00079F0E1E0F0E0EC0FFD1FE10FF11D17FDE1
:102CD000FA9580831F5F8EE492E00E94AF07EFCFEA
:102CE000CE0101960E94401D182F8EE492E00E94B2
:102CF000AF078053990B8230910520F4682F812F04
:102D00000E9480088EE492E00E94AF078A3011F0A2
:102D10008D30C1F78EE492E00E94C3078A3021F41F
:102D20008EE492E00E94AF070F900F900F900F90EB
:102D3000DF91CF911F9108950E94B31E85ED80937E
:102D4000BC008091C7019091C801A091C901B091C8
:102D5000CA010796A11DB11D23E0B695A7959795C9
:102D600087952A95D1F72091BC0024FD03C01092CD
:102D7000100208954091C7015091C8016091C901A6
:102D80007091CA01452B462B472B69F30097A1058B
:102D9000B10541F025E32A95F1F700000197A1095B
:102DA000B109E1CF8091C6010C944E0F1F920F9292
:102DB0000FB60F9211242F933F934F935F936F930E
:102DC0007F938F939F93AF93BF93EF93FF938EE483
:102DD00092E00E94F107FF91EF91BF91AF919F9117
:102DE0008F917F916F915F914F913F912F910F90B4
:102DF0000FBE0F901F9018951F920F920FB60F9253
:102E000011242F938F939F93EF93FF93E0915E0292
:102E1000F0915F028081E0916402F091650282FD91
:102E20001BC09081809167028F5F8F732091680231
:102E3000821741F0E0916702F0E0E25BFD4F958F71
:102E400080936702FF91EF919F918F912F910F9047
:102E50000FBE0F901F9018958081F4CF1F920F9294
:102E60000FB60F9211242F933F938F939F93AF939D
:102E7000BF938091370290913802A0913902B091AE
:102E80003A023091360223E0230F2D3758F5019690
:102E9000A11DB11D20933602809337029093380212
:102EA000A0933902B0933A0280913B0290913C0288
:102EB000A0913D02B0913E020196A11DB11D8093EB
:102EC0003B0290933C02A0933D02B0933E02BF911F
:102ED000AF919F918F913F912F910F900FBE0F90C7
:102EE0001F90189526E8230F0296A11DB11DD2CF81
:102EF0001F920F920FB60F9211242F933F934F936F
:102F00005F936F937F938F939F93AF93BF93EF9351
:102F1000FF938091B900887F803609F44AC0F0F5AC
:102F2000883209F4A7C018F5803109F49BC0B8F4C1
:102F3000882309F4F9C0883009F494C0FF91EF9117
:102F4000BF91AF919F918F917F916F915F914F91C1
:102F50003F912F910F900FBE0F901F9018958831C1
:102F600009F488C0803251F780930F0214C0803476
:102F700009F49DC040F48033B9F38833F9F68093A7
:102F80000F0285ECB0C0803509F485C0883509F49E
:102F900096C0883499F60E949E16D0CF883909F4DD
:102FA0008CC038F5883729F050F4883611F0803716
:102FB00029F683E08093100210920E0257C08838E1
:102FC00009F47BC0803919F0803809F0B7CF8091BF
:102FD0000E02803208F071C0E0910E0281E08E0F87
:102FE00080930E028091BB00F0E0E251FE4F80839F
:102FF0003DC0803B39F0E0F4803A09F479C0883A6A
:1030000009F09CCF84E0809310021092ED011092A1
:10301000EC01E0914202F091430209958091EC01AC
:1030200081110FC081E08093EC011092CC0109C0A6
:10303000803C09F4A6CF883C09F4A3CF883B09F073
:103040007DCFE091ED0181E08E0F8093ED01F0E006
:10305000E453FE4F80818093BB009091ED018091FD
:10306000EC0129C0809135028093BB0085EC8093F0
:10307000BC0064CF9091340280913302981758F5C8
:10308000E091340281E08E0F80933402F0E0ED5E37
:10309000FD4F8081E9CFE091340281E08E0F809373
:1030A00034028091BB00F0E0ED5EFD4F8083909193
:1030B0003402809133029817C8F285E8D8CFE091A6
:1030C000340281E08E0F809334028091BB00F0E0E7
:1030D000ED5EFD4F80838091120281115CCF81E013
:1030E0008093110284EA8093BC001092100226CFD4
:1030F00085EC8093BC001092100280910E02803209
:1031000030F4E0910E02F0E0E251FE4F1082609147
:103110000E0270E0E0914002F09141028EEE91E0EB
:10312000099510920E020ACF10920F0234CFEEE4EE
:10313000F2E01382128248EE53E060E070E04483D4
:103140005583668377838AE091E09183808385EC61
:1031500090E09587848784EC90E09787868780EC61
:1031600090E0918B808B81EC90E0938B828B82EC52
:1031700090E0958B848B86EC90E0978B868B118EFC
:10318000128E138E148EA1E3B3E013961C921E923E
:10319000129714964D935D936D937C9317978CE1E2
:1031A00091E011969C938E93EBEEF2E016821782DB
:1031B0001086118612861386148615861686178643
:1031C000108A118A128A138A148A158AEDE3F3E0B1
:1031D0001382128220E830E03583248380E490E07B
:1031E000978386833187208793878287168A1586FF
:1031F00014861786168681E0858B848B2FEF3FEF30
:10320000338B228B318B208B878B108E128E118EFD
:103210008EE291E091838083148E138EB68FA58FFA
:1032200010A2178E8FEF84A385A386A387A384E0C3
:1032300080A780E89AE1A6E0B0E085AB96ABA7ABAB
:10324000B0AF80EA96E8A1E0B0E081AF92AFA3AF63
:10325000B4AF80E586AF17AE0895789484B58260E8
:1032600084BD84B5816084BD85B5826085BD85B52A
:10327000816085BD80916E00816080936E001092A8
:103280008100809181008260809381008091810023
:1032900081608093810080918000816080938000B4
:1032A0008091B10084608093B1008091B000816012
:1032B0008093B00080917A00846080937A0080913E
:1032C0007A00826080937A0080917A008160809396
:1032D0007A0080917A00806880937A001092C10011
:1032E00010922D0310922E0310922F031092300390
:1032F0001092ED021092EE021092EF021092F00284
:103300000E9423096B017C014B015C0128EB820EBA
:103310002BE0921EA11CB11C0E9423096C157D0597
:103320008E059F0528F086169706A806B906A0F711
:1033300068EE73E080E090E00E94F1080E942907A7
:103340000E9423096093ED027093EE028093EF02D6
:103350009093F00286E591E00E94FE150E942309F9
:103360006B017C014B015C013AE0830E911CA11CB6
:10337000B11C0E9423096C157D058E059F0528F060
:1033800086169706A806B906A0F781E08093010388
:103390000E9423096093ED027093EE028093EF0286
:1033A0009093F00287E691E00E94FE150E942907A3
:1033B00080915C0390915D03892B09F404C20E9403
:1033C000DE158091430390914403819734F06EE9B8
:1033D00075E08DE393E00E94160E82E080935F0318
:1033E00080915A0390915B03892B09F420C28CE3EE
:1033F00080935E03109245021092440210924B0299
:1034000010924A020E94300F8EE997E09093430297
:10341000809342028FE997E09093410280934002AB
:103420008091650387FD1DC00E94510761E0809176
:1034300065030E94800861E070E080E090E00E94F7
:10344000F10860E0809165030E9480086AE070E006
:1034500080E090E00E94F10861E0809165030E94A5
:10346000800880915A0390915B03892B09F496C2DE
:10347000209172033091730340917403509175034E
:1034800060E074E284EF90E00E94661D20513109F3
:103490004109510956954795379527952093B800CE
:1034A00064E08AE995E00E9439136091430361501A
:1034B0008DE393E00E94EE1364E086E995E00E94BC
:1034C000391380915F0364E1813009F460E18DE399
:1034D00093E00E94EE1364E082E995E00E943913C4
:1034E0008FE880937A038091410390914203803862
:1034F000910509F06CC2809143039091440380349C
:10350000910509F074C280915F03813009F45DC2B6
:103510008FEC80937A03C2E16AED8DE393E00E9421
:10352000EE136C2F8DE393E00E94EE1361E88DE3C0
:1035300093E00E94EE1360917A038DE393E00E9482
:10354000EE1369ED8DE393E00E94EE1380915F032B
:1035500061EF813009F462E28DE393E00E94EE13A3
:1035600066E08CE895E00E94391380915A039091AF
:103570005B03892B09F43FC22091760330917703D6
:10358000409178035091790360E074E284EF90E019
:103590000E94661D205131094109510956954795F0
:1035A000379527952093B8000E94531460ED77E07B
:1035B00080E090E00E94F1080E94DE1568EE73E062
:1035C00080E090E00E94F108C0E0D0E084EF882E17
:1035D00099249394A12CB12C0E942309672B682B6A
:1035E000692B09F412C20E942309C0904602D090B0
:1035F0004702E0904802F09049026C157D058E0567
:103600009F0508F425C2C0904602D0904702E09082
:103610004802F09049029B01AC012C193D094E096A
:103620005F0969017A013AEFC316D104E104F1049C
:1036300008F4F3C1609346027093470280934802F6
:10364000909349028092F9029092FA02A092FB02B2
:10365000B092FC021092FD021092FE021092FF0244
:10366000109200038091F1029091F202A091F30276
:10367000B091F4028093F5029093F602A093F702C2
:10368000B093F8020E9423096093F1027093F20252
:103690008093F3029093F4028EE492E00E94C307B9
:1036A000843611F40E944F160E9423096093ED02A4
:1036B0007093EE028093EF029093F0020E94230930
:1036C0006B017C0181E791E00E94FE154AE061E018
:1036D00070E080E090E00E940B1688E791E00E9485
:1036E000FE154AE0C701B6010E940B168AE791E079
:1036F0000E94FE158091F1029091F202A091F302D6
:10370000B091F402A7019601281B390B4A0B5B0B01
:10371000CA01B9014AE00E940B168AE791E00E94B3
:10372000FE156091F1027091F2028091F302909186
:10373000F402C090F502D090F602E090F702F0900B
:10374000F8026C197D098E099F094AE00E940B1648
:103750008CE791E00E94FE150E9423094AE00E9436
:103760000B168EE791E00E94FE158EE691E00E9416
:10377000FE150E9423092B013C017C016B0135E001
:10378000C30ED11CE11CF11C0E94230964157505B0
:103790008605970528F0C616D706E806F906A0F7AD
:1037A0008EE492E00E94C307843611F40E944F1603
:1037B0000E9423096093F1027093F2028093F30256
:1037C0009093F4022AC12091430330914403C9012C
:1037D000079697FD079623E0959587952A95E1F73B
:1037E0002091410330914203AC01429FC001439FAD
:1037F000900D529F900D11240E948E1D90935D0399
:1038000080935C03892B09F0DACDCEE9D9E0FE0183
:103810006491662339F08EE492E00E9413082196A9
:10382000892BA9F78EE691E00E94FE15FFCF8091CB
:1038300063030E945107809164030E9451078091A5
:103840006303082E000C990BFC01E453F24FE49142
:10385000F0E0EE0FFF1FE854F24F259134913093C2
:103860006B0320936A03FC01E052F24FE491E09372
:10387000700380916403082E000C990BFC01E45343
:10388000F24FE491F0E0EE0FFF1FE854F24FA591E4
:10389000B491B0936D03A0936C03FC01E052F24F1E
:1038A000E491E09371038C91E82BEC9380915803A1
:1038B00090915903892B89F1CFB7F89480913F02F9
:1038C000811124C0E6EDFDE08491EAEEFDE09491E3
:1038D000E82FF0E0EE0FFF1FEE53F24FA591B491E9
:1038E000EC91E92321F461E08AE00E9480088AE0FB
:1038F0000E9451078CB580618CBD8CB580648CBDF5
:103900008DE00E9451078BE00E94510780913F0299
:103910008F5F80933F02CFBF83CD809161030E9470
:103920005107809162030E94510780916103082E24
:10393000000C990BFC01E453F24FE491F0E0EE0F20
:10394000FF1FE854F24F2591349130936703209381
:103950006603FC01E052F24FE491E0936E03809124
:103960006203082E000C990BFC01E453F24FE49122
:10397000F0E0EE0FFF1FE854F24FA591B491B09321
:103980006903A0936803FC01E052F24FE491E093D5
:103990006F038C91E095E823EC9342CD809158031E
:1039A00090915903892B31F080917B0390917C0396
:1039B0000E945014E0916C03F0916D03908180910E
:1039C00071038095892380836BCD8FE9A2CD8036EA
:1039D000910569F48091430390914403409739F431
:1039E00080915F03813029F08FEA80937A03C2E0EF
:1039F00093CD80E1FACFE0916C03F0916D0380816B
:103A000090917103892B8083CFCD0E94230962306E
:103A100071058105910508F0E6CD0E94DE1568EB81
:103A200079E08DE393E00E94160E0E94531468EE35
:103A300073E080E090E00E94F108209709F4CCCD7B
:103A40000E94DD07882309F4C7CD0E940000C4CD81
:103A50006093460270934702809348029093490214
:103A6000D2CD8EE291E090933E0380933D0380910E
:103A70005C0390915D03009711F00C942A1E089549
:103A8000FC0188279927E89421912032E9F3293015
:103A900010F02E30C8F32B3241F02D3239F46894F7
:103AA00004C00E945E1D820F911D219120532A3077
:103AB000C0F31EF4909581959F4F08957AE0979FEB
:103AC000902D879F802D910D11240895A1E21A2E2B
:103AD000AA1BBB1BFD010DC0AA1FBB1FEE1FFF1FB2
:103AE000A217B307E407F50720F0A21BB30BE40B02
:103AF000F50B661F771F881F991F1A9469F7609549
:103B00007095809590959B01AC01BD01CF01089502
:103B1000EE0FFF1F0590F491E02D09940F931F9372
:103B2000CF93DF938230910510F482E090E0E09132
:103B30007F03F091800330E020E0B0E0A0E0309718
:103B400099F42115310509F44AC0281B390B24309A
:103B50003105D8F58A819B816115710589F1FB01D9
:103B600093838283FE0111C04081518102811381C0
:103B700048175907E0F04817590799F4109761F072
:103B800012960C93129713961C933296CF01DF91E5
:103B9000CF911F910F91089500937F03109380039D
:103BA000F4CF2115310551F04217530738F0A90120
:103BB000DB019A01BD01DF01F801C1CFEF01F9CFAF
:103BC0009093800380937F03CDCFFE01E20FF31F1C
:103BD000819391932250310939832883D7CF209143
:103BE0007D0330917E03232B41F42091020130911B
:103BF000030130937E0320937D03209100013091D7
:103C000001012115310541F42DB73EB74091040162
:103C100050910501241B350BE0917D03F0917E034B
:103C2000E217F307A0F42E1B3F0B2817390778F093
:103C3000AC014E5F5F4F2417350748F04E0F5F1FF2
:103C400050937E0340937D03819391939FCFF0E047
:103C5000E0E09CCFCF93DF930097E9F0FC0132972F
:103C600013821282A0917F03B0918003ED0130E0B6
:103C700020E01097A1F420813181820F931F2091C1
:103C80007D0330917E032817390709F061C0F09356
:103C90007E03E0937D03DF91CF910895EA01CE1773
:103CA000DF07E8F54A815B819E0141155105B1F7B7
:103CB000E901FB83EA8349915991C40FD51FEC17A1
:103CC000FD0761F4808191810296840F951FE901BF
:103CD00099838883828193819B838A83F0E0E0E0EB
:103CE00012968D919C9113970097B9F52D913C9167
:103CF0001197CD010296820F931F20917D03309181
:103D00007E032817390739F6309751F51092800352
:103D100010927F03B0937E03A0937D03BCCFD38327
:103D2000C28340815181840F951FC817D90761F460
:103D30004E5F5F4F88819981480F591F518340839F
:103D40008A819B81938382832115310509F0B0CF4D
:103D5000F0938003E0937F039ECFFD01DC01C0CF91
:103D600013821282D7CF81E090E0F8940C94BF1EAA
:103D7000DC0101C06D9341505040E0F7089516E01A
:103D8000CEEFD6E004C0FE010E94881D2196CF3FF1
:083D9000D107C9F7F894FFCF39
:103D98000000810380000000000013087107A007DD
:103DA8006008D107AF07C30700000000C50F980FD0
:103DB800DB157007910F7E0F6F0F000000006A0B74
:103DC8007107DB15DA15821270070F0EE70D030E67
:103DD800F70D5C0E700730098415F2113B12300D97
:103DE800130D9B0C3C0C564D4450565F317C315F93
:103DF800564D4450560A00564D4450525F000D0A25
:103E080000564D4450455F003A323A007C005F56F8
:063E18004D44504500007E
:00000001FF
