:100000000C9404070C942C070C942C070C942C07CC
:100010000C942C070C942C070C942C070C942C0794
:100020000C942C070C942C070C94A6180C945019C3
:100030000C945F180C942C070C942C070C942C0730
:100040000C9415180C942C070C94E3170C94BD1702
:100050000C942C070C942C070C942C070C942C0754
:100060000C94E6190C942C07000103070F1F3F7F27
:100070000080C0E0F0F8FCFE00000000003E5B4F96
:100080005B3E3E6B4F6B3E1C3E7C3E1C183C7E3CF8
:10009000181C577D571C1C5E7F5E1C00183C180006
:1000A000FFE7C3E7FF0018241800FFE7DBE7FF3096
:1000B000483A060E2629792926407F050507407F04
:1000C00005253F5A3CE73C5A7F3E1C1C08081C1C77
:1000D0003E7F14227F22145F5F005F5F06097F016D
:1000E0007F006689956A606060606094A2FFA29458
:1000F00008047E040810207E201008082A1C080826
:100100001C2A08081E101010100C1E0C1E0C303873
:100110003E3830060E3E0E06000000000000005F74
:1001200000000007000700147F147F14242A7F2A90
:100130001223130864623649562050000807030052
:10014000001C2241000041221C002A1C7F1C2A089E
:10015000083E080800807030000808080808000001
:1001600060600020100804023E5149453E00427F75
:10017000400072494949462141494D331814127FC4
:100180001027454545393C4A494931412111090764
:100190003649494936464949291E000014000000E5
:1001A00040340000000814224114141414140041B7
:1001B00022140802015909063E415D594E7C121174
:1001C000127C7F494949363E414141227F414141AC
:1001D0003E7F494949417F090909013E4141517327
:1001E0007F0808087F00417F41002040413F017F98
:1001F000081422417F404040407F021C027F7F0460
:1002000008107F3E4141413E7F090909063E4151A8
:10021000215E7F09192946264949493203017F0198
:10022000033F4040403F1F2040201F3F4038403F99
:10023000631408146303047804036159494D4300AF
:100240007F4141410204081020004141417F0402E6
:10025000010204404040404000030708002054547D
:1002600078407F284444383844444428384444285B
:100270007F385454541800087E090218A4A49C78AE
:100280007F0804047800447D40002040403D007F0A
:100290001028440000417F40007C047804787C08EA
:1002A0000404783844444438FC18242418182424BE
:1002B00018FC7C08040408485454542404043F44A3
:1002C000243C4040207C1C2040201C3C4030403CD2
:1002D00044281028444C9090907C4464544C440032
:1002E0000836410000007700000041360800020196
:1002F0000204023C2623263C1EA1A161123A404082
:10030000207A3854545559215555794122545478FE
:1003100042215554784020545579400C1E52721297
:100320003955555559395454545939555454580020
:1003300000457C410002457D420001457C407D1224
:1003400011127DF0282528F07C5455450020545486
:100350007C547C0A097F4932494949323A44444431
:100360003A324A4848303A4141217A3A424020786C
:10037000009DA0A07D3D4242423D3D4040403D3C6D
:1003800024FF2424487E4943662B2FFC2F2BFF0992
:1003900029F620C0887E0903205454794100004486
:1003A0007D413048484A32384040227A007A0A0A71
:1003B000727D0D19317D2629292F282629292926E4
:1003C00030484D4020380808080808080808382F29
:1003D00010C8ACBA2F102834FA00007B00000814B3
:1003E0002A142222142A14085500550055AA55AA89
:1003F00055AAFF55FF55FF000000FF00101010FF29
:1004000000141414FF001010FF00FF1010F010F083
:10041000141414FC001414F700FF0000FF00FF1474
:1004200014F404FC141417101F10101F101F1414C0
:10043000141F00101010F0000000001F101010100A
:100440001F10101010F010000000FF1010101010FE
:1004500010101010FF10000000FF140000FF00FF3C
:1004600000001F10170000FC04F4141417101714D8
:1004700014F404F40000FF00F714141414141414FA
:10048000F700F7141414171410101F101F1414146D
:10049000F4141010F010F000001F101F0000001FD7
:1004A00014000000FC140000F010F01010FF10FF0A
:1004B000141414FF141010101F00000000F010FF9F
:1004C000FFFFFFFFF0F0F0F0F0FFFFFF0000000083
:1004D00000FFFF0F0F0F0F0F3844443844FC4A4A07
:1004E0004A347E02020606027E027E0263554941BC
:1004F000633844443C04407E201E2006027E0202F3
:1005000099A5E7A5991C2A492A1C4C7201724C3006
:100510004A4D4D303048784830BC625A463D3E49DD
:100520004949007E0101017E2A2A2A2A2A44445F81
:10053000444440514A444040444A51400000FF0175
:1005400003E080FF000008086B6B08361236243683
:10055000060F090F060000181800000010100030E8
:1005600040FF0101001F01011E00191D1712003C70
:100570003C3C3C000000000000000000230026007E
:100580002900000000080002010000030407000029
:1005900000000000000000000000240027002A00E6
:1005A000DB40A4A62EAF2000A1C8D300408DAED55D
:1005B00080A80102040810204080010204081020D5
:1005C00001020408102000000000250028002B0074
:1005D00004040404040404040202020202020303E9
:1005E00003030303F1FFFFFFFFFFFFFFFFFFFFFF19
:1005F000FFFFFFFFF007FFFFFFFFFFFFFFFEFFFF13
:10060000FFFFFFFFE000FFFFFFFFFFFFFF00FFFF17
:100610009FFFFFE7E0003FFFFFFFFFFFF801FF0044
:100620001FFFFFE3E0000FFF8000FFFFF801FC0069
:100630000FFFFFE1F00003FFC000003FF803FC00E4
:100640000FFFFFC0F80003FFC000000018020C00FD
:100650000FFFFF00180003C7E000000000020000C9
:100660000FFFFE00180000E0600000000002000024
:1006700003FFC0000C000038300000000002000042
:10068000000000000C000C1C1C0000000002000018
:10069000000000000E000F000E000000000200002D
:1006A0000000000006000F80070000000002180094
:1006B00000000001070007C001C0000000030600A1
:1006C00000000001070007E00078001FF00101E0D2
:1006D00000000003030003E000FC07FFF801803C7A
:1006E0000000003F038001FFFFF600FFF800C00795
:1006F00080000FFF038000FFFE00003FF800400075
:10070000FFFFF80F03E00003F001001FFC00600092
:100710000000000703F00000F001800FFE00300031
:100720000000000307FC00001801C007FE001F00C6
:100730000000000E07FF00000000E003FFF80F00BC
:1007400000000018067FC0000000F801F80C070048
:10075000FE000070040FE00000003C00E00E070007
:10076000FFC000C00C1FF80000003E0070037F00B7
:10077000E3F80380083FFE0000001F003001FF0087
:10078000C07C0600087FFF8000001F801801FF006A
:10079000803FCC0010FFFFE0000007800000FE005B
:1007A00080307F0011FFFFF8000003E000007E00B2
:1007B00080106300FBFFFFFF000001E000003E002F
:1007C0008310610EFFFFFFFF800000F000003C017E
:1007D0008710613EFFFFFFFC000000F000003C01BD
:1007E0000F10416FFFFFFE00000000F800003C0109
:1007F0000F10410FFFFFC007800000F800003C030E
:100800001F10410FF800000F800000F800007C026C
:100810001E306107FFC0001F000001FFFC007802CE
:100820001E202307FFE0001F000003FFFE00F80268
:100830001C222207FF80001C000007800001F80234
:100840001822C203FF80001C000007000003F8020A
:100850000022C603FF80001800003C00000FF003D8
:1008600000428403FF00001800007800001FF0031E
:1008700080C28403FF0000180001E000003FC000B8
:10088000C1020C01FE0000100007C000007F87F8C5
:100890007E061801FE000010003F000000FC080C5E
:1008A00038041801FC00001000FC000001E00806FC
:1008B0003C0C1807F800001003F8000003E00703E1
:1008C0001F9C1C1FF80000100FC00000078E0001C5
:1008D0008FFC0C00F00000001F8000000FFFF000F4
:1008E000C3FC0C00F00000003F0000001FFFFFC031
:1008F00061FC0400E00000003E000003FF00000077
:10090000307C0C00800000007C00001C0000000017
:100910001C1FF8008000000078000030000000007C
:10092000060FE00080000000F00000000000000062
:100930000300FF8080000000E000000000000000D5
:1009400001800FFC80000000C000000000000000DB
:1009500000E0007F80000000C000000000000000F8
:100960000030000380000000400000000000000094
:1009700000100000800000000000000000000000E7
:1009800000200000C0000000000FFC00000000007C
:1009900000600000E000000000FFFFF80000000021
:1009A00000E00000F80000E107FFFFFFE0000000AA
:1009B00003F80000FC007FFF3FFFFFFFFFC00000C7
:1009C0000FFF0000FF03FFFFFFFFFFFFFFFF80009F
:1009D0001FFFE000FFFFFFFFFFFFFFFFFFFFF8002B
:1009E0003FFFFFE05353443133303620616C6C6F6E
:1009F000636174696F6E206661696C6564000000F4
:100A000000000000000000000000000000000000E6
:100A100000000000000000000000000000000000D6
:100A200000000000000000000000000000000000C6
:100A300000000000000000000000000000000000B6
:100A400000000000000000000000000000000000A6
:100A50000000000000000000000000000000000096
:100A60000000000000000000000000000000000086
:100A70000000000000000000000000000000000076
:100A80000000000000000000000000000000000066
:100A90000000000000000000000000000000000056
:100AA0000000000000000000000000000000000046
:100AB0000000000000000000000000000000000036
:100AC0000000000000000000000000000000000026
:100AD0000000000000000000000000000000000016
:100AE0000000000000000000000000000000000006
:100AF00000000000000000000000000000000000F6
:100B000000000000000000000000000000000000E5
:100B100000000000000000000000000000000000D5
:100B200000000000000FFFFFF800000000000000C0
:100B3000000000000030000006000000000000007F
:100B40000FFFFF0000400000020000000000000056
:100B500010000080004000000100000000000000C4
:100B600020000040004000000100000000000000E4
:100B700020000040004000000100000000000000D4
:100B800020000040004000000100000000000000C4
:100B90002000004000403C00010000000000000078
:100BA0002000784000407A000100000000000000B2
:100BB0002000FC4000407E0001000000000000001A
:100BC0002001FA4000407E0001000000000000000B
:100BD0002001FE4000407E000100000000000000F7
:100BE0002001FE400040380001000000000000002D
:100BF0002001FE4000400000010000000000000055
:100C00002000FC4000400000010000000000000047
:100C100020007840004000000100000000000000BB
:100C20002000004000400000010000000000000023
:100C300020000040006000000200000000000000F2
:100C400018000180001000000C00000000000000EF
:100C500007FFFE00000FFFFFF00000000000000093
:100C60000000000000000000000000000000000084
:100C7000000000000000000000003FF8000000003D
:100C800000000000000000000000E00E0000000076
:100C900000000000000000000001801F00000000B4
:100CA00000000000000000000003801F00000000A2
:100CB0000000000000000000000E001FC000000047
:100CC00000000000000000000038001FC00000000D
:100CD00000F800000000000001E0001FE00000003C
:100CE00000040000000000000380007FE00000001E
:100CF0000007FF00000000001E80005FE000000011
:100D0000000401FFFFFFFFFFE08001DFE0000000C3
:100D1000000600100000400000800F0FE0000000FF
:100D200000020030000040000080383FE00000007A
:100D300000020020000040000080C1C00000000050
:100D40000003FC20000040000081070000000000BC
:100D5000000203FFF0004000008E180000000000B9
:100D6000000C00201FFFFFFFFFF8700000000000D4
:100D7000003C0020000040000081E0000000000076
:100D800000020030000040000081800000000000F0
:100D90000002003000004000008E00000000000053
:100DA0000001FF100000400001F8000000000000FA
:100DB000000001FE000040001F00000000000000D5
:100DC00000000003FF004001E00000000000000000
:100DD000000000000080400F000000000000000044
:100DE00000000000007FFFF0000000000000000095
:100DF00000000000000000000000000000002200D1
:100E0000FF210000051B062111241FBECFEFD8E0F3
:100E1000DEBFCDBF11E0A0E0B1E0ECE7F5E402C039
:100E200005900D92AA3BB107D9F724E0AAEBB1E0F7
:100E300001C01D92A937B207E1F717E0C3E0D7E080
:100E400004C02197FE010E947A21C230D107C9F760
:100E50000E94A71B0C94B1220C940000EAE3F3E07B
:100E6000A089B18982E08C93A485B5851C92A68562
:100E7000B7858FEC8C93108EA489B58986E08C930E
:100E8000A289B3898C9180618C93A289B3898C915A
:100E900088608C93A289B3898C9180688C93028836
:100EA000F389E02D80818F7D808308950895AF922E
:100EB000BF92CF92DF92EF92FF920F931F93CF9347
:100EC000DF936C017B018B01040F151FEB015E01A9
:100ED000AE18BF08C017D10759F06991D601ED913E
:100EE000FC910190F081E02DC6010995892B79F7DD
:100EF000C501DF91CF911F910F91FF90EF90DF908F
:100F0000CF90BF90AF90089508950895FC01538D40
:100F1000448D252F30E0842F90E0821B930B5417D3
:100F200010F0CF96089501970895FC01918D828D60
:100F3000981761F0A28DAE0FBF2FB11D5D968C91F9
:100F4000928D9F5F9F73928F90E008958FEF9FEF38
:100F50000895FC01918D828D981731F0828DE80FF4
:100F6000F11D858D90E008958FEF9FEF0895FC01AE
:100F7000918D228D892F90E0805C9F4F821B91097B
:100F80008F73992708958AE393E00E94B70721E0C1
:100F9000892B09F420E0822F089580E090E0892BCE
:100FA00029F00E94C30781110C9400000895FC01F0
:100FB000A48DA80FB92FB11DA35ABF4F2C91848DBA
:100FC00090E001968F739927848FA689B7892C9317
:100FD000A089B1898C91837080648C93938D848D6A
:100FE000981306C00288F389E02D80818F7D80836D
:100FF0000895EF92FF920F931F93CF93DF93EC012D
:1010000081E0888F9B8D8C8D98131AC0E889F989AF
:10101000808185FF15C09FB7F894EE89FF896083B2
:10102000E889F98980818370806480839FBF81E033
:1010300090E0DF91CF911F910F91FF90EF90089575
:10104000F62E0B8D10E00F5F1F4F0F731127E02E50
:101050008C8D8E110CC00FB607FCFACFE889F98988
:10106000808185FFF5CFCE010E94D707F1CFEB8DB0
:10107000EC0FFD2FF11DE35AFF4FF0829FB7F8945C
:101080000B8FEA89FB8980818062CFCFCF93DF937A
:10109000EC01888D8823B9F0AA89BB89E889F98990
:1010A0008C9185FD03C0808186FD0DC00FB607FCC5
:1010B000F7CF8C9185FFF2CF808185FFEDCFCE01F8
:1010C0000E94D707E9CFDF91CF910895833081F057
:1010D00028F4813099F08230A9F008958730A9F082
:1010E0008830C9F08430B1F4809180008F7D03C0D6
:1010F000809180008F7780938000089584B58F77EA
:1011000084BD089584B58F7DFBCF8091B0008F772B
:101110008093B00008958091B0008F7DF9CFCF9378
:10112000DF93282F30E0F901EE57FA4F8491F9014F
:10113000EE54FA4FD491F901E053FA4FC491CC2305
:10114000A1F081110E946608EC2FF0E0EE0FFF1F66
:10115000E858FA4FA591B491EC91ED2381E090E02D
:1011600009F480E0DF91CF91089580E090E0FACF1C
:101170001F93CF93DF93282F30E0F901EE57FA4FFA
:101180008491F901EE54FA4FD491F901E053FA4FEA
:10119000C491CC23A9F0162F81110E946608EC2F70
:1011A000F0E0EE0FFF1FEA53FA4FA591B4918FB70D
:1011B000F894EC91111108C0D095DE23DC938FBF19
:1011C000DF91CF911F910895DE2BF8CFCF93DF935E
:1011D00090E0FC01EE54FA4F249180539A4FFC01A9
:1011E00084918823C9F090E0880F991FFC01EA568A
:1011F000FA4FA591B491FC01EA53FA4FC591D491ED
:1012000061110DC09FB7F8948C91209582238C9327
:101210008881282328839FBFDF91CF910895623072
:1012200051F49FB7F8943C91822F809583238C933F
:10123000E8812E2BEFCF8FB7F894EC912E2B2C93C7
:101240008FBFEACF3FB7F8948091090390910A03CA
:10125000A0910B03B0910C0326B5A89B05C02F3FAE
:1012600019F00196A11DB11D3FBFBA2FA92F982FCC
:101270008827BC01CD01620F711D811D911D42E0C7
:10128000660F771F881F991F4A95D1F708958F928F
:101290009F92AF92BF92CF92DF92EF92FF924B015B
:1012A0005C010E9422096B017C010E9422096C19D9
:1012B0007D098E099F09683E734081059105A8F359
:1012C00021E0821A9108A108B10888EEC80E83E0D7
:1012D000D81EE11CF11C81149104A104B10429F76A
:1012E000FF90EF90DF90CF90BF90AF909F908F9046
:1012F00008952FB7F89460910503709106038091CB
:101300000703909108032FBF08955091180340914F
:101310001703852F90E0242F30E0541718F0821B1C
:10132000930B0895805B9F4FFACF80911803E09153
:1013300017038E1751F0EF5FE03508F0E0E0F0E0C2
:10134000EC54FD4F808190E008958FEF9FEF08955A
:101350008091180390911703891769F09F5F90356A
:1013600008F090E0E92FF0E0EC54FD4F808190937D
:10137000170390E008958FEF9FEF08959091150364
:101380009F5F943408F090E0209114032917E1F353
:101390002FB7F89430911603332349F0E92FF0E08A
:1013A000E659FD4F8083909315032FBF089591E078
:1013B000909316038093AF021092AE0282E086BB38
:1013C00080916F00826080936F00809180008F7B9E
:1013D0008068809380008091840090918500409681
:1013E0009093890080938800E0CF0895FC0163709A
:1013F000668B8481958126813781613039F0633035
:1014000029F0918780873387228708953187208745
:101410009387828708952F923F924F925F926F92A7
:101420007F928F929F92AF92BF92CF92DF92EF9274
:10143000FF920F931F93CF93DF93CDB7DEB76A97D9
:101440000FB6F894DEBF0FBECDBF9A8F898F7A8317
:1014500069834A01D22E18870F833701BC2CDC0127
:1014600059962D913C915A972115310509F015C1D6
:1014700018968D919C911997681779070CF0D7C130
:101480001A968D919C91481759070CF0D0C14C2C9D
:10149000512CB6E0CB9E600D711D11247C876B87AB
:1014A000161617060CF0C3C1EA2DF0E0FA87E9879B
:1014B00093E0EE0FFF1F9A95E1F7F88BEF87CF01CE
:1014C000840F951F181619060CF0B1C1A98DBA8D9D
:1014D00058968C91811104C0BFEABD1508F4D394CD
:1014E000A98DBA8DED91FC9111970284F385E02DC1
:1014F000CD010995B5E0DB9EC0011124E981FA8197
:10150000FC83EB83312C212C9C0128583F4F388FD2
:101510002F8B4A2D50E05E8B4D8BEF89F88DE20DBD
:10152000F31D44919E828D82D12CC12C69817A81D8
:10153000620D731D7A8B698B842F90E09C8B8B8B53
:10154000E98DFA8DA081B18140FF82C0F1E0BF1228
:101550006FC0AF126DC01C96ED91FC912F81388544
:10156000A4014C0D5D1D69897A89898D9A8D099533
:10157000EB89FC89F595E7954E2F5FEFC51AD50AE3
:101580006D817E818D899E89680F791F7E836D8331
:1015900098E0C916D10481F6AFEF2A1A3A0AEB8116
:1015A000FC81E40DF51DFC83EB83F5E02F1631047F
:1015B00009F0B3CF2F81388526153705B9F0A98DED
:1015C000BA8DED91FC91B1E0BB1257C0AB1255C082
:1015D00069817A816B5F7F4F0088F189E02D8301FB
:1015E00028E030E0A401898D9A8D0995A98DBA8DE6
:1015F000ED91FC9111970688F789E02DCD016A964F
:101600000FB6F894DEBF0FBECDBFDF91CF911F9113
:101610000F91FF90EF90DF90CF90BF90AF909F9091
:101620008F907F906F905F904F903F902F90099494
:101630001E96ED91FC91EF80F88409851A85920140
:101640004D815E816B817C81898D9A8D099590CFCA
:101650002F8138852615370509F48ACF31E0B3127A
:1016600007C0A31205C01C96ED91FC91930178CFA1
:101670001E96ED91FC917301E0CF6B857C8564191A
:1016800075090684F785E02D73010F85188992018D
:10169000A401898D9A8D0995A9CFF9013496949169
:1016A000329745915491D91AB7E0DB9E400D511DF8
:1016B0001124F901259134913C8B2B8BFA01259053
:1016C0003490FA013296749031963491398B329677
:1016D00064903196449041E04C1518F04A1508F09A
:1016E0007FC0662D062C000C770B7C836B83842DCA
:1016F000042C000C990B9E838D83A98DBA8DED91DE
:10170000FC9111970284F385E02DCD010995512CB0
:10171000D12CC12CEA2DF0E0FA87E9872B2D30E09F
:101720003C872B87A401440D511D47FC5A95588FC7
:101730004F8B69817A81660D711D67FC7A957E8772
:101740006D877989C71608F051CF2C2D30E04D8177
:101750005E81420F531FA985BA854A9FC0014B9FE6
:10176000900D5A9F900D1124FC01E80DF91DF88B86
:10177000EF87852D612C4F89588D420F531F5E8B4B
:101780004D8B671408F050C044244394480E877072
:1017900041F4C1010196EB89FC89E20DF31DD4905F
:1017A0001C01D7FE19C0A98DBA8DED91FC91662D53
:1017B00070E0B1E0BB1219C0AB1217C02D853E8599
:1017C000620F731F0484F585E02D2F8138854D89C4
:1017D0005E89898D9A8D0995DD0C6394842DD1CF16
:1017E0001E821D821C821B8288CF4B815C81640F0C
:1017F000751FAB85BC856A9FC0016B9F900D7A9F5A
:10180000900D112469817A81680F791F0684F7850C
:10181000E02DEF80F88409851A859D014F85588950
:10182000898D9A8D0995D8CF570CC3948ACF6A9623
:101830000FB6F894DEBF0FBECDBFDF91CF911F91E1
:101840000F91FF90EF90DF90CF90BF90AF909F905F
:101850008F907F906F905F904F903F902F90089562
:101860008F929F92AF92CF92EF92FF920F931F931E
:10187000CF93DF93EC01262F898D9A8D009709F085
:1018800051C06A30D1F41D861C868D8948E0849F42
:10189000900111248E859F85820F931F9F878E87CD
:1018A00081E090E0DF91CF911F910F91FF90EF9039
:1018B000CF90AF909F908F9008956D3089F3CC8832
:1018C000AD888F898823C1F08C859D8536E0C39EC5
:1018D000800D911D1124488559854817590764F4D6
:1018E0004E855F851D861C8638E0A39EC0011124AD
:1018F000840F951F9F878E87EA88FB88088919893E
:101900004E855F856C857D85CE010E940B0A2C89F2
:101910008C859D8546E0249F800D911D11249D8717
:101920008C87BECF6A3069F41D861C86FC01389610
:10193000E4912D898E859F85E29F800D911D112454
:10194000ADCF6D3009F4ACCFFC0134963491631700
:1019500008F4A6CF3296E491E61708F4A1CFFC0173
:10196000329685909490462F431B342F47E0349F46
:10197000800C911C1124F401329634913196E4913B
:101980003323A9F1EE2399F1CC88F4013596E49143
:10199000AD884F89442301F10E2E000CFF0BE30F9D
:1019A000F11DCE9EA001CF9E500D11246C857D852A
:1019B000460F571F68857985641775076CF44E8547
:1019C0005F851D861C86FC013896E491AE9E400D15
:1019D000511D11245F874E87EA88FB880889198981
:1019E0004E855F856C857D85CE010E940B0AF401D2
:1019F0003496E4912C898C859D85E29F800D911D04
:101A000011248DCF6F927F928F929F92AF92BF924F
:101A1000CF92DF92EF92FF920F931F93CF93DF93BA
:101A2000EC016B015A0139014801E881F981028416
:101A3000F385E02D0995E881F9810288F389E02D8D
:101A400087019301A501B601CE010995A501480DB5
:101A5000591D41505109E881F9810288F389E02D2F
:101A60009301B601CE010995E881F9810088F189D9
:101A7000E02D9401A501B601CE010995C60CD71C35
:101A8000B60161507109E881F9810088F189E02D82
:101A90009401A501CE010995E881F9810688F789AD
:101AA000E02DCE01DF91CF911F910F91FF90EF902C
:101AB000DF90CF90BF90AF909F908F907F906F906E
:101AC00009946F927F928F929F92AF92BF92CF9222
:101AD000DF92EF92FF920F931F93CF93DF935C01FE
:101AE000EB016A01490138018701DC01ED91FC91AC
:101AF0006217730719F5641675062CF0962D872D5D
:101B00003A01C92ED82E9601261937092F5F3F4F6B
:101B1000048CF58DE02DA301BE01C5010995DF916F
:101B2000CF911F910F91FF90EF90DF90CF90BF90DA
:101B3000AF909F908F907F906F90089546155705B6
:101B400091F42617370724F0892D4B01C22FD82F87
:101B50009E01281939092F5F3F4F068CF78DE02D24
:101B6000A601B401DACF0284F385E02D0995D501F1
:101B7000ED91FC910488F589E02D83019401A60183
:101B8000BE01C5010995D501ED91FC910688F78943
:101B9000E02DC501DF91CF911F910F91FF90EF9044
:101BA000DF90CF90BF90AF909F908F907F906F907D
:101BB0000994EF92FF920F931F93DC011A960D91F7
:101BC0001C911B9718962D913C911997ED91FC91C2
:101BD00000A0F1A1E02D7B0150E040E070E060E06A
:101BE00009951F910F91FF90EF9008954F925F928A
:101BF0006F927F928F929F92AF92BF92CF92DF921D
:101C0000EF92FF920F931F93CF93DF936C012B0101
:101C10005A0139014801DC01ED91FC910284F38500
:101C2000E02D0995E201640C751CD601ED91FC9143
:101C3000C615D7055CF40088F189E02D8701940171
:101C4000A501BE01C60109952196EFCF0688F78947
:101C5000E02DC601DF91CF911F910F91FF90EF9082
:101C6000DF90CF90BF90AF909F908F907F906F90BC
:101C70005F904F9009948F929F92AF92BF92CF92B4
:101C8000DF92EF92FF920F931F93CF93DF93EC01BC
:101C90005B014A016901E881F9810284F385E02D45
:101CA000099595012C0D3D1D21503109E881F981DF
:101CB0000488F589E02D78018401A401B501CE01E5
:101CC0000995E881F9810688F789E02DCE01DF9139
:101CD000CF911F910F91FF90EF90DF90CF90BF9029
:101CE000AF909F908F9009948F929F92AF92BF92E6
:101CF000CF92DF92EF92FF920F931F93CF93DF93D8
:101D0000EC015B014A0169017801E881F9810284F3
:101D1000F385E02D0995C80CD91C860101501109E5
:101D2000E881F9810488F589E02D9501A401B501C8
:101D3000CE010995E881F9810688F789E02DCE0169
:101D4000DF91CF911F910F91FF90EF90DF90CF9097
:101D5000BF90AF909F908F900994EF92FF920F9356
:101D60001F93DC01ED91FC9100A0F1A1E02D0995FC
:101D70001F910F91FF90EF9008950F931F93DC0137
:101D8000ED91FC91068CF78DE02D09951F910F9137
:101D900008950F931F93DC01ED91FC91048CF58D58
:101DA000E02D09951F910F910895DC01ED91FC91B3
:101DB0000084F185E02D09945F926F927F928F925B
:101DC0009F92AF92BF92CF92DF92EF92FF920F93CA
:101DD0001F93CF93DF935C014B016A013A0187E0C7
:101DE000680E711C93E0759467949A95E1F7F12C55
:101DF000E12C512C10E000E0D0E0C0E0CE01877073
:101E00009927550C892B59F4FE0183E0F595E79548
:101E10008A95E1F7EE0DFF1DE80DF91D549057FE70
:101E200007C021E030E0A801BE01C5010E94D50E27
:101E30002196CC16DD0611F70F5F1F4FE60CF71C3D
:101E400000341105C9F6DF91CF911F910F91FF90DA
:101E5000EF90DF90CF90BF90AF909F908F907F904A
:101E60006F905F9008952F923F924F925F926F9282
:101E70007F928F929F92AF92BF92CF92DF92EF921A
:101E8000FF920F931F93CF93DF9300D000D000D029
:101E9000CDB7DEB73C016A013E832D83FC82EB8225
:101EA0005801A41AB50AB7FE03C0B194A194B108B1
:101EB0008D809E80861A970A97FE03C09194819424
:101EC00091088A149B045CF0902F812F0D811E8154
:101ED0009D838E839C2D8D2D6B01692F782F0C1582
:101EE0001D055CF09D818E817E836D83692F782F27
:101EF000902F812F8601C92ED82E1601201A310A63
:101F00002B012D813E81421A530A57FE03C0519482
:101F100041945108710137FE03C03FEFE31AF30A01
:101F2000F594E7948D819E81861797075CF5A1E073
:101F3000B0E0BA83A983C016D1064CF1D301ED916C
:101F4000FC910484F585E02D2B813C81A8016D81F5
:101F50007E818A149B041CF04D815E81B801C3010F
:101F60000995E418F508F7FE0AC02D813E818981A4
:101F70009A81280F391F3E832D83E20CF31C0F5FDB
:101F80001F4FD9CF2FEF3FEF3A832983D4CF269627
:101F90000FB6F894DEBF0FBECDBFDF91CF911F917A
:101FA0000F91FF90EF90DF90CF90BF90AF909F90F8
:101FB0008F907F906F905F904F903F902F900895FB
:101FC00020912002260F3327331F21323105ECF4F4
:101FD00020914402FC0190E080E0243069F082E02E
:101FE0000895A09120022191AC0140505E4FA40FB2
:101FF000B52FB11D2C930196861798F3809120027E
:10200000680F6093200280E0089581E008951092A7
:10201000440281E0809346021092450261E082E131
:102020000E94B80861E083E10E94B808E9EBF0E0A3
:1020300080818E7F808380818D7F808388E4809300
:10204000B80085E48093BC000895CF93DF9391E0BE
:102050009093FF018823B9F0C091B800D091BA00E5
:102060008091BC008A7B8093BC0060E082E10E948A
:10207000B80860E083E10E94B8080E940710D0937E
:10208000BA00C093B800DF91CF910895E091130397
:1020900080911203E81730F4F0E0E652FE4F8081A1
:1020A00090E008958FEF9FEF089590911303809132
:1020B00012032FEF3FEF981748F4E92FF0E0E652B4
:1020C000FE4F208130E09F5F90931303C901089574
:1020D0008091120390911303891B990B0895CF925D
:1020E000DF92EF92FF920F931F93CF93DF937C01C8
:1020F000CB018A0120913903222389F0EB016B0186
:10210000C40ED51ECC15DD0569F06991D701ED919E
:10211000FC910190F081E02DC7010995F3CF642F68
:102120000E94E00FC801DF91CF911F910F91FF90A6
:10213000EF90DF90CF900895CF93DF931F92CDB7AC
:10214000DEB76983209139032223F9F02091360309
:10215000203258F021E030E0FC013383228390E00C
:1021600080E00F90DF91CF91089580913703E82FA1
:10217000F0E0E654FE4F998190838F5F80933703A0
:102180008093360381E090E0ECCF61E0CE010196D0
:102190000E94E00FF7CFCF92DF92EF92FF920F9362
:1021A0001F93CF93DF93D091360381E0D13208F0B3
:1021B0009CC0C09138030E9422096B017C01809170
:1021C000440281116CC082E08093440281E08093DC
:1021D00046028FEF8093430210926802D093670209
:1021E000AAEBB1E0E7E4F2E080E0D8138DC01092F2
:1021F000690280916902CC0FC82BC093690280915B
:102200004502813009F084C0109245020E942209E3
:102210006B017C01809169028093BB008091FB017E
:102220009091FC01A091FD01B091FE01892B8A2BB8
:102230008B2BA1F00E9422090091FB011091FC015F
:102240002091FD013091FE016C197D098E099F09D5
:10225000061717072807390708F442C08091BC0009
:1022600083FDD8CF85EC8093BC000E9422096B01CE
:102270007C0180914402823009F44CC08091430279
:102280008F3F09F469C080914302803209F466C02F
:1022900080914302803309F463C084E026C08091BA
:1022A000FB019091FC01A091FD01B091FE01892BF1
:1022B0008A2B8B2B09F483CF0E9422090091FB010A
:1022C0001091FC012091FD013091FE016C197D09F6
:1022D0008E099F09061717072807390708F06FCFDF
:1022E0008091FA010E94251085E010923703109228
:1022F000360310923903DF91CF911F910F91FF9018
:10230000EF90DF90CF9008959D9191938F5F6DCF67
:1023100085EEA9CF8091FB019091FC01A091FD0178
:10232000B091FE01892B8A2B8B2B09F4A2CF0E943E
:1023300022090091FB011091FC012091FD013091D7
:10234000FE016C197D098E099F09061717072807DA
:10235000390708F08ECFC4CF80E0C7CF82E0C5CF69
:1023600083E0C3CFEF92FF920F931F93CF93DF933E
:10237000EC01EC80FD806E157F050CF070C057FFFE
:1023800004C0240F351F50E040E08E819F81FA0188
:10239000E20FF31F8E179F071CF49C01241B350BC3
:1023A000121613060CF05BC0922F842F869586952B
:1023B00086958E9DD0018F9DB00D11246A0F7B1FD5
:1023C000AF8DB8A1A60FB71F477049F188E0841BF5
:1023D000482F682F70E0FB01E059FF4FE491281768
:1023E00008F063C0621B71092FEF30E002C0359521
:1023F00027956A95E2F7E2230130110539F0B0F133
:102400000230110561F58C91E82702C08C91E82B10
:10241000EC93941720F12C813D81A20FB31FE92F7B
:10242000E41BE83078F00230110521F58E2F9C91E5
:1024300090959C932C813D81A20FB31F88508830CA
:10244000B0F7E770EE2359F0F0E0E859FF4FE49160
:1024500001301105F9F010F10230110519F1DF9189
:10246000CF911F910F91FF90EF900895E0958C917F
:10247000E823CECF81E00115110509F480E08195B4
:102480009E2F8C932C813D81A20FB31F98509830C2
:10249000C0F7D7CF8C91E82BEC93E1CFE0958C91EE
:1024A000E823FACF8C91E827F7CF0130110509F422
:1024B000ADCFE0F20230110509F4A5CFAE0DBF1D7E
:1024C000AECF0F931F93CF93DF9377FF04C0260FF8
:1024D000371F70E060E0DC011496CD91DC91FB01C8
:1024E000E20FF31FCE17DF071CF49E01261B370BEC
:1024F000121613064CF5FA0157FD3796A3E0F59531
:10250000E795AA95E1F7EC9FD001ED9FB00DFC9FF8
:10251000B00D11246A0F7B1FDC015F96ED91FC91D9
:10252000E60FF71F4770552781E090E001C0880F44
:102530004A95EAF7482F0130110559F0A8F02E0FFF
:102540003F1F02301105E1F0DF91CF911F910F91F4
:1025500008952E0F3F1FE217F307B1F38191DF01BA
:102560001197842B8C93F7CF80952E0F3F1FE21786
:10257000F30751F39191DF01119798239C93F7CFC3
:10258000E217F30709F38191DF01119784278C93F8
:10259000F7CF0F931F93FA01DC0156964C91569793
:1025A0004230E9F04330A1F1413061F514964D918C
:1025B0005C91DA01AE1BBF0BFD01E21BF30B77FD53
:1025C0000BC0DC0116964D915C916417750724F4DD
:1025D000AB01BF010E9461121F910F9108951496E3
:1025E0004D915C91DA01A61BB70BBD0161507109D9
:1025F000DC0116964D915C91DA01AE1BBF0BFD011B
:10260000E21BF30B77FDE8CFAF010E94B211E4CFDC
:1026100016964D915C91DA01A61BB70BBD01615076
:102620007109CDCF0F931F93FA01DC0156964C919F
:1026300056974230A9F0433091F1413019F5149684
:102640004D915C91DA01AE1BBF0BFD013197F7FD97
:1026500004C0AB01BF010E94B2111F910F910895F8
:1026600014964D915C91DA01A61BB70BBD01DC01FC
:1026700016964D915C91DA01AE1BBF0BFD013197AF
:10268000621B730BF7FDE9CFDC0116964D915C914F
:10269000E417F50714F7AF010E946112DECF16961A
:1026A0004D915C91DA01A61BB70BBD01621B730B48
:1026B000CECFFC0177FD64C08085918568177907CE
:1026C0000CF05EC057FD5CC08285938548175907A2
:1026D0000CF056C086898230B1F0833029F1813008
:1026E00041F484819581841B950BAB01BC01615041
:1026F00071092130310509F108F443C02230310558
:1027000009F463C0089584819581DC01A61BB70B91
:10271000BD016150710986819781DC01A41BB50B55
:10272000AD0141505109E5CF86819781861B970BFA
:10273000BA01AC0141505109DCCFCA0157FD0796DF
:10274000A3E095958795AA95E1F7A481B5818A9F25
:1027500090018B9F300D9A9F300D1124620F731FD3
:10276000078CF0A1E02DE60FF71F4770552721E0F9
:1027700030E001C0220F4A95EAF78081822B8083E6
:102780000895CA0157FD079633E0959587953A95C8
:10279000E1F7A481B5818A9F90018B9F300D9A9FAC
:1027A000300D1124620F731F078CF0A1E02DE60F8E
:1027B000F71F4770552781E090E001C0880F4A95C8
:1027C000EAF7809590818923DACFCA0157FD0796F1
:1027D00023E0959587952A95E1F7A481B5818A9F95
:1027E00090018B9F300D9A9F300D1124620F731F43
:1027F000078CF0A1E02DE60FF71F4770552721E069
:1028000030E001C0220F4A95EAF780818227B7CFD6
:1028100008958EBD00000DB407FEFDCF8EB508955E
:10282000EF92FF920F931F93CF93DF937C01C62FFC
:102830008091520490915304009709F459C020915B
:10284000560431E030933903209338031092370354
:1028500010923603DC01ED91FC910190F081E02DA6
:1028600060E009958701EE24E394F12CD1E0C1509A
:102870008091520490915304CF3F91F1B0E2EB1656
:10288000F104D8F00E94CB1080915204909153042F
:1028900020915604D09339032093380310923703C4
:1028A00010923603DC01ED91FC910190F081E02D56
:1028B00060E00995EE24E394F12C8091520490910C
:1028C0005304F8016491DC01ED91FC910190F081D9
:1028D000E02D0995BFEFEB1AFB0A0F5F1F4FC7CF23
:1028E000DF91CF911F910F91FF90EF900C94CB103F
:1028F000E0916204F0916304908180916804809576
:10290000892380838701C15008F438C0F80184917D
:102910002091500430915104232B29F00E94091476
:102920000F5F1F4FF0CF28E030E040E8E0915E04F9
:10293000F0915F0490916604582F5423D9F0508190
:10294000952B9083E0916004F09161049081509107
:102950006704952B9083E0916004F09161045081AD
:102960009091670490959523908346952150310965
:10297000E9F6D6CF508190959523E3CFDF91CF91A3
:102980001F910F91FF90EF9008951F93CF93DF93C6
:10299000EC018D8D9E8D009721F1162F29A131E03C
:1029A0003093390320933803109237031092360383
:1029B000DC01ED91FC910190F081E02D60E0099542
:1029C0008D8D9E8DDC01ED91FC910190F081E02DCB
:1029D000612F09958D8D9E8DDF91CF911F910C9464
:1029E000CB10ADA5BEA59C918BA9809589238C9316
:1029F0008B8D9C8D892B31F0862FDF91CF911F918C
:102A00000C94091428E030E080E8A9A5BAA599A99A
:102A1000462F4823C1F04C91942B9C93ABA5BCA5A9
:102A20009C914AA9942B9C93ABA5BCA54C919AA9C7
:102A3000909594239C9386952150310931F7DF912D
:102A4000CF911F9108954C9190959423E6CF8CBD22
:102A50009DBD0895DF92EF92FF920F931F93CF9346
:102A6000DF938091520490915304892B09F498C00C
:102A700020916A0430916B0440916C0450916D0474
:102A800060E074E284EF90E00E9458212051310907
:102A90004109510956954795379527952093B800D8
:102AA00065E08EEF9DE00E94101460913904615042
:102AB00085E394E00E94C51420913B0430913C04CE
:102AC000C901079697FD079633E0959587953A9546
:102AD000E1F72091390430913A04829F8001839F6D
:102AE000100D929F100D1124C0915404D0915504E3
:102AF00080915204909153040C0F1D1F009709F40C
:102B00008FC02091560431E030933903209338036D
:102B10001092370310923603DC01ED91FC91019085
:102B2000F081E02D60E40995EE24E394F12CDD249E
:102B3000D39480915204909153040C171D0709F40B
:102B400046C0B0E2EB16F104D8F00E94CB108091A1
:102B500052049091530420915604D092390320934B
:102B600038031092370310923603DC01ED91FC918B
:102B70000190F081E02D60E40995EE24E394F12CBE
:102B800080915204909153046991DC01ED91FC9184
:102B90000190F081E02D0995BFEFEB1AFB0AC9CF38
:102BA0008091500490915104892B31F080917304ED
:102BB000909174040E942715E0916404F0916504DB
:102BC00090818091690480958923808369CF0E94D8
:102BD000CB108091520490915304892B09F461C069
:102BE00020916E0430916F044091700450917104F3
:102BF00060E074E284EF90E00E9458212051310996
:102C00004109510956954795379527952093B80066
:102C1000DF91CF911F910F91FF90EF90DF9008957A
:102C2000E0916204F0916304808190916804892BA3
:102C300080830C171D0769F289912091500430910F
:102C40005104232B19F00E940914F3CF28E030E03F
:102C500040E8E0915E04F0915F0490916604582F83
:102C60005423D9F05081952B9083E0916004F0912A
:102C70006104908150916704952B9083E0916004EA
:102C8000F091610450819091670490959523908311
:102C9000469521503109E9F6CCCF50819095952386
:102CA000E3CFE0916404F091650480819091690420
:102CB000892B8083ADCF1F93CF93DF93EC01162F29
:102CC0008D8D9E8D892BB1F12DA93EA94FA958ADAF
:102CD00060E074E284EF90E00E94582120513109B5
:102CE0004109510956954795379527952093B80086
:102CF00066EA111167EACE010E94C5148D8D9E8D82
:102D0000892B41F129AD3AAD4BAD5CAD60E074E289
:102D100084EF90E00E945821205131094109510966
:102D200056954795379527952093B800DF91CF9119
:102D30001F9108958B8D9C8D892B21F08EAD9FADB9
:102D40000E942715EFA5F8A990818CA98095892369
:102D50008083CECFEFA5F8A980819CA9892B8083A1
:102D6000E5CF0895809116038111FCCF0895862F39
:102D70000E94BE0981E090E0089590E080E008950F
:102D800020913B0430913C04C901079697FD0796BA
:102D900023E0959587952A95E1F7209139043091A4
:102DA0003A04829FA001839F500D929F500D1124E1
:102DB00070E060E080915404909155040C94AA2234
:102DC000FB0101900020E9F73197AF01461B570B3B
:102DD0000C9457078F929F92AF92BF92EF92FF92FF
:102DE0000F931F93CF93DF93CDB7DEB7A1970FB6A5
:102DF000F894DEBF0FBECDBF7C01FA01CB0119A252
:102E0000223008F42AE08E010F5D1F4F822E912C94
:102E1000B12CA12CBF01A50194010E945821F901F8
:102E2000CA016A300CF5605DD8016E938D01232BC9
:102E3000242B252B79F790E080E0109721F0BD013D
:102E4000C7010E94E016A1960FB6F894DEBF0FBE30
:102E5000CDBFDF91CF911F910F91FF90EF90BF9069
:102E6000AF909F908F900895695CDECF1F93CF93B2
:102E7000DF9300D000D0CDB7DEB78AE393E00E94A5
:102E800095078AE393E00E94950710E08A3379F072
:102E9000E1E0F0E0EC0FFD1FE10FF11D17FDFA95E9
:102EA00080831F5F8AE393E00E949507EFCFCE01F6
:102EB00001960E943221182F8AE393E00E94950721
:102EC0008053990B8230910520F4682F812F0E9446
:102ED000B8088AE393E00E9495078A3011F08D309C
:102EE000C1F78AE393E00E94A9078A3021F48AE3BC
:102EF00093E00E9495070F900F900F900F90DF9135
:102F0000CF911F9108950E94A52285ED8093BC006A
:102F10008091FB019091FC01A091FD01B091FE0117
:102F20000796A11DB11D23E0B695A79597958795A6
:102F30002A95D1F72091BC0024FD03C010924402D1
:102F400008954091FB015091FC016091FD01709149
:102F5000FE01452B462B472B69F30097A105B105D0
:102F600041F025E32A95F1F700000197A109B10985
:102F7000E1CF8091FA010C9425101F920F920FB6A9
:102F80000F9211242F933F934F935F936F937F93EF
:102F90008F939F93AF93BF93EF93FF938AE393E055
:102FA0000E94D707FF91EF91BF91AF919F918F91B1
:102FB0007F916F915F914F913F912F910F900FBE35
:102FC0000F901F9018951F920F920FB60F92112419
:102FD0002F938F939F93EF93FF93E0914A03F09188
:102FE0004B038081E0915003F091510382FD1BC09F
:102FF0009081809153038F5F8F73209154038217C8
:1030000041F0E0915303F0E0E65CFC4F958F809334
:103010005303FF91EF919F918F912F910F900FBECE
:103020000F901F9018958081F4CF1F920F920FB6CA
:103030000F9211242F933F938F939F93AF93BF933E
:103040008091050390910603A0910703B0910803B6
:103050003091040323E0230F2D3758F50196A11D6D
:10306000B11D209304038093050390930603A0935E
:103070000703B09308038091090390910A03A0917C
:103080000B03B0910C030196A11DB11D80930903A0
:1030900090930A03A0930B03B0930C03BF91AF91DD
:1030A0009F918F913F912F910F900FBE0F901F9086
:1030B000189526E8230F0296A11DB11DD2CF1F92AD
:1030C0000F920FB60F9211242F938F939F93EF932C
:1030D000FF9380916F008B7F80936F0080918100C0
:1030E0008F7B80938100809119032091B302205837
:1030F0009091B202893020F49695922B8F5FFACF8F
:103100009093B202809118038F5F803508F080E0C1
:1031100020911703281739F0E82FF0E0EC54FD4F09
:1031200090838093180310921903809181008F7B04
:10313000809381001092B302FF91EF919F918F9144
:103140002F910F900FBE0F901F9018951F920F9206
:103150000FB60F9211242F933F934F935F936F936A
:103160007F938F939F93AF93BF93EF93FF93809140
:103170008600909187004091B30220918100442302
:10318000F1F12F7B209381001092B302309119034B
:1031900031113CC0411122C020911A0330911B0310
:1031A000280F391F30938B0020938A0024E026BB20
:1031B00020916F00246020936F0020911C033091B8
:1031C0001D03820F931F36952795280F391F3093C3
:1031D000B1022093B00281E080931903FF91EF9137
:1031E000BF91AF919F918F917F916F915F914F911F
:1031F0003F912F910F900FBE0F901F901895206454
:103200002093810020E82093B302C0CF4091B00208
:103210005091B10260911C0370911D03DB01A095D8
:10322000B095E091B3022091B202841B950BA817D0
:10323000B90768F126952E2B460F571F3F5F861B57
:10324000970B3930A0F32093B20280916F008B7FEF
:1032500080936F00809118038F5F803508F080E0C5
:1032600090911703981749F0E82FF0E09091B2027F
:10327000EC54FD4F908380931803809181008F7BE5
:10328000809381001092B30210921903A7CF20936C
:10329000B2025093B1024093B002309319039ECF13
:1032A0001F920F920FB60F9211242F933F934F93BB
:1032B0005F936F937F938F939F93EF93FF932091EF
:1032C00016036091AF02809188009091890040912F
:1032D0001C0350911D033091AE022A3070F5840F0B
:1032E000951F762F7170293009F471E066952F5F74
:1032F000371799F3309180007723E1F0306C3093E9
:10330000800090938900809388007093AE02609350
:10331000AF0220931603FF91EF919F918F917F91C0
:103320006F915F914F913F912F910F900FBE0F9032
:103330001F9018953F7B3068E2CF30911503E091E4
:1033400014033E1319C02A3051F42BE020931603C6
:10335000840F951F9093890080938800DCCF109292
:103360001603809180008F738093800080916F009E
:103370008D7F80936F00CFCFEF5FE43408F0E0E003
:10338000E0931403F0E0E659FD4F30813093AF0233
:103390001092AE02309180003F7B30683093800005
:1033A0002A3071F420911C0330911D03820F931F6A
:1033B000909389008093880081E080931603ABCFBF
:1033C00080918400909185004096F2CF1F920F92D9
:1033D0000FB60F9211242F933F934F935F936F93E8
:1033E0007F938F939F93AF93BF93EF93FF938091BE
:1033F000B900887F803609F44AC0F0F5883209F4B4
:10340000A7C018F5803109F49BC0B8F4882309F4EB
:10341000F9C0883009F494C0FF91EF91BF91AF914A
:103420009F918F917F916F915F914F913F912F91DC
:103430000F900FBE0F901F901895883109F488C027
:10344000803251F78093430214C0803409F49DC048
:1034500040F48033B9F38833F9F68093430285EC66
:10346000B0C0803509F485C0883509F496C0883429
:1034700099F60E948517D0CF883909F48CC038F5A9
:10348000883729F050F4883611F0803729F683E028
:10349000809344021092420257C0883809F47BC0DE
:1034A000803919F0803809F0B7CF8091420280321C
:1034B00008F071C0E091420281E08E0F80934202D9
:1034C0008091BB00F0E0EE5DFD4F80833DC0803B0E
:1034D00039F0E0F4803A09F479C0883A09F09CCFD9
:1034E00084E0809344021092210210922002E09125
:1034F0001003F091110309958091200281110FC0F2
:1035000081E0809320021092000209C0803C09F4FF
:10351000A6CF883C09F4A3CF883B09F07DCFE0918A
:10352000210281E08E0F80932102F0E0E050FE4FF7
:1035300080818093BB00909121028091200229C05C
:10354000809169028093BB0085EC8093BC0064CFBE
:103550009091680280916702981758F5E09168028F
:1035600081E08E0F80936802F0E0E95BFD4F80817F
:10357000E9CFE091680281E08E0F8093680280912C
:10358000BB00F0E0E95BFD4F808390916802809181
:1035900067029817C8F285E8D8CFE091680281E009
:1035A0008E0F809368028091BB00F0E0E95BFD4FD5
:1035B00080838091460281115CCF81E08093450237
:1035C00084EA8093BC001092440226CF85EC80935D
:1035D000BC001092440280914202803230F4E091AB
:1035E0004202F0E0EE5DFD4F10826091420270E019
:1035F000E0910E03F0910F0382E292E009951092A0
:1036000042020ACF1092430234CFEAE3F3E013827E
:10361000128248EE53E060E070E044835583668395
:10362000778380E191E09183808385EC90E09587BA
:10363000848784EC90E09787868780EC90E0918B7C
:10364000808B81EC90E0938B828B82EC90E0958B69
:10365000848B86EC90E0978B868B118E128E138E66
:10366000148EA9E2B4E013961C921E92129714963F
:103670004D935D936D937C93179782E291E0119641
:103680009C938E93E7EDF3E01682178210861186E5
:10369000128613861486158616861786108A118A56
:1036A000128A138A148A158AE5E3F4E013821282DF
:1036B00020E830E03583248380E490E0978386839C
:1036C0003187208793878287168A15861486178606
:1036D000168681E0858B848B2FEF3FEF338B228B17
:1036E000318B208B878B108E128E118E84E391E0AC
:1036F00091838083148E138EB68FA58F10A2178EA0
:103700008FEF84A385A386A387A384E080A780E8A6
:103710009AE1A6E0B0E085AB96ABA7ABB0AF80EA8C
:1037200096E8A1E0B0E081AF92AFA3AFB4AF80E57F
:1037300086AF17AEEDE1F4E0138212824483558325
:103740006683778380E691E09183808308957894FF
:1037500084B5826084BD84B5816084BD85B5826096
:1037600085BD85B5816085BD80916E008160809347
:103770006E001092810080918100826080938100B0
:1037800080918100816080938100809180008160C0
:10379000809380008091B10084608093B10080911B
:1037A000B00081608093B00080917A008460809343
:1037B0007A0080917A00826080937A0080917A000A
:1037C000816080937A0080917A00806880937A008B
:1037D0001092C1001092190410921A0410921B0446
:1037E00010921C041092D9031092DA031092DB039A
:1037F0001092DC030E9479096B017C014B015C0192
:1038000028EB820E2BE0921EA11CB11C0E947909AC
:103810006C157D058E059F0528F086169706A8066F
:10382000B906A0F768EE73E080E090E00E944709D7
:103830000E942E070E9479096093D9037093DA03DE
:103840008093DB039093DC036EE671E08AE393E000
:103850000E94E0160E9479096B017C014B015C011A
:103860003AE0830E911CA11CB11C0E9479096C15D1
:103870007D058E059F0528F086169706A806B906D1
:10388000A0F781E08093ED030E9479096093D9034A
:103890007093DA038093DB039093DC036FE771E0AE
:1038A0008AE393E00E94E01660E085E00E94E6086B
:1038B00060E087E00E94E60861E084E00E94E6089C
:1038C00061E086E00E94E60861E08AE00E94E60886
:1038D00060E08EE00E94E60860E08FE00E94E6086B
:1038E0000E942E0766E871E08AE393E00E94E016EA
:1038F0006FE971E08AE393E00E94E016809154043E
:1039000090915504892B09F450C20E94C0168091F1
:103910003B0490913C04819744F040E450E064EE15
:1039200075E085E394E00E94DC0E82E0809357040A
:103930008091520490915304892B09F46CC28CE35A
:1039400080935604109213031092120310923703BF
:10395000109236030E94071084E897E090931103B9
:103960008093100385E897E090930F0380930E03F4
:1039700080915D0487FD1EC061E00E94E60861E061
:1039800080915D040E94B80861E070E080E090E002
:103990000E94470960E080915D040E94B8086AE0D7
:1039A00070E080E090E00E94470961E080915D0452
:1039B0000E94B8088091520490915304892B09F415
:1039C000E9C220916A0430916B0440916C045091DB
:1039D0006D0460E074E284EF90E00E945821205171
:1039E00031094109510956954795379527952093F7
:1039F000B80064E08EEA95E00E94101460913B04E8
:103A0000615085E394E00E94C51464E08AEA95E081
:103A10000E9410148091570460E1813009F064E144
:103A200085E394E00E94C51464E086EA95E00E9474
:103A300010148FE8809372048091390490913A04B5
:103A40008038910509F0BFC280913B0490913C04FD
:103A50008034910509F0C7C280915704813009F084
:103A6000B0C28FE980937204C2E16AED85E394E00D
:103A70000E94C5146C2F85E394E00E94C51461E890
:103A800085E394E00E94C5146091720485E394E09C
:103A90000E94C51469ED85E394E00E94C5148091ED
:103AA000570462E2813009F061EF85E394E00E94FF
:103AB000C51466E080EA95E00E94101480915204DB
:103AC00090915304892B09F492C220916E04309195
:103AD0006F04409170045091710460E074E284EFCF
:103AE00090E00E9458212051310941095109569511
:103AF0004795379527952093B8000E942A1560EDC9
:103B000077E080E090E00E9447090E94C01668EECE
:103B100073E080E090E00E94470910926F001092DD
:103B2000800081E88093810083E896E090931D03F4
:103B300080931C038BE39CE390931B0380931A03F5
:103B400062E088E00E94E60861E089E00E94B8082F
:103B500061E089E00E94E6081092190310921803B0
:103B6000109217031092160310921503109214036B
:103B700080E286BB80936F0000E010E084EF882E27
:103B800099249394A12CB12C332433940E94790965
:103B9000672B682B692B09F434C20E947909C09005
:103BA0003203D0903303E0903403F09035036C156A
:103BB0007D058E059F0508F420C3C0903203D09088
:103BC0003303E0903403F09035039B01AC012C19D2
:103BD0003D094E095F0969017A013AEFC316D10424
:103BE000E104F10408F415C26093320370933303C7
:103BF00080933403909335038092E5039092E6031B
:103C0000A092E703B092E8031092E9031092EA034E
:103C10001092EB031092EC038091DD039091DE0390
:103C2000A091DF03B091E0038093E1039093E2035E
:103C3000A093E303B093E4030E9479096093DD034A
:103C40007093DE038093DF039093E0038AE393E0B5
:103C50000E94A907843611F40E9436170E94790940
:103C60006093D9037093DA038093DB039093DC03B2
:103C70000E9479096B017C0162EA71E08AE393E0BA
:103C80000E94E0162AE041E050E060E070E08AE344
:103C900093E00E94EA1669EA71E08AE393E00E94E9
:103CA000E0162AE0B701A6018AE393E00E94EA1633
:103CB0006BEA71E08AE393E00E94E0168091DD03F5
:103CC0009091DE03A091DF03B091E003B701A6015C
:103CD000481B590B6A0B7B0B2AE08AE393E00E9496
:103CE000EA166BEA71E08AE393E00E94E0164091E5
:103CF000DD035091DE036091DF037091E00380915A
:103D0000E1039091E203A091E303B091E403481B27
:103D1000590B6A0B7B0B2AE08AE393E00E94EA16B8
:103D20006DEA71E08AE393E00E94E0160E9479094F
:103D3000AB01BC012AE08AE393E00E94EA166FEA35
:103D400071E08AE393E00E94E0166FE971E08AE394
:103D500093E00E94E0160E9479092B013C017C014E
:103D60006B0145E0C40ED11CE11CF11C0E947909D5
:103D7000641575058605970528F0C616D706E8066A
:103D8000F906A0F78AE393E00E94A907843611F4AC
:103D90000E9436170E9479096093DD037093DE0359
:103DA0008093DF039093E00334C120913B04309172
:103DB0003C04C901079697FD079613E095958795F2
:103DC0001A95E1F72091390430913A04AC01429FF1
:103DD000C001439F900D529F900D11240E9480219D
:103DE0009093550480935404892B09F08ECDC4EE32
:103DF000D9E0FE016491662339F08AE393E00E94E2
:103E0000F9072196892BA9F76FE971E08AE393E01E
:103E10000E94E016FFCF61E080915B040E94E608FB
:103E200061E080915C040E94E60880915B04082EAA
:103E3000000C990BFC01E053FA4FE491F0E0EE0F17
:103E4000FF1FEA53FA4F2591349130936304209376
:103E50006204FC01EE54FA4FE491E093680480910F
:103E60005C04082E000C990BFC01E053FA4FE4911E
:103E7000F0E0EE0FFF1FEA53FA4FA591B491B09313
:103E80006504A0936404FC01EE54FA4FE491E093BE
:103E900069048C91E82BEC9380915004909151042B
:103EA000892B09F434C0CFB7F89480910D038111A8
:103EB00027C0EAEDF5E08491ECEBF5E09491E82F72
:103EC000F0E0EE0FFF1FEA56FA4FA591B491EC9186
:103ED000E92321F461E08AE00E94B80861E08AE009
:103EE0000E94E6088CB580618CBD8CB580648CBD69
:103EF00061E08DE00E94E60861E08BE00E94E60848
:103F000080910D038F5F80930D03CFBF31CD61E0B2
:103F1000809159040E94E60861E080915A040E9451
:103F2000E60880915904082E000C990BFC01E0531F
:103F3000FA4FE491F0E0EE0FFF1FEA53FA4F25919C
:103F4000349130935F0420935E04FC01EE54FA4FE9
:103F5000E491E093660480915A04082E000C990BBA
:103F6000FC01E053FA4FE491F0E0EE0FFF1FEA533B
:103F7000FA4FA591B491B0936104A0936004FC0141
:103F8000EE54FA4FE491E09367048C91E095E823B6
:103F9000EC93EECC8091500490915104892B31F038
:103FA00080917304909174040E942715E091640439
:103FB000F0916504908180916904809589238083C4
:103FC00018CD8FEC4FCD8036910569F480913B047C
:103FD00090913C04409739F480915704813029F442
:103FE00080E180937204C2E040CD8FEAFACFE09185
:103FF0006404F0916504808190916904892B808329
:104000007CCD0E947909623071058105910508F027
:10401000C4CD85E00E948F08EC0190932703809324
:1040200026038091240390912503C817D90751F0E6
:104030000E947909609320037093210380932203E7
:10404000909323030E947909C0902003D09021030C
:10405000E0902203F09023036C197D098E099F09DB
:104060006333710581059105E0F080911E03909105
:104070001F03C817D907A9F0209100013091010151
:10408000D0931F03C0931E03C130D10551F481E0CA
:1040900090E0232B11F090E080E090930101809359
:1040A00000016091000184E00E94B808D0932503CC
:1040B000C093240387E00E948F08EC0190933103A2
:1040C0008093300380912E0390912F03C817D90756
:1040D00051F00E94790960932A0370932B03809317
:1040E0002C0390932D030E947909C0902A03D0904D
:1040F0002B03E0902C03F0902D036C197D098E09A1
:104100009F096333710581059105E0F080912803D3
:1041100090912903C817D907A9F020910201309185
:104120000301D0932903C0932803C130D10551F472
:1041300081E090E0232B11F090E080E09093030168
:10414000809302016091020186E00E94B808D0933A
:104150002F03C0932E030E94C01640E850E06EEF7C
:1041600079E085E394E00E94DC0E0E942A158DE13F
:1041700094E00E948509892B59F08DE194E00E941A
:10418000A80980930501682F8AE393E00E94F9074C
:104190008AE393E00E94B707892B19F18AE393E041
:1041A0000E949507809305018A3021F08D3011F02F
:1041B0000E94BE0980910401882341F066EB71E002
:1041C0008AE393E00E94E01610920401C091050179
:1041D0006C2F8AE393E00E94F907CA3011F4309201
:1041E00004010115110509F4D1CC0E94C3078823ED
:1041F00009F4CCCC0E940000C9CC609332037093C8
:1042000033038093340390933503D7CC80E691E059
:1042100090931E0480931D0480916F008B7F809388
:104220006F0080916F008F7D80936F0080911703E6
:1042300080931803809116038111FCCF80916F0049
:104240008D7F80936F0084E391E090933604809398
:1042500035048091540490915504009711F00C940A
:104260001C220895FC0188279927E8942191203287
:10427000E9F3293010F02E30C8F32B3241F02D3203
:1042800039F4689404C00E945021820F911D21913D
:1042900020532A30C0F31EF4909581959F4F0895C6
:1042A0007AE0979F902D879F802D910D112408957E
:1042B000A1E21A2EAA1BBB1BFD010DC0AA1FBB1F2A
:1042C000EE1FFF1FA217B307E407F50720F0A21B9C
:1042D000B30BE40BF50B661F771F881F991F1A9409
:1042E00069F760957095809590959B01AC01BD0133
:1042F000CF010895EE0FFF1F0590F491E02D099472
:104300000F931F93CF93DF938230910510F482E0D7
:1043100090E0E0917704F091780430E020E0B0E0A4
:10432000A0E0309799F42115310509F44AC0281B03
:10433000390B24303105D8F58A819B8161157105CF
:1043400089F1FB0193838283FE0111C04081518179
:104350000281138148175907E0F04817590799F46B
:10436000109761F012960C93129713961C93329645
:10437000CF01DF91CF911F910F91089500937704A2
:1043800010937804F4CF2115310551F042175307EB
:1043900038F0A901DB019A01BD01DF01F801C1CFAD
:1043A000EF01F9CF9093780480937704CDCFFE018D
:1043B000E20FF31F819391932250310939832883AF
:1043C000D7CF2091750430917604232B41F42091AE
:1043D00008013091090130937604209375042091EF
:1043E0000601309107012115310541F42DB73EB783
:1043F00040910A0150910B01241B350BE09175048B
:10440000F0917604E217F307A0F42E1B3F0B281758
:10441000390778F0AC014E5F5F4F2417350748F03D
:104420004E0F5F1F509376044093750481939193D0
:104430009FCFF0E0E0E09CCFCF93DF930097E9F0CF
:10444000FC01329713821282A0917704B091780414
:10445000ED0130E020E01097A1F420813181820F3E
:10446000931F20917504309176042817390709F0BD
:1044700061C0F0937604E0937504DF91CF910895C5
:10448000EA01CE17DF07E8F54A815B819E014115FD
:104490005105B1F7E901FB83EA8349915991C40FB2
:1044A000D51FEC17FD0761F4808191810296840F7E
:1044B000951FE90199838883828193819B838A83F5
:1044C000F0E0E0E012968D919C9113970097B9F57A
:1044D0002D913C911197CD010296820F931F20914F
:1044E0007504309176042817390739F6309751F55D
:1044F0001092780410927704B0937604A093750418
:10450000BCCFD383C28340815181840F951FC817CC
:10451000D90761F44E5F5F4F88819981480F591F19
:10452000518340838A819B81938382832115310546
:1045300009F0B0CFF0937804E09377049ECFFD01AB
:10454000DC01C0CF13821282D7CF81E090E0F894D3
:104550000C94B122DC0101C06D9341505040E0F752
:10456000089517E0C3E0D7E004C0FE010E947A215D
:0C4570002196C430D107C9F7F894FFCFA2
:10457C00010001000120000079048000000000000F
:10458C00F907570786074608B7079507A9070000DC
:10459C0000009C106F10BD16560768105510461081
:1045AC0000000000300C5707BD16B1165913560702
:1045BC00D50EAD0EC90EBD0E330F5607F6095B16A0
:1045CC00C9121213F60DD90D610D020D0000000079
:1045DC00B7165707BD16B2168509A8099509564D89
:1045EC004450565F317C315F564D4450560A00564C
:1045FC004D4450525F00425473657269616C207374
:10460C007461727465642061742039363030000D29
:10461C000A00564D4450455F003A323A007C005F28
:0A462C00564D445045000D0A3E00B3
:107E0000112484B714BE81FFF0D085E080938100F7
:107E100082E08093C00088E18093C10086E0809377
:107E2000C20080E18093C4008EE0C9D0259A86E02C
:107E300020E33CEF91E0309385002093840096BBD3
:107E4000B09BFECF1D9AA8958150A9F7CC24DD24C4
:107E500088248394B5E0AB2EA1E19A2EF3E0BF2EE7
:107E6000A2D0813461F49FD0082FAFD0023811F036
:107E7000013811F484E001C083E08DD089C08234E0
:107E800011F484E103C0853419F485E0A6D080C0E4
:107E9000853579F488D0E82EFF2485D0082F10E0AE
:107EA000102F00270E291F29000F111F8ED06801E7
:107EB0006FC0863521F484E090D080E0DECF843638
:107EC00009F040C070D06FD0082F6DD080E0C81688
:107ED00080E7D80618F4F601B7BEE895C0E0D1E017
:107EE00062D089930C17E1F7F0E0CF16F0E7DF06D8
:107EF00018F0F601B7BEE89568D007B600FCFDCFD4
:107F0000A601A0E0B1E02C9130E011968C91119780
:107F100090E0982F8827822B932B1296FA010C0160
:107F200087BEE89511244E5F5F4FF1E0A038BF0790
:107F300051F7F601A7BEE89507B600FCFDCF97BE46
:107F4000E89526C08437B1F42ED02DD0F82E2BD052
:107F50003CD0F601EF2C8F010F5F1F4F84911BD097
:107F6000EA94F801C1F70894C11CD11CFA94CF0C13
:107F7000D11C0EC0853739F428D08EE10CD085E9AC
:107F80000AD08FE07ACF813511F488E018D01DD067
:107F900080E101D065CF982F8091C00085FFFCCF94
:107FA0009093C60008958091C00087FFFCCF809118
:107FB000C00084FD01C0A8958091C6000895E0E648
:107FC000F0E098E1908380830895EDDF803219F02E
:107FD00088E0F5DFFFCF84E1DECF1F93182FE3DFCA
:107FE0001150E9F7F2DF1F91089580E0E8DFEE27F6
:047FF000FF270994CA
:027FFE00040479
:0400000300007E007B
:00000001FF