:100000000C9404050C942C050C942C050C942C05D4
:100010000C942C050C942C050C942C050C942C059C
:100020000C942C050C942C050C9453160C94FD1672
:100030000C940C160C942C050C942C050C942C058B
:100040000C94A3140C942C050C9471140C944B1464
:100050000C942C050C942C050C942C050C942C055C
:100060000C94ED140C942C05000103070F1F3F7F27
:100070000080C0E0F0F8FCFE00000000003E5B4F96
:100080005B3E3E6B4F6B3E1C3E7C3E1C183C7E3CF8
:10009000181C577D571C1C5E7F5E1C00183C180006
:1000A000FFE7C3E7FF0018241800FFE7DBE7FF3096
:1000B000483A060E2629792926407F050507407F04
:1000C00005253F5A3CE73C5A7F3E1C1C08081C1C77
:1000D0003E7F14227F22145F5F005F5F06097F016D
:1000E0007F006689956A606060606094A2FFA29458
:1000F00008047E040810207E201008082A1C080826
:100100001C2A08081E101010100C1E0C1E0C303873
:100110003E3830060E3E0E06000000000000005F74
:1001200000000007000700147F147F14242A7F2A90
:100130001223130864623649562050000807030052
:10014000001C2241000041221C002A1C7F1C2A089E
:10015000083E080800807030000808080808000001
:1001600060600020100804023E5149453E00427F75
:10017000400072494949462141494D331814127FC4
:100180001027454545393C4A494931412111090764
:100190003649494936464949291E000014000000E5
:1001A00040340000000814224114141414140041B7
:1001B00022140802015909063E415D594E7C121174
:1001C000127C7F494949363E414141227F414141AC
:1001D0003E7F494949417F090909013E4141517327
:1001E0007F0808087F00417F41002040413F017F98
:1001F000081422417F404040407F021C027F7F0460
:1002000008107F3E4141413E7F090909063E4151A8
:10021000215E7F09192946264949493203017F0198
:10022000033F4040403F1F2040201F3F4038403F99
:10023000631408146303047804036159494D4300AF
:100240007F4141410204081020004141417F0402E6
:10025000010204404040404000030708002054547D
:1002600078407F284444383844444428384444285B
:100270007F385454541800087E090218A4A49C78AE
:100280007F0804047800447D40002040403D007F0A
:100290001028440000417F40007C047804787C08EA
:1002A0000404783844444438FC18242418182424BE
:1002B00018FC7C08040408485454542404043F44A3
:1002C000243C4040207C1C2040201C3C4030403CD2
:1002D00044281028444C9090907C4464544C440032
:1002E0000836410000007700000041360800020196
:1002F0000204023C2623263C1EA1A161123A404082
:10030000207A3854545559215555794122545478FE
:1003100042215554784020545579400C1E52721297
:100320003955555559395454545939555454580020
:1003300000457C410002457D420001457C407D1224
:1003400011127DF0282528F07C5455450020545486
:100350007C547C0A097F4932494949323A44444431
:100360003A324A4848303A4141217A3A424020786C
:10037000009DA0A07D3D4242423D3D4040403D3C6D
:1003800024FF2424487E4943662B2FFC2F2BFF0992
:1003900029F620C0887E0903205454794100004486
:1003A0007D413048484A32384040227A007A0A0A71
:1003B000727D0D19317D2629292F282629292926E4
:1003C00030484D4020380808080808080808382F29
:1003D00010C8ACBA2F102834FA00007B00000814B3
:1003E0002A142222142A14085500550055AA55AA89
:1003F00055AAFF55FF55FF000000FF00101010FF29
:1004000000141414FF001010FF00FF1010F010F083
:10041000141414FC001414F700FF0000FF00FF1474
:1004200014F404FC141417101F10101F101F1414C0
:10043000141F00101010F0000000001F101010100A
:100440001F10101010F010000000FF1010101010FE
:1004500010101010FF10000000FF140000FF00FF3C
:1004600000001F10170000FC04F4141417101714D8
:1004700014F404F40000FF00F714141414141414FA
:10048000F700F7141414171410101F101F1414146D
:10049000F4141010F010F000001F101F0000001FD7
:1004A00014000000FC140000F010F01010FF10FF0A
:1004B000141414FF141010101F00000000F010FF9F
:1004C000FFFFFFFFF0F0F0F0F0FFFFFF0000000083
:1004D00000FFFF0F0F0F0F0F3844443844FC4A4A07
:1004E0004A347E02020606027E027E0263554941BC
:1004F000633844443C04407E201E2006027E0202F3
:1005000099A5E7A5991C2A492A1C4C7201724C3006
:100510004A4D4D303048784830BC625A463D3E49DD
:100520004949007E0101017E2A2A2A2A2A44445F81
:10053000444440514A444040444A51400000FF0175
:1005400003E080FF000008086B6B08361236243683
:10055000060F090F060000181800000010100030E8
:1005600040FF0101001F01011E00191D1712003C70
:100570003C3C3C000000000000000000230026007E
:100580002900000000080002010000030407000029
:1005900000000000000000000000240027002A00E6
:1005A000DB40A4A62EAF2000A1C8D300408DAED55D
:1005B00080A80102040810204080010204081020D5
:1005C00001020408102000000000250028002B0074
:1005D00004040404040404040202020202020303E9
:1005E00003030303F1FFFFFFFFFFFFFFFFFFFFFF19
:1005F000FFFFFFFFF007FFFFFFFFFFFFFFFEFFFF13
:10060000FFFFFFFFE000FFFFFFFFFFFFFF00FFFF17
:100610009FFFFFE7E0003FFFFFFFFFFFF801FF0044
:100620001FFFFFE3E0000FFF8000FFFFF801FC0069
:100630000FFFFFE1F00003FFC000003FF803FC00E4
:100640000FFFFFC0F80003FFC000000018020C00FD
:100650000FFFFF00180003C7E000000000020000C9
:100660000FFFFE00180000E0600000000002000024
:1006700003FFC0000C000038300000000002000042
:10068000000000000C000C1C1C0000000002000018
:10069000000000000E000F000E000000000200002D
:1006A0000000000006000F80070000000002180094
:1006B00000000001070007C001C0000000030600A1
:1006C00000000001070007E00078001FF00101E0D2
:1006D00000000003030003E000FC07FFF801803C7A
:1006E0000000003F038001FFFFF600FFF800C00795
:1006F00080000FFF038000FFFE00003FF800400075
:10070000FFFFF80F03E00003F001001FFC00600092
:100710000000000703F00000F001800FFE00300031
:100720000000000307FC00001801C007FE001F00C6
:100730000000000E07FF00000000E003FFF80F00BC
:1007400000000018067FC0000000F801F80C070048
:10075000FE000070040FE00000003C00E00E070007
:10076000FFC000C00C1FF80000003E0070037F00B7
:10077000E3F80380083FFE0000001F003001FF0087
:10078000C07C0600087FFF8000001F801801FF006A
:10079000803FCC0010FFFFE0000007800000FE005B
:1007A00080307F0011FFFFF8000003E000007E00B2
:1007B00080106300FBFFFFFF000001E000003E002F
:1007C0008310610EFFFFFFFF800000F000003C017E
:1007D0008710613EFFFFFFFC000000F000003C01BD
:1007E0000F10416FFFFFFE00000000F800003C0109
:1007F0000F10410FFFFFC007800000F800003C030E
:100800001F10410FF800000F800000F800007C026C
:100810001E306107FFC0001F000001FFFC007802CE
:100820001E202307FFE0001F000003FFFE00F80268
:100830001C222207FF80001C000007800001F80234
:100840001822C203FF80001C000007000003F8020A
:100850000022C603FF80001800003C00000FF003D8
:1008600000428403FF00001800007800001FF0031E
:1008700080C28403FF0000180001E000003FC000B8
:10088000C1020C01FE0000100007C000007F87F8C5
:100890007E061801FE000010003F000000FC080C5E
:1008A00038041801FC00001000FC000001E00806FC
:1008B0003C0C1807F800001003F8000003E00703E1
:1008C0001F9C1C1FF80000100FC00000078E0001C5
:1008D0008FFC0C00F00000001F8000000FFFF000F4
:1008E000C3FC0C00F00000003F0000001FFFFFC031
:1008F00061FC0400E00000003E000003FF00000077
:10090000307C0C00800000007C00001C0000000017
:100910001C1FF8008000000078000030000000007C
:10092000060FE00080000000F00000000000000062
:100930000300FF8080000000E000000000000000D5
:1009400001800FFC80000000C000000000000000DB
:1009500000E0007F80000000C000000000000000F8
:100960000030000380000000400000000000000094
:1009700000100000800000000000000000000000E7
:1009800000200000C0000000000FFC00000000007C
:1009900000600000E000000000FFFFF80000000021
:1009A00000E00000F80000E107FFFFFFE0000000AA
:1009B00003F80000FC007FFF3FFFFFFFFFC00000C7
:1009C0000FFF0000FF03FFFFFFFFFFFFFFFF80009F
:1009D0001FFFE000FFFFFFFFFFFFFFFFFFFFF8002B
:1009E0003FFFFFE02200FF210053534431333036F4
:1009F00020616C6C6F636174696F6E206661696CF5
:100A0000656400009317F91E11241FBECFEFD8E0D4
:100A1000DEBFCDBF12E0A0E0B1E0E2E6F1E402C04B
:100A200005900D92A234B107D9F725E0A2E4B2E017
:100A300001C01D92A130B207E1F715E0C3E0D5E097
:100A400004C02197FE010E946D1FC230D107C9F773
:100A50000E9435180C94A4200C940000E2ECF3E002
:100A6000A089B18982E08C93A485B5851C92A68566
:100A7000B7858FEC8C93108EA489B58986E08C9312
:100A8000A289B3898C9180618C93A289B3898C915E
:100A900088608C93A289B3898C9180688C9302883A
:100AA000F389E02D80818F7D80830895AF92BF927E
:100AB000CF92DF92EF92FF920F931F93CF93DF932A
:100AC0006C017B018B01040F151FEB015E01AE1859
:100AD000BF08C017D10759F06991D601ED91FC917B
:100AE0000190F081E02DC6010995892B79F7C501A8
:100AF000DF91CF911F910F91FF90EF90DF90CF90FA
:100B0000BF90AF900895089508950895FC01538D06
:100B1000448D252F30E0842F90E0821B930B5417D7
:100B200010F0CF96089501970895FC01918D828D64
:100B3000981761F0A28DAE0FBF2FB11D5D968C91FD
:100B4000928D9F5F9F73928F90E008958FEF9FEF3C
:100B50000895FC01918D828D981731F0828DE80FF8
:100B6000F11D858D90E008958FEF9FEF0895FC01B2
:100B7000918D228D892F90E0805C9F4F821B91097F
:100B80008F739927089582EC93E00E94B70521E0C6
:100B9000892B09F420E0822F089580E090E0892BD2
:100BA00029F00E94C30581110C9400000895FC01F6
:100BB000A48DA80FB92FB11DA35ABF4F2C91848DBE
:100BC00090E001968F739927848FA689B7892C931B
:100BD000A089B1898C91837080648C93938D848D6E
:100BE000981306C00288F389E02D80818F7D808371
:100BF0000895EF92FF920F931F93CF93DF93EC0131
:100C000081E0888F9B8D8C8D98131AC0E889F989B3
:100C1000808185FF15C09FB7F894EE89FF896083B6
:100C2000E889F98980818370806480839FBF81E037
:100C300090E0DF91CF911F910F91FF90EF90089579
:100C4000F62E0B8D10E00F5F1F4F0F731127E02E54
:100C50008C8D8E110CC00FB607FCFACFE889F9898C
:100C6000808185FFF5CFCE010E94D705F1CFEB8DB6
:100C7000EC0FFD2FF11DE35AFF4FF0829FB7F89460
:100C80000B8FEA89FB8980818062CFCFCF93DF937E
:100C9000EC01888D8823B9F0AA89BB89E889F98994
:100CA0008C9185FD03C0808186FD0DC00FB607FCC9
:100CB000F7CF8C9185FFF2CF808185FFEDCFCE01FC
:100CC0000E94D705E9CFDF91CF910895833081F05D
:100CD00028F4813099F08230A9F008958730A9F086
:100CE0008830C9F08430B1F4809180008F7D03C0DA
:100CF000809180008F7780938000089584B58F77EE
:100D000084BD089584B58F7DFBCF8091B0008F772F
:100D10008093B00008958091B0008F7DF9CFCF937C
:100D2000DF93282F30E0F901EE57FA4F8491F90153
:100D3000EE54FA4FD491F901E053FA4FC491CC2309
:100D4000A1F081110E946606EC2FF0E0EE0FFF1F6C
:100D5000E858FA4FA591B491EC91ED2381E090E031
:100D600009F480E0DF91CF91089580E090E0FACF20
:100D70001F93CF93DF93282F30E0F901EE57FA4FFE
:100D80008491F901EE54FA4FD491F901E053FA4FEE
:100D9000C491CC23A9F0162F81110E946606EC2F76
:100DA000F0E0EE0FFF1FEA53FA4FA591B4918FB711
:100DB000F894EC91111108C0D095DE23DC938FBF1D
:100DC000DF91CF911F910895DE2BF8CFCF93DF9362
:100DD00090E0FC01EE54FA4F249180539A4FFC01AD
:100DE00084918823C9F090E0880F991FFC01EA568E
:100DF000FA4FA591B491FC01EA53FA4FC591D491F1
:100E000061110DC09FB7F8948C91209582238C932B
:100E10008881282328839FBFDF91CF910895623076
:100E200051F49FB7F8943C91822F809583238C9343
:100E3000E8812E2BEFCF8FB7F894EC912E2B2C93CB
:100E40008FBFEACF3FB7F8948091910390919203BE
:100E5000A0919303B091940326B5A89B05C02F3FA2
:100E600019F00196A11DB11D3FBFBA2FA92F982FD0
:100E70008827BC01CD01620F711D811D911D42E0CB
:100E8000660F771F881F991F4A95D1F708958F9293
:100E90009F92AF92BF92CF92DF92EF92FF924B015F
:100EA0005C010E9422076B017C010E9422076C19E1
:100EB0007D098E099F09683E734081059105A8F35D
:100EC00021E0821A9108A108B10888EEC80E83E0DB
:100ED000D81EE11CF11C81149104A104B10429F76E
:100EE000FF90EF90DF90CF90BF90AF909F908F904A
:100EF00008952FB7F89460918D0370918E038091BF
:100F00008F03909190032FBF08950895FC016370A3
:100F1000668B8481958126813781613039F0633019
:100F200029F091878087338722870895318720872A
:100F30009387828708952F923F924F925F926F928C
:100F40007F928F929F92AF92BF92CF92DF92EF9259
:100F5000FF920F931F93CF93DF93CDB7DEB76A97BE
:100F60000FB6F894DEBF0FBECDBF9A8F898F7A83FC
:100F700069834A01D22E18870F833701BC2CDC010C
:100F800059962D913C915A972115310509F015C1BB
:100F900018968D919C911997681779070CF0D7C115
:100FA0001A968D919C91481759070CF0D0C14C2C82
:100FB000512CB6E0CB9E600D711D11247C876B8790
:100FC000161617060CF0C3C1EA2DF0E0FA87E98780
:100FD00093E0EE0FFF1F9A95E1F7F88BEF87CF01B3
:100FE000840F951F181619060CF0B1C1A98DBA8D82
:100FF00058968C91811104C0BFEABD1508F4D394B2
:10100000A98DBA8DED91FC9111970284F385E02DA5
:10101000CD010995B5E0DB9EC0011124E981FA817B
:10102000FC83EB83312C212C9C0128583F4F388FB7
:101030002F8B4A2D50E05E8B4D8BEF89F88DE20DA2
:10104000F31D44919E828D82D12CC12C69817A81BD
:10105000620D731D7A8B698B842F90E09C8B8B8B38
:10106000E98DFA8DA081B18140FF82C0F1E0BF120D
:101070006FC0AF126DC01C96ED91FC912F81388529
:10108000A4014C0D5D1D69897A89898D9A8D099518
:10109000EB89FC89F595E7954E2F5FEFC51AD50AC8
:1010A0006D817E818D899E89680F791F7E836D8316
:1010B00098E0C916D10481F6AFEF2A1A3A0AEB81FB
:1010C000FC81E40DF51DFC83EB83F5E02F16310464
:1010D00009F0B3CF2F81388526153705B9F0A98DD2
:1010E000BA8DED91FC91B1E0BB1257C0AB1255C067
:1010F00069817A816B5F7F4F0088F189E02D8301E0
:1011000028E030E0A401898D9A8D0995A98DBA8DCA
:10111000ED91FC9111970688F789E02DCD016A9633
:101120000FB6F894DEBF0FBECDBFDF91CF911F91F8
:101130000F91FF90EF90DF90CF90BF90AF909F9076
:101140008F907F906F905F904F903F902F90099479
:101150001E96ED91FC91EF80F88409851A85920125
:101160004D815E816B817C81898D9A8D099590CFAF
:101170002F8138852615370509F48ACF31E0B3125F
:1011800007C0A31205C01C96ED91FC91930178CF86
:101190001E96ED91FC917301E0CF6B857C856419FF
:1011A00075090684F785E02D73010F851889920172
:1011B000A401898D9A8D0995A9CFF901349694914E
:1011C000329745915491D91AB7E0DB9E400D511DDD
:1011D0001124F901259134913C8B2B8BFA01259038
:1011E0003490FA013296749031963491398B32965C
:1011F00064903196449041E04C1518F04A1508F07F
:101200007FC0662D062C000C770B7C836B83842DAE
:10121000042C000C990B9E838D83A98DBA8DED91C2
:10122000FC9111970284F385E02DCD010995512C95
:10123000D12CC12CEA2DF0E0FA87E9872B2D30E084
:101240003C872B87A401440D511D47FC5A95588FAC
:101250004F8B69817A81660D711D67FC7A957E8757
:101260006D877989C71608F051CF2C2D30E04D815C
:101270005E81420F531FA985BA854A9FC0014B9FCB
:10128000900D5A9F900D1124FC01E80DF91DF88B6B
:10129000EF87852D612C4F89588D420F531F5E8B30
:1012A0004D8B671408F050C044244394480E877057
:1012B00041F4C1010196EB89FC89E20DF31DD49044
:1012C0001C01D7FE19C0A98DBA8DED91FC91662D38
:1012D00070E0B1E0BB1219C0AB1217C02D853E857E
:1012E000620F731F0484F585E02D2F8138854D89A9
:1012F0005E89898D9A8D0995DD0C6394842DD1CFFB
:101300001E821D821C821B8288CF4B815C81640FF0
:10131000751FAB85BC856A9FC0016B9F900D7A9F3E
:10132000900D112469817A81680F791F0684F785F1
:10133000E02DEF80F88409851A859D014F85588935
:10134000898D9A8D0995D8CF570CC3948ACF6A9608
:101350000FB6F894DEBF0FBECDBFDF91CF911F91C6
:101360000F91FF90EF90DF90CF90BF90AF909F9044
:101370008F907F906F905F904F903F902F90089547
:101380008F929F92AF92CF92EF92FF920F931F9303
:10139000CF93DF93EC01262F898D9A8D009709F06A
:1013A00051C06A30D1F41D861C868D8948E0849F27
:1013B000900111248E859F85820F931F9F878E87B2
:1013C00081E090E0DF91CF911F910F91FF90EF901E
:1013D000CF90AF909F908F9008956D3089F3CC8817
:1013E000AD888F898823C1F08C859D8536E0C39EAA
:1013F000800D911D1124488559854817590764F4BB
:101400004E855F851D861C8638E0A39EC001112491
:10141000840F951F9F878E87EA88FB880889198922
:101420004E855F856C857D85CE010E949B072C894A
:101430008C859D8546E0249F800D911D11249D87FC
:101440008C87BECF6A3069F41D861C86FC013896F5
:10145000E4912D898E859F85E29F800D911D112439
:10146000ADCF6D3009F4ACCFFC01349634916317E5
:1014700008F4A6CF3296E491E61708F4A1CFFC0158
:10148000329685909490462F431B342F47E0349F2B
:10149000800C911C1124F401329634913196E49120
:1014A0003323A9F1EE2399F1CC88F4013596E49128
:1014B000AD884F89442301F10E2E000CFF0BE30F82
:1014C000F11DCE9EA001CF9E500D11246C857D850F
:1014D000460F571F68857985641775076CF44E852C
:1014E0005F851D861C86FC013896E491AE9E400DFA
:1014F000511D11245F874E87EA88FB880889198966
:101500004E855F856C857D85CE010E949B07F40129
:101510003496E4912C898C859D85E29F800D911DE8
:1015200011248DCF6F927F928F929F92AF92BF9234
:10153000CF92DF92EF92FF920F931F93CF93DF939F
:10154000EC016B015A0139014801E881F9810284FB
:10155000F385E02D0995E881F9810288F389E02D72
:1015600087019301A501B601CE010995A501480D9A
:10157000591D41505109E881F9810288F389E02D14
:101580009301B601CE010995E881F9810088F189BE
:10159000E02D9401A501B601CE010995C60CD71C1A
:1015A000B60161507109E881F9810088F189E02D67
:1015B0009401A501CE010995E881F9810688F78992
:1015C000E02DCE01DF91CF911F910F91FF90EF9011
:1015D000DF90CF90BF90AF909F908F907F906F9053
:1015E00009946F927F928F929F92AF92BF92CF9207
:1015F000DF92EF92FF920F931F93CF93DF935C01E3
:10160000EB016A01490138018701DC01ED91FC9190
:101610006217730719F5641675062CF0962D872D41
:101620003A01C92ED82E9601261937092F5F3F4F50
:10163000048CF58DE02DA301BE01C5010995DF9154
:10164000CF911F910F91FF90EF90DF90CF90BF90BF
:10165000AF909F908F907F906F900895461557059B
:1016600091F42617370724F0892D4B01C22FD82F6C
:101670009E01281939092F5F3F4F068CF78DE02D09
:10168000A601B401DACF0284F385E02D0995D501D6
:10169000ED91FC910488F589E02D83019401A60168
:1016A000BE01C5010995D501ED91FC910688F78928
:1016B000E02DC501DF91CF911F910F91FF90EF9029
:1016C000DF90CF90BF90AF909F908F907F906F9062
:1016D0000994EF92FF920F931F93DC011A960D91DC
:1016E0001C911B9718962D913C911997ED91FC91A7
:1016F00000A0F1A1E02D7B0150E040E070E060E04F
:1017000009951F910F91FF90EF9008954F925F926E
:101710006F927F928F929F92AF92BF92CF92DF9201
:10172000EF92FF920F931F93CF93DF936C012B01E6
:101730005A0139014801DC01ED91FC910284F385E5
:10174000E02D0995E201640C751CD601ED91FC9128
:10175000C615D7055CF40088F189E02D8701940156
:10176000A501BE01C60109952196EFCF0688F7892C
:10177000E02DC601DF91CF911F910F91FF90EF9067
:10178000DF90CF90BF90AF909F908F907F906F90A1
:101790005F904F9009948F929F92AF92BF92CF9299
:1017A000DF92EF92FF920F931F93CF93DF93EC01A1
:1017B0005B014A016901E881F9810284F385E02D2A
:1017C000099595012C0D3D1D21503109E881F981C4
:1017D0000488F589E02D78018401A401B501CE01CA
:1017E0000995E881F9810688F789E02DCE01DF911E
:1017F000CF911F910F91FF90EF90DF90CF90BF900E
:10180000AF909F908F9009948F929F92AF92BF92CA
:10181000CF92DF92EF92FF920F931F93CF93DF93BC
:10182000EC015B014A0169017801E881F9810284D8
:10183000F385E02D0995C80CD91C860101501109CA
:10184000E881F9810488F589E02D9501A401B501AD
:10185000CE010995E881F9810688F789E02DCE014E
:10186000DF91CF911F910F91FF90EF90DF90CF907C
:10187000BF90AF909F908F900994EF92FF920F933B
:101880001F93DC01ED91FC9100A0F1A1E02D0995E1
:101890001F910F91FF90EF9008950F931F93DC011C
:1018A000ED91FC91068CF78DE02D09951F910F911C
:1018B00008950F931F93DC01ED91FC91048CF58D3D
:1018C000E02D09951F910F910895DC01ED91FC9198
:1018D0000084F185E02D09942F923F924F925F9200
:1018E0006F927F928F929F92AF92BF92CF92DF9230
:1018F000EF92FF920F931F93CF93DF9300D000D00E
:1019000000D0CDB7DEB73C016A013E832D83FC8257
:10191000EB825801A41AB50AB7FE03C0B194A19492
:10192000B1088D809E80861A970A97FE03C0919415
:10193000819491088A149B045CF0902F812F0D8173
:101940001E819D838E839C2D8D2D6B01692F782F99
:101950000C151D055CF09D818E817E836D83692F42
:10196000782F902F812F8601C92ED82E1601201A8C
:10197000310A2B012D813E81421A530A57FE03C0C2
:10198000519441945108710137FE03C03FEFE31AAF
:10199000F30AF594E7948D819E81861797075CF58D
:1019A000A1E0B0E0BA83A983C016D1064CF1D301FF
:1019B000ED91FC910484F585E02D2B813C81A801FB
:1019C0006D817E818A149B041CF04D815E81B8017B
:1019D000C3010995E418F508F7FE0AC02D813E8180
:1019E00089819A81280F391F3E832D83E20CF31CD5
:1019F0000F5F1F4FD9CF2FEF3FEF3A832983D4CF0B
:101A000026960FB6F894DEBF0FBECDBFDF91CF9103
:101A10001F910F91FF90EF90DF90CF90BF90AF900C
:101A20009F908F907F906F905F904F903F902F90FE
:101A30000895EF92FF920F931F93CF93DF93EC01E2
:101A4000EC80FD806E157F050CF070C057FF04C060
:101A5000240F351F50E040E08E819F81FA01E20F94
:101A6000F31F8E179F071CF49C01241B350B1216C5
:101A700013060CF05BC0922F842F86958695869571
:101A80008E9DD0018F9DB00D11246A0F7B1FAF8DED
:101A9000B8A1A60FB71F477049F188E0841B482FF3
:101AA000682F70E0FB01E059FF4FE491281708F020
:101AB00063C0621B71092FEF30E002C03595279596
:101AC0006A95E2F7E2230130110539F0B0F10230F6
:101AD000110561F58C91E82702C08C91E82BEC93FD
:101AE000941720F12C813D81A20FB31FE92FE41B35
:101AF000E83078F00230110521F58E2F9C919095F9
:101B00009C932C813D81A20FB31F88508830B0F781
:101B1000E770EE2359F0F0E0E859FF4FE49101300F
:101B20001105F9F010F10230110519F1DF91CF9193
:101B30001F910F91FF90EF900895E0958C91E8230D
:101B4000CECF81E00115110509F480E081959E2F2B
:101B50008C932C813D81A20FB31F98509830C0F711
:101B6000D7CF8C91E82BEC93E1CFE0958C91E823D3
:101B7000FACF8C91E827F7CF0130110509F4ADCFEA
:101B8000E0F20230110509F4A5CFAE0DBF1DAECFB6
:101B90000F931F93CF93DF9377FF04C0260F371F58
:101BA00070E060E0DC011496CD91DC91FB01E20F66
:101BB000F31FCE17DF071CF49E01261B370B1216EE
:101BC00013064CF5FA0157FD3796A3E0F595E79516
:101BD000AA95E1F7EC9FD001ED9FB00DFC9FB00DF1
:101BE00011246A0F7B1FDC015F96ED91FC91E60FDB
:101BF000F71F4770552781E090E001C0880F4A9594
:101C0000EAF7482F0130110559F0A8F02E0F3F1FB9
:101C100002301105E1F0DF91CF911F910F910895EE
:101C20002E0F3F1FE217F307B1F38191DF011197E8
:101C3000842B8C93F7CF80952E0F3F1FE217F3076D
:101C400051F39191DF01119798239C93F7CFE217FD
:101C5000F30709F38191DF01119784278C93F7CF64
:101C60000F931F93FA01DC0156964C915697423020
:101C7000E9F04330A1F1413061F514964D915C914A
:101C8000DA01AE1BBF0BFD01E21BF30B77FD0BC0AE
:101C9000DC0116964D915C916417750724F4AB0135
:101CA000BF010E94C80D1F910F91089514964D9188
:101CB0005C91DA01A61BB70BBD0161507109DC0113
:101CC00016964D915C91DA01AE1BBF0BFD01E21B34
:101CD000F30B77FDE8CFAF010E94190DE4CF169604
:101CE0004D915C91DA01A61BB70BBD0161507109E2
:101CF000CDCF0F931F93FA01DC0156964C91569766
:101D00004230A9F0433091F1413019F514964D91CC
:101D10005C91DA01AE1BBF0BFD013197F7FD04C0EA
:101D2000AB01BF010E94190D1F910F9108951496E8
:101D30004D915C91DA01A61BB70BBD01DC01169633
:101D40004D915C91DA01AE1BBF0BFD013197621B17
:101D5000730BF7FDE9CFDC0116964D915C91E4170A
:101D6000F50714F7AF010E94C80DDECF16964D910E
:101D70005C91DA01A61BB70BBD01621B730BCECFC2
:101D8000FC0177FD64C080859185681779070CF0A8
:101D90005EC057FD5CC082859385481759070CF0DB
:101DA00056C086898230B1F0833029F1813041F408
:101DB00084819581841B950BAB01BC016150710935
:101DC0002130310509F108F443C02230310509F40E
:101DD00063C0089584819581DC01A61BB70BBD010A
:101DE0006150710986819781DC01A41BB50BAD019F
:101DF00041505109E5CF86819781861B970BBA0127
:101E0000AC0141505109DCCFCA0157FD0796A3E050
:101E100095958795AA95E1F7A481B5818A9F900150
:101E20008B9F300D9A9F300D1124620F731F078C0A
:101E3000F0A1E02DE60FF71F4770552721E030E0B5
:101E400001C0220F4A95EAF78081822B8083089592
:101E5000CA0157FD079633E0959587953A95E1F7C6
:101E6000A481B5818A9F90018B9F300D9A9F300D80
:101E70001124620F731F078CF0A1E02DE60FF71FEE
:101E80004770552781E090E001C0880F4A95EAF736
:101E9000809590818923DACFCA0157FD079623E008
:101EA000959587952A95E1F7A481B5818A9F900140
:101EB0008B9F300D9A9F300D1124620F731F078C7A
:101EC000F0A1E02DE60FF71F4770552721E030E025
:101ED00001C0220F4A95EAF780818227B7CF089583
:101EE0008EBD00000DB407FEFDCF8EB508958CBDEC
:101EF0009DBD0895089520914203260F3327331F77
:101F000021323105ECF420916603FC0190E080E081
:101F1000243069F082E00895A09142032191AC0140
:101F20004E5D5C4FA40FB52FB11D2C930196861703
:101F300098F380914203680F6093420380E0089514
:101F400081E008951092660381E080936803109207
:101F5000670361E082E10E94B80661E083E10E94CC
:101F6000B806E9EBF0E080818E7F808380818D7FF1
:101F7000808388E48093B80085E48093BC00089552
:101F8000CF93DF9391E0909321038823B9F0C09120
:101F9000B800D091BA008091BC008A7B8093BC00CD
:101FA00060E082E10E94B80660E083E10E94B8062A
:101FB0000E94A20FD093BA00C093B800DF91CF91D6
:101FC0000895E091A5038091A403E81730F4F0E0B0
:101FD000E450FD4F808190E008958FEF9FEF0895CA
:101FE0009091A5038091A4032FEF3FEF981748F439
:101FF000E92FF0E0E450FD4F208130E09F5F9093A7
:10200000A503C90108958091A4039091A503891B9C
:10201000990B0895CF92DF92EF92FF920F931F9347
:10202000CF93DF937C01CB018A012091C10322234E
:1020300089F0EB016B01C40ED51ECC15DD0569F0EE
:102040006991D701ED91FC910190F081E02DC701DC
:102050000995F3CF642F0E947B0FC801DF91CF91C8
:102060001F910F91FF90EF90DF90CF900895CF9345
:10207000DF931F92CDB7DEB769832091C10322237E
:10208000F9F02091BE03203258F021E030E0FC014D
:102090003383228390E080E00F90DF91CF91089509
:1020A0008091BF03E82FF0E0E452FD4F99819083C7
:1020B0008F5F8093BF038093BE0381E090E0ECCFFD
:1020C00061E0CE0101960E947B0FF7CFCF92DF92A5
:1020D000EF92FF920F931F93CF93DF93D091BE03A4
:1020E00081E0D13208F09CC0C091C0030E94220759
:1020F0006B017C018091660381116CC082E080934A
:10210000660381E0809368038FEF809365031092EC
:102110008A03D0938903ACEDB2E0E9E6F3E080E016
:10212000D8138DC010928B0380918B03CC0FC82BDA
:10213000C0938B0380916703813009F084C01092B3
:1021400067030E9422076B017C0180918B038093BF
:10215000BB0080911D0390911E03A0911F03B091BD
:102160002003892B8A2B8B2BA1F00E942207009140
:102170001D0310911E0320911F03309120036C1941
:102180007D098E099F09061717072807390708F4E4
:1021900042C08091BC0083FDD8CF85EC8093BC0009
:1021A0000E9422076B017C0180916603823009F452
:1021B0004CC0809165038F3F09F469C0809165032D
:1021C000803209F466C080916503803309F463C0EE
:1021D00084E026C080911D0390911E03A0911F03EF
:1021E000B0912003892B8A2B8B2B09F483CF0E947B
:1021F000220700911D0310911E0320911F033091AF
:1022000020036C197D098E099F09061717072807F7
:10221000390708F06FCF80911C030E94C00F85E042
:102220001092BF031092BE031092C103DF91CF91B1
:102230001F910F91FF90EF90DF90CF9008959D91A7
:1022400091938F5F6DCF85EEA9CF80911D03909103
:102250001E03A0911F03B0912003892B8A2B8B2B87
:1022600009F4A2CF0E94220700911D0310911E03C2
:1022700020911F03309120036C197D098E099F095D
:10228000061717072807390708F08ECFC4CF80E05C
:10229000C7CF82E0C5CF83E0C3CFEF92FF920F9309
:1022A0001F93CF93DF937C01C62F8091CE04909132
:1022B000CF04009709F459C02091D20431E0309343
:1022C000C1032093C0031092BF031092BE03DC0130
:1022D000ED91FC910190F081E02D60E0099587017E
:1022E000EE24E394F12CD1E0C1508091CE04909182
:1022F000CF04CF3F91F1B0E2EB16F104D8F00E9489
:1023000066108091CE049091CF042091D204D09396
:10231000C1032093C0031092BF031092BE03DC01DF
:10232000ED91FC910190F081E02D60E00995EE24A3
:10233000E394F12C8091CE049091CF04F801649144
:10234000DC01ED91FC910190F081E02D0995BFEF4A
:10235000EB1AFB0A0F5F1F4FC7CFDF91CF911F9181
:102360000F91FF90EF900C946610E091DE04F091D5
:10237000DF0490818091E404809589238083870124
:10238000C15008F438C0F80184912091CC043091F8
:10239000CD04232B29F00E94700F0F5F1F4FF0CF49
:1023A00028E030E040E8E091DA04F091DB0490911D
:1023B000E204582F5423D9F05081952B9083E0915B
:1023C000DC04F091DD0490815091E304952B90831F
:1023D000E091DC04F091DD0450819091E30490954C
:1023E00095239083469521503109E9F6D6CF508147
:1023F00090959523E3CFDF91CF911F910F91FF909F
:10240000EF9008951F93CF93DF93EC018D8D9E8DF8
:10241000009721F1162F29A131E03093C1032093B9
:10242000C0031092BF031092BE03DC01ED91FC913A
:102430000190F081E02D60E009958D8D9E8DDC018D
:10244000ED91FC910190F081E02D612F09958D8D2A
:102450009E8DDF91CF911F910C946610ADA5BEA506
:102460009C918BA9809589238C938B8D9C8D892B36
:1024700031F0862FDF91CF911F910C94700F28E0DF
:1024800030E080E8A9A5BAA599A9462F4823C1F054
:102490004C91942B9C93ABA5BCA59C914AA9942BE1
:1024A0009C93ABA5BCA54C919AA9909594239C9321
:1024B00086952150310931F7DF91CF911F91089511
:1024C0004C9190959423E6CF1F93CF93DF93EC012B
:1024D000162F8D8D9E8D892BB1F12DA93EA94FA967
:1024E00058AD60E074E284EF90E00E944B1F2051F1
:1024F00031094109510956954795379527952093FC
:10250000B80066EA111167EACE010E9402128D8DB1
:102510009E8D892B41F129AD3AAD4BAD5CAD60E0AC
:1025200074E284EF90E00E944B1F20513109410971
:10253000510956954795379527952093B800DF9117
:10254000CF911F9108958B8D9C8D892B21F08EAD9D
:102550009FAD0E94770FEFA5F8A990818CA9809577
:1025600089238083CECFEFA5F8A980819CA9892BF0
:102570008083E5CF5091990340919803852F90E097
:10258000242F30E0541718F0821B930B0895805BC2
:102590009F4FFACF80919903E09198038E1751F0E5
:1025A000EF5FE03508F0E0E0F0E0E457FD4F8081B8
:1025B00090E008958FEF9FEF089580919903909197
:1025C0009803891769F09F5F903508F090E0E92F34
:1025D000F0E0E457FD4F80819093980390E00895D8
:1025E0008FEF9FEF0895909196039F5F943408F0CA
:1025F00090E0209195032917E1F32FB7F8943091DB
:102600009703332349F0E92FF0E0EE5BFD4F808321
:10261000909396032FBF089591E090939703809332
:1026200087021092860282E086BB80916F008260F2
:1026300080936F00809180008F7B80688093800002
:1026400080918400909185004096909389008093BA
:102650008800E0CF809197038111FCCF0895862FE9
:102660000E94F31281E090E0089590E080E00895E8
:102670002091B7043091B804C901079697FD0796D9
:1026800023E0959587952A95E1F72091B50430913F
:10269000B604829FA001839F500D929F500D11247C
:1026A00070E060E08091D0049091D1040C949D2062
:1026B000FB0101900020E9F73197AF01461B570B52
:1026C0000C9456058F929F92AF92BF92EF92FF9219
:1026D0000F931F93CF93DF93CDB7DEB7A1970FB6BC
:1026E000F894DEBF0FBECDBF7C01FA01CB0119A269
:1026F000223008F42AE08E010F5D1F4F822E912CAC
:10270000B12CA12CBF01A50194010E944B1FF9011E
:10271000CA016A300CF5605DD8016E938D01232BE0
:10272000242B252B79F790E080E0109721F0BD0154
:10273000C7010E945813A1960FB6F894DEBF0FBED2
:10274000CDBFDF91CF911F910F91FF90EF90BF9080
:10275000AF909F908F900895695CDECF0F931F9389
:10276000CF93DF93EC010E9458138C016EE671E069
:10277000CE010E945813800F911FDF91CF911F91BE
:102780000F9108950C9458131F93CF93DF9300D0AB
:1027900000D0CDB7DEB782EC93E00E94950582ECC5
:1027A00093E00E94950510E08A3379F0E1E0F0E0D3
:1027B000EC0FFD1FE10FF11D17FDFA9580831F5FE0
:1027C00082EC93E00E949505EFCFCE0101960E9426
:1027D000251F182F82EC93E00E9495058053990BDA
:1027E0008230910520F4682F812F0E94B80682EC78
:1027F00093E00E9495058A3011F08D30C1F782EC8C
:1028000093E00E94A9058A3021F482EC93E00E94B3
:1028100095050F900F900F900F90DF91CF911F9122
:1028200008950E94982085ED8093BC0080911D033F
:1028300090911E03A0911F03B09120030796A11D44
:10284000B11D23E0B695A795979587952A95D1F761
:102850002091BC0024FD03C01092660308954091AE
:102860001D0350911E0360911F0370912003452B9F
:10287000462B472B69F30097A105B10541F025E3ED
:102880002A95F1F700000197A109B109E1CF8091E4
:102890001C030C94C00F1F920F920FB60F921124BD
:1028A0002F933F934F935F936F937F938F939F9358
:1028B000AF93BF93EF93FF9382EC93E00E94D70511
:1028C000FF91EF91BF91AF919F918F917F916F9108
:1028D0005F914F913F912F910F900FBE0F901F90DE
:1028E00018951F920F920FB60F9211242F938F936A
:1028F0009F93EF93FF93E091D203F091D3038081F4
:10290000E091D803F091D90382FD1BC090818091A2
:10291000DB038F5F8F732091DC03821741F0E0911E
:10292000DB03F0E0EE53FC4F958F8093DB03FF91C8
:10293000EF919F918F912F910F900FBE0F901F904D
:1029400018958081F4CF1F920F920FB60F92112429
:102950002F933F938F939F93AF93BF9380918D035A
:1029600090918E03A0918F03B091900330918C03CE
:1029700023E0230F2D3758F50196A11DB11D20939B
:102980008C0380938D0390938E03A0938F03B09359
:1029900090038091910390919203A0919303B09141
:1029A00094030196A11DB11D80939103909392030E
:1029B000A0939303B0939403BF91AF919F918F9194
:1029C0003F912F910F900FBE0F901F90189526E802
:1029D000230F0296A11DB11DD2CF1F920F920FB6E9
:1029E0000F9211242F933F934F935F936F937F9395
:1029F0008F939F93AF93BF93EF93FF938091B90011
:102A0000887F803609F44AC0F0F5883209F4A7C0FF
:102A100018F5803109F49BC0B8F4882309F4F9C093
:102A2000883009F494C0FF91EF91BF91AF919F91CD
:102A30008F917F916F915F914F913F912F910F9067
:102A40000FBE0F901F901895883109F488C080320E
:102A500051F78093650314C0803409F49DC040F49D
:102A60008033B9F38833F9F68093650385ECB0C001
:102A7000803509F485C0883509F496C0883499F604
:102A80000E941314D0CF883909F48CC038F58837E8
:102A900029F050F4883611F0803729F683E08093CE
:102AA00066031092640357C0883809F47BC08039EC
:102AB00019F0803809F0B7CF80916403803208F0B4
:102AC00071C0E091640381E08E0F80936403809174
:102AD000BB00F0E0EC5BFC4F80833DC0803B39F0F5
:102AE000E0F4803A09F479C0883A09F09CCF84E098
:102AF000809366031092430310924203E091A20375
:102B0000F091A30309958091420381110FC081E0E8
:102B1000809342031092220309C0803C09F4A6CF9F
:102B2000883C09F4A3CF883B09F07DCFE0914303B3
:102B300081E08E0F80934303F0E0EE5DFC4F8081D7
:102B40008093BB00909143038091420329C0809100
:102B50008B038093BB0085EC8093BC0064CF909185
:102B60008A0380918903981758F5E0918A0381E0E0
:102B70008E0F80938A03F0E0E759FC4F8081E9CF04
:102B8000E0918A0381E08E0F80938A038091BB00DD
:102B9000F0E0E759FC4F808390918A03809189038C
:102BA0009817C8F285E8D8CFE0918A0381E08E0FAC
:102BB00080938A038091BB00F0E0E759FC4F80834B
:102BC0008091680381115CCF81E08093670384EA80
:102BD0008093BC001092660326CF85EC8093BC00E6
:102BE0001092660380916403803230F4E0916403B4
:102BF000F0E0EC5BFC4F10826091640370E0E091C8
:102C0000A003F091A10384E493E00995109264037A
:102C10000ACF1092650334CF1F920F920FB60F9216
:102C200011242F938F939F93EF93FF9380916F00C5
:102C30008B7F80936F00809181008F7B80938100D8
:102C400080919A0320918B02205890918A028930BA
:102C500020F49695922B8F5FFACF90938A02809101
:102C600099038F5F803508F080E020919803281742
:102C700039F0E82FF0E0E457FD4F908380939903FB
:102C800010929A03809181008F7B80938100109233
:102C90008B02FF91EF919F918F912F910F900FBE1B
:102CA0000F901F9018951F920F920FB60F9211243C
:102CB0002F933F934F935F936F937F938F939F9344
:102CC000AF93BF93EF93FF9380918600909187001D
:102CD00040918B02209181004423F1F12F7B2093BE
:102CE000810010928B0230919A0331113CC0411146
:102CF00022C020919B0330919C03280F391F3093F1
:102D00008B0020938A0024E026BB20916F00246072
:102D100020936F0020919D0330919E03820F931F9B
:102D200036952795280F391F309389022093880202
:102D300081E080939A03FF91EF91BF91AF919F91B2
:102D40008F917F916F915F914F913F912F910F9054
:102D50000FBE0F901F90189520642093810020E8EB
:102D600020938B02C0CF40918802509189026091DC
:102D70009D0370919E03DB01A095B095E0918B02BD
:102D800020918A02841B950BA817B90768F1269534
:102D90002E2B460F571F3F5F861B970B3930A0F332
:102DA00020938A0280916F008B7F80936F008091C7
:102DB00099038F5F803508F080E090919803981711
:102DC00049F0E82FF0E090918A02E457FD4F90839C
:102DD00080939903809181008F7B80938100109272
:102DE0008B0210929A03A7CF20938A0250938902F4
:102DF0004093880230939A039ECF1F920F920FB692
:102E00000F9211242F933F934F935F936F937F9370
:102E10008F939F93EF93FF93209197036091870285
:102E2000809188009091890040919D0350919E036C
:102E3000309186022A3070F5840F951F762F7170BD
:102E4000293009F471E066952F5F371799F33091B7
:102E500080007723E1F0306C3093800090938900FC
:102E60008093880070938602609387022093970373
:102E7000FF91EF919F918F917F916F915F914F9112
:102E80003F912F910F900FBE0F901F9018953F7B91
:102E90003068E2CF30919603E09195033E1319C05C
:102EA0002A3051F42BE020939703840F951F9093C1
:102EB000890080938800DCCF109297038091800076
:102EC0008F738093800080916F008D7F80936F005F
:102ED000CFCFEF5FE43408F0E0E0E0939503F0E05B
:102EE000EE5BFD4F30813093870210928602309165
:102EF00080003F7B3068309380002A3071F420914D
:102F00009D0330919E03820F931F909389008093BD
:102F1000880081E080939703ABCF809184009091EB
:102F200085004096F2CFE2ECF3E01382128248EE85
:102F300053E060E070E0448355836683778380E1EB
:102F400091E09183808385EC90E09587848784EC81
:102F500090E09787868780EC90E0918B808B81EC66
:102F600090E0938B828B82EC90E0958B848B86EC47
:102F700090E0978B868B118E128E138E148EA5EA9D
:102F8000B4E013961C921E92129714964D935D9383
:102F90006D937C93179782E291E011969C938E93A8
:102FA000EFE5F4E0168217821086118612861386EA
:102FB0001486158616861786108A118A128A138A35
:102FC000148A158AE1EFF4E0138212824483558358
:102FD0006683778380E691E091838083E1EBF4E080
:102FE0001382128220E830E03583248380E490E06D
:102FF000978386833187208793878287168A1586F1
:1030000014861786168681E0858B848B2FEF3FEF21
:10301000338B228B318B208B878B108E128E118EEF
:1030200084E391E091838083148E138EB68FA58FF5
:1030300010A2178E8FEF84A385A386A387A384E0B5
:1030400080A780E89AE1A6E0B0E085AB96ABA7AB9D
:10305000B0AF80EA96E8A1E0B0E081AF92AFA3AF55
:10306000B4AF80E586AF17AE0895789484B58260DA
:1030700084BD84B5816084BD85B5826085BD85B51C
:10308000816085BD80916E00816080936E0010929A
:103090008100809181008260809381008091810015
:1030A00081608093810080918000816080938000A6
:1030B0008091B10084608093B1008091B000816004
:1030C0008093B00080917A00846080937A00809130
:1030D0007A00826080937A0080917A008160809388
:1030E0007A0080917A00806880937A001092C10003
:1030F0001092A1041092A2041092A3041092A404AE
:10310000109261041092620410926304109264049D
:103110000E9479076B017C014B015C0128EB820E58
:103120002BE0921EA11CB11C0E9479076C157D0535
:103130008E059F0528F086169706A806B906A0F703
:1031400068EE73E080E090E00E9447070E942E0541
:103150000E94790760936104709362048093630412
:103160009093640461E771E082EC93E00E94C213E3
:103170000E9479076B017C014B015C013AE0830EF0
:10318000911CA11CB11C0E9479076C157D058E0550
:103190009F0528F086169706A806B906A0F781E0D5
:1031A000809375040E9479076093610470936204B0
:1031B000809363049093640462E871E082EC93E08E
:1031C0000E94C21360E083E00E94E60660E085E0B2
:1031D0000E94E60661E082E00E94E60661E084E08B
:1031E0000E94E60661E08DE00E94E60660E08EE067
:1031F0000E94E60660E08FE00E94E6066091000112
:1032000082E00E94B8066091020184E00E94B80644
:1032100083E00E948F069093AF038093AE0385E016
:103220000E948F069093B9038093B8030E942E05E5
:1032300069E871E082EC93E00E94C21364E971E0F6
:1032400082EC93E00E94AE1369EF71E082EC93E0B0
:103250000E94C21364E072E082EC93E00E94AE131D
:1032600062E971E082EC93E00E94AE1310926F006D
:103270001092800081E88093810083E896E090932B
:103280009E0380939D038BE39CE390939C03809328
:103290009B0362E088E00E94E60661E089E00E940C
:1032A000B80661E089E00E94E60610929A03109247
:1032B000990310929803109297031092960310921C
:1032C000950380E286BB80936F0060E172E082EC40
:1032D00093E00E94AE138091D0049091D104892B89
:1032E00009F4BDC10E9438138091B7049091B804CD
:1032F000819774F1F12CE12CD12C10E000E0D0E0AA
:10330000C0E0CE0187709927DD0C892B59F4FE01AE
:1033100083E0F595E7958A95E1F7EE0DFF1DEC51F9
:10332000FA4FD490D7FE08C021E030E0A801BE01DA
:1033300081EB94E00E94650C2196C038D10509F715
:103340000F5F1F4F50E1E50EF11C00341105B9F677
:1033500082E08093D3048091CE049091CF04892B96
:1033600009F4B3C18CE38093D2041092A5031092A8
:10337000A4031092BF031092BE030E94A20F84E820
:1033800095E09093A3038093A20385E895E0909342
:10339000A1038093A0038091D90487FD1EC061E042
:1033A0000E94E60661E08091D9040E94B80661E0BF
:1033B00070E080E090E00E94470760E08091D904CF
:1033C0000E94B8066AE070E080E090E00E94470743
:1033D00061E08091D9040E94B8068091CE0490915A
:1033E000CF04892B09F430C22091E6043091E70420
:1033F0004091E8045091E90460E074E284EF90E0C9
:103400000E944B1F2051310941095109569547959A
:10341000379527952093B80064E08EEA95E00E94E6
:103420004D116091B704615081EB94E00E9402124B
:1034300064E08AEA95E00E944D118091D30460E136
:10344000813009F064E181EB94E00E94021264E0B3
:1034500086EA95E00E944D118FE88093EE048091FA
:10346000B5049091B6048038910509F006C28091A8
:10347000B7049091B8048034910509F00EC2809190
:10348000D304813009F0F7C18FE98093EE04C2E1E3
:103490006AED81EB94E00E9402126C2F81EB94E0C4
:1034A0000E94021261E881EB94E00E940212609196
:1034B000EE0481EB94E00E94021269ED81EB94E04E
:1034C0000E9402128091D30462E2813009F061EF20
:1034D00081EB94E00E94021266E080EA95E00E948F
:1034E0004D118091CE049091CF04892B09F4D9C15C
:1034F0002091EA043091EB044091EC045091ED04EA
:1035000060E074E284EF90E00E944B1F205131098B
:103510004109510956954795379527952093B8004D
:103520008091CE049091CF04892B09F4C4C12091DD
:10353000E6043091E7044091E8045091E90460E02A
:1035400074E284EF90E00E944B1F20513109410941
:10355000510956954795379527952093B80065E012
:1035600084EE99E00E944D116091B504615081EBA9
:1035700094E00E9402122091B7043091B804C9016E
:10358000079697FD079643E0959587954A95E1F74D
:103590002091B5043091B604829F8001839F100D65
:1035A000929F100D1124C091D004D091D10480912C
:1035B000CE049091CF040C0F1D1F009709F4D4C2C4
:1035C0002091D20431E03093C1032093C0031092C4
:1035D000BF031092BE03DC01ED91FC910190F081DC
:1035E000E02D60E40995EE24E394F12CDD24D394DE
:1035F0008091CE049091CF040C171D0709F472C17D
:10360000B0E2EB16F104D8F00E9466108091CE046F
:103610009091CF042091D204D092C1032093C00393
:103620001092BF031092BE03DC01ED91FC9101905A
:10363000F081E02D60E40995EE24E394F12C809173
:10364000CE049091CF046991DC01ED91FC91019041
:10365000F081E02D0995BFEFEB1AFB0AC9CF20914D
:10366000B7043091B804C901079697FD079623E087
:10367000959587952A95E1F72091B5043091B60488
:10368000AC01429FC001439F900D529F900D1124A9
:103690000E94731F9093D1048093D004892B09F06A
:1036A00021CEC9EED9E0FE016491662339F082ECA7
:1036B00093E00E94F9052196892BA9F76EE671E047
:1036C00082EC93E00E945813FFCF61E08091D70411
:1036D0000E94E60661E08091D8040E94E60680918F
:1036E000D704082E000C990BFC01E053FA4FE4912B
:1036F000F0E0EE0FFF1FEA53FA4F2591349130931B
:10370000DF042093DE04FC01EE54FA4FE491E093D1
:10371000E4048091D804082E000C990BFC01E053BE
:10372000FA4FE491F0E0EE0FFF1FEA53FA4FA59134
:10373000B491B093E104A093E004FC01EE54FA4F7D
:10374000E491E093E5048C91E82BEC938091CC0418
:103750009091CD04892B09F434C0CFB7F8948091AF
:103760009F03811127C0EAEDF5E08491ECEBF5E0D1
:103770009491E82FF0E0EE0FFF1FEA56FA4FA59163
:10378000B491EC91E92321F461E08AE00E94B8064B
:1037900061E08AE00E94E6068CB580618CBD8CB544
:1037A00080648CBD61E08DE00E94E60661E08BE004
:1037B0000E94E60680919F038F5F80939F03CFBF97
:1037C000EACD61E08091D5040E94E60661E0809137
:1037D000D6040E94E6068091D504082E000C990BB1
:1037E000FC01E053FA4FE491F0E0EE0FFF1FEA53C3
:1037F000FA4F259134913093DB042093DA04FC01D5
:10380000EE54FA4FE491E093E2048091D604082E3E
:10381000000C990BFC01E053FA4FE491F0E0EE0F3D
:10382000FF1FEA53FA4FA591B491B093DD04A09322
:10383000DC04FC01EE54FA4FE491E093E3048C9134
:10384000E095E823EC93A7CD8091CC049091CD0432
:10385000892B31F08091EF049091F0040E94770F52
:10386000E091E004F091E10490818091E50480957D
:1038700089238083D1CD8FEC08CE8036910569F401
:103880008091B7049091B804409739F48091D304A3
:10389000813029F480E18093EE04C2E0F9CD8FEA13
:1038A000FACFE091E004F091E10480819091E50489
:1038B000892B808335CE8091CC049091CD04892BC7
:1038C00031F08091EF049091F0040E94770FE09125
:1038D000E004F091E10490818091E50480958923D2
:1038E00080833DCE0E9466108091CE049091CF04DB
:1038F000892B09F47BC12091EA043091EB044091BB
:10390000EC045091ED0460E074E284EF90E00E94DA
:103910004B1F20513109410951095695479537955B
:1039200027952093B80060EA7FE080E090E00E9455
:1039300047070E94381368EE73E080E090E00E9431
:10394000470700E010E084EF882E99249394A12C7F
:10395000B12C332433940E947907672B682B692B91
:1039600009F44EC10E947907C090BA03D090BB03FE
:10397000E090BC03F090BD036C157D058E059F059E
:1039800008F42EC2C090BA03D090BB03E090BC03F1
:10399000F090BD039B01AC012C193D094E095F0954
:1039A00069017A013AEFC316D104E104F10408F485
:1039B0002FC16093BA037093BB038093BC039093B1
:1039C000BD0380926D0490926E04A0926F04B09239
:1039D0007004109271041092720410927304109289
:1039E00074048091650490916604A0916704B0917D
:1039F00068048093690490936A04A0936B04B09365
:103A00006C040E9479076093650470936604809348
:103A100067049093680482EC93E00E94A9058436C1
:103A200011F40E94C4130E9479076093610470939B
:103A3000620480936304909364040E9479076B018D
:103A40007C0169E272E082EC93E00E94C2132AE0FA
:103A500041E050E060E070E082EC93E00E9462138D
:103A600060E372E082EC93E00E94C2132AE0B701A7
:103A7000A60182EC93E00E94621362E372E082ECA2
:103A800093E00E94C2138091650490916604A09116
:103A90006704B0916804B701A601481B590B6A0B73
:103AA0007B0B2AE082EC93E00E94621362E372E0F7
:103AB00082EC93E00E94C213409165045091660429
:103AC00060916704709168048091690490916A0420
:103AD000A0916B04B0916C04481B590B6A0B7B0BD3
:103AE0002AE082EC93E00E94621364E372E082ECCD
:103AF00093E00E94C2130E947907AB01BC012AE047
:103B000082EC93E00E94621366E372E082EC93E041
:103B10000E94AE130E9479072B013C017C016B01CE
:103B200045E0C40ED11CE11CF11C0E94790764150C
:103B300075058605970528F0C616D706E806F90626
:103B4000A0F782EC93E00E94A905843611F40E944C
:103B5000C4130E9479076093650470936604809390
:103B600067049093680454C0E091DE04F091DF0490
:103B700080819091E404892B8083C017D10709F4D8
:103B8000B3CE89912091CC043091CD04232B19F030
:103B90000E94700FF2CF28E030E040E8E091DA04B4
:103BA000F091DB049091E204582F5423D9F0508116
:103BB000952B9083E091DC04F091DD04908150918D
:103BC000E304952B9083E091DC04F091DD045081B7
:103BD0009091E30490959523908346952150310967
:103BE000E9F6CBCF508190959523E3CFE091E004A7
:103BF000F091E10480819091E504892B808393CE3C
:103C00000E947907623071058105910508F0AACEFE
:103C100083E00E948F06EC019093AF038093AE0384
:103C20008091AC039091AD03C817D90751F00E9461
:103C300079076093A8037093A9038093AA039093D4
:103C4000AB030E947907C090A803D090A903E0902D
:103C5000AA03F090AB036C197D098E099F096333A9
:103C6000710581059105E0F08091A6039091A7036D
:103C7000C817D907A9F02091000130910101D09314
:103C8000A703C093A603C130D10551F481E090E0B1
:103C9000232B11F090E080E09093010180930001CC
:103CA0006091000182E00E94B806D093AD03C093FA
:103CB000AC0385E00E948F06EC019093B9038093DA
:103CC000B8038091B6039091B703C817D90751F094
:103CD0000E9479076093B2037093B3038093B40397
:103CE0009093B5030E947907C090B203D090B303BC
:103CF000E090B403F090B5036C197D098E099F091B
:103D00006333710581059105E0F08091B0039091D6
:103D1000B103C817D907A9F020910201309103011E
:103D2000D093B103C093B003C130D10551F481E009
:103D300090E0232B11F090E080E0909303018093BA
:103D400002016091020184E00E94B806D093B7039B
:103D5000C093B60381EF94E00E94BA12892B59F008
:103D600081EF94E00E94DD1280930501682F82ECC0
:103D700093E00E94F90582EC93E00E94B705892B3D
:103D800019F182EC93E00E949505809305018A3039
:103D900021F08D3011F00E94F312809104018823EC
:103DA00041F06DE372E082EC93E00E94C213109246
:103DB0000401C09105016C2F82EC93E00E94F9058B
:103DC000CA3011F4309204010115110509F4C3CD74
:103DD0000E94C305882309F4BECD0E940000BBCD1C
:103DE0006093BA037093BB038093BC039093BD03AD
:103DF000C9CD84E391E09093B2048093B1048091A3
:103E0000D0049091D104009711F00E940F2080E619
:103E100091E09093F2048093F10480916F008B7F86
:103E200080936F0080916F008F7D80936F008091F1
:103E3000980380939903809197038111FCCF80911F
:103E40006F008D7F80936F000895FC01882799276C
:103E5000E89421912032E9F3293010F02E30C8F394
:103E60002B3241F02D3239F4689404C00E94431F74
:103E7000820F911D219120532A30C0F31EF490959A
:103E800081959F4F08957AE0979F902D879F802D71
:103E9000910D11240895A1E21A2EAA1BBB1BFD014E
:103EA0000DC0AA1FBB1FEE1FFF1FA217B307E40719
:103EB000F50720F0A21BB30BE40BF50B661F771F71
:103EC000881F991F1A9469F7609570958095909551
:103ED0009B01AC01BD01CF010895EE0FFF1F0590BE
:103EE000F491E02D09940F931F93CF93DF938230C9
:103EF000910510F482E090E0E091FF04F09100055C
:103F000030E020E0B0E0A0E0309799F421153105D1
:103F100009F44AC0281B390B24303105D8F58A81B1
:103F20009B816115710589F1FB0193838283FE01F9
:103F300011C0408151810281138148175907E0F077
:103F40004817590799F4109761F012960C9312973D
:103F500013961C933296CF01DF91CF911F910F9151
:103F600008950093FF0410930005F4CF2115310547
:103F700051F04217530738F0A901DB019A01BD0146
:103F8000DF01F801C1CFEF01F9CF909300058093D5
:103F9000FF04CDCFFE01E20FF31F819391932250D6
:103FA000310939832883D7CF2091FD043091FE0455
:103FB000232B41F420910801309109013093FE0434
:103FC0002093FD0420910601309107012115310550
:103FD00041F42DB73EB740910A0150910B01241BCB
:103FE000350BE091FD04F091FE04E217F307A0F415
:103FF0002E1B3F0B2817390778F0AC014E5F5F4F3F
:104000002417350748F04E0F5F1F5093FE0440936E
:10401000FD04819391939FCFF0E0E0E09CCFCF939C
:10402000DF930097E9F0FC01329713821282A0918E
:10403000FF04B0910005ED0130E020E01097A1F4FD
:1040400020813181820F931F2091FD043091FE0465
:104050002817390709F061C0F093FE04E093FD04CE
:10406000DF91CF910895EA01CE17DF07E8F54A8185
:104070005B819E0141155105B1F7E901FB83EA839C
:1040800049915991C40FD51FEC17FD0761F4808148
:1040900091810296840F951FE9019983888382811B
:1040A00093819B838A83F0E0E0E012968D919C914E
:1040B00013970097B9F52D913C911197CD01029678
:1040C000820F931F2091FD043091FE0428173907B9
:1040D00039F6309751F5109200051092FF04B09315
:1040E000FE04A093FD04BCCFD383C28340815181E1
:1040F000840F951FC817D90761F44E5F5F4F888101
:104100009981480F591F518340838A819B819383F2
:1041100082832115310509F0B0CFF0930005E093BB
:10412000FF049ECFFD01DC01C0CF13821282D7CFE6
:1041300081E090E0F8940C94A420DC0101C06D9320
:1041400041505040E0F7089515E0C3E0D5E004C0C9
:10415000FE010E946D1F2196C430D107C9F7F89463
:02416000FFCF8F
:1041620001000100012000000105800000000000A4
:10417200F905560586054606B7059505A905000009
:10418200000037100A10351383050310F00FE10FFA
:1041920000000000C009560535137A0FC00E8305D2
:1041A200650C3D0C590C4D0C6C0C83058607641292
:1041B200300E790E860B690BF10A920A000000009C
:1041C2002F13560535132A13BA12DD12CA120D0A1D
:1041D20000564D4450565F317C315F564D44505627
:1041E2000A00564D4450525F00536B657463683A3F
:1041F20020202000453A5C526F626F746963735CE1
:104202004D756C7469706C6541726475696E6F533B
:104212006F6C7574696F6E735C4D756C7469417205
:10422200647569536F6C735C426C7565546F6F741F
:1042320068696E6F5F415C426C7565546F6F74683C
:10424200696E6F5F415C426C7565546F6F7468692B
:104252006E6F5F412E696E6F0055706C6F616465A1
:10426200643A200046656220203920323032310023
:10427200425473657269616C20737461727465640F
:10428200206174203936303000564D4450455F006D
:104292003A323A007C005F564D445045000D0A3ECA
:0242A20000001A
:107E0000112484B714BE81FFF0D085E080938100F7
:107E100082E08093C00088E18093C10086E0809377
:107E2000C20080E18093C4008EE0C9D0259A86E02C
:107E300020E33CEF91E0309385002093840096BBD3
:107E4000B09BFECF1D9AA8958150A9F7CC24DD24C4
:107E500088248394B5E0AB2EA1E19A2EF3E0BF2EE7
:107E6000A2D0813461F49FD0082FAFD0023811F036
:107E7000013811F484E001C083E08DD089C08234E0
:107E800011F484E103C0853419F485E0A6D080C0E4
:107E9000853579F488D0E82EFF2485D0082F10E0AE
:107EA000102F00270E291F29000F111F8ED06801E7
:107EB0006FC0863521F484E090D080E0DECF843638
:107EC00009F040C070D06FD0082F6DD080E0C81688
:107ED00080E7D80618F4F601B7BEE895C0E0D1E017
:107EE00062D089930C17E1F7F0E0CF16F0E7DF06D8
:107EF00018F0F601B7BEE89568D007B600FCFDCFD4
:107F0000A601A0E0B1E02C9130E011968C91119780
:107F100090E0982F8827822B932B1296FA010C0160
:107F200087BEE89511244E5F5F4FF1E0A038BF0790
:107F300051F7F601A7BEE89507B600FCFDCF97BE46
:107F4000E89526C08437B1F42ED02DD0F82E2BD052
:107F50003CD0F601EF2C8F010F5F1F4F84911BD097
:107F6000EA94F801C1F70894C11CD11CFA94CF0C13
:107F7000D11C0EC0853739F428D08EE10CD085E9AC
:107F80000AD08FE07ACF813511F488E018D01DD067
:107F900080E101D065CF982F8091C00085FFFCCF94
:107FA0009093C60008958091C00087FFFCCF809118
:107FB000C00084FD01C0A8958091C6000895E0E648
:107FC000F0E098E1908380830895EDDF803219F02E
:107FD00088E0F5DFFFCF84E1DECF1F93182FE3DFCA
:107FE0001150E9F7F2DF1F91089580E0E8DFEE27F6
:047FF000FF270994CA
:027FFE00040479
:0400000300007E007B
:00000001FF