:100000000C9462000C948A000C948A000C948A0070
:100010000C948A000C948A000C948A000C948A0038
:100020000C948A000C948A000C948A000C948A0028
:100030000C948A000C948A000C948A000C948A0018
:100040000C9471030C948A000C943F030C941903D4
:100050000C948A000C948A000C948A000C948A00F8
:100060000C948A000C948A000000000024002700F1
:100070002A0000000000250028002B0000000000DE
:1000800023002600290004040404040404040202DA
:100090000202020203030303030301020408102007
:1000A0004080010204081020010204081020000012
:1000B0000008000201000003040700000000000027
:1000C0000000BB0311241FBECFEFD8E0DEBFCDBFC1
:1000D00022E0A6E4B1E001C01D92AA34B207E1F724
:1000E00011E0A0E0B1E0E6E5FEE002C005900D926F
:1000F000A634B107D9F710E0C2E6D0E004C02197DA
:10010000FE010E942307C136D107C9F70E94FA03F6
:100110000C9429070C940000AF92BF92CF92DF920B
:10012000EF92FF920F931F93CF93DF936C017B01AC
:100130008B01040F151FEB015E01AE18BF08C0173D
:10014000D10759F06991D601ED91FC910190F081B0
:10015000E02DC6010995892B79F7C501DF91CF9173
:100160001F910F91FF90EF90DF90CF90BF90AF90D5
:100170000895FC01538D448D252F30E0842F90E0AD
:10018000821B930B541710F0CF9608950197089592
:10019000FC01918D828D981761F0A28DAE0FBF2F5B
:1001A000B11D5D968C91928D9F5F9F73928F90E0B1
:1001B00008958FEF9FEF0895FC01918D828D981720
:1001C00031F0828DE80FF11D858D90E008958FEF5D
:1001D0009FEF0895FC01918D228D892F90E0805C26
:1001E0009F4F821B91098F739927089587E691E0AD
:1001F0000E94EA0021E0892B09F420E0822F089573
:1002000080E090E0892B29F00E94F60081110C9487
:1002100000000895FC01A48DA80FB92FB11DA35AA9
:10022000BF4F2C91848D90E001968F739927848F16
:10023000A689B7892C93A089B1898C918370806439
:100240008C93938D848D981306C00288F389E02DDA
:1002500080818F7D80830895EF92FF920F931F938B
:10026000CF93DF93EC0181E0888F9B8D8C8D981369
:100270001AC0E889F989808185FF15C09FB7F89475
:10028000EE89FF896083E889F989808183708064C1
:1002900080839FBF81E090E0DF91CF911F910F910C
:1002A000FF90EF900895F62E0B8D10E00F5F1F4F1B
:1002B0000F731127E02E8C8D8E110CC00FB607FC2A
:1002C000FACFE889F989808185FFF5CFCE010E94B8
:1002D0000A01F1CFEB8DEC0FFD2FF11DE35AFF4F1B
:1002E000F0829FB7F8940B8FEA89FB898081806246
:1002F000CFCFCF93DF93EC01888D8823B9F0AA8903
:10030000BB89E889F9898C9185FD03C0808186FDD0
:100310000DC00FB607FCF7CF8C9185FFF2CF80811F
:1003200085FFEDCFCE010E940A01E9CFDF91CF9189
:100330000895833081F028F4813099F08230A9F05B
:1003400008958730A9F08830C9F08430B1F48091E5
:1003500080008F7D03C0809180008F778093800024
:10036000089584B58F7784BD089584B58F7DFBCFC4
:100370008091B0008F778093B00008958091B00095
:100380008F7DF9CFCF93DF93282F30E0F901E2552D
:10039000FF4F8491F901E656FF4FD491F901EA57D6
:1003A000FF4FC491CC23A1F081110E949901EC2F41
:1003B000F0E0EE0FFF1FE458FF4FA591B491EC91D0
:1003C000ED2381E090E009F480E0DF91CF91089582
:1003D00080E090E0FACF1F93CF93DF93282F30E097
:1003E000F901E255FF4F8491F901E656FF4FD49190
:1003F000F901EA57FF4FC491CC23A9F0162F8111C0
:100400000E949901EC2FF0E0EE0FFF1FEE58FF4F16
:10041000A591B4918FB7F894EC91111108C0D095C3
:10042000DE23DC938FBFDF91CF911F910895DE2BE8
:10043000F8CFCF93DF9390E0FC01E656FF4F249175
:100440008A579F4FFC0184918823D1F090E0880F58
:10045000991FFC01E859FF4FA591B491FC01EE589A
:10046000FF4FC591D49161110EC09FB7F8948C9144
:10047000E22FE0958E238C932881E223E8839FBFAF
:10048000DF91CF9108958FB7F894EC91E22BEC9324
:100490008FBFF6CF3FB7F89480914B0190914C01FC
:1004A000A0914D01B0914E0126B5A89B05C02F3FEC
:1004B00019F00196A11DB11D3FBFBA2FA92F982F8A
:1004C0008827BC01CD01620F711D811D911D42E085
:1004D000660F771F881F991F4A95D1F708952FB788
:1004E000F894609147017091480180914901909181
:1004F0004A012FBF0895FC0101900020E9F73197D0
:10050000AF01481B590BBC0187E691E00C948C00AD
:100510008F929F92AF92BF920F931F93CF93DF93CF
:10052000CDB7DEB7A1970FB6F894DEBF0FBECDBF33
:1005300019A2423008F44AE08E010F5D1F4F842E4D
:10054000912CB12CA12CA50194010E940107E62F4A
:10055000B901CA01EA30F4F4E05DD801EE938D01EF
:10056000232B242B252B79F790E080E0109719F0AE
:10057000CD010E947B02A1960FB6F894DEBF0FBE9C
:10058000CDBFDF91CF911F910F91BF90AF909F9002
:100590008F900895E95CE1CF1F93CF93DF9300D054
:1005A00000D0CDB7DEB787E691E00E94C80087E6AD
:1005B00091E00E94C80010E08A3379F0E1E0F0E0B9
:1005C000EC0FFD1FE10FF11D17FDFA9580831F5FF2
:1005D00087E691E00E94C800EFCFCE0101960E940D
:1005E000DB06182F87E691E00E94C8008053990B24
:1005F0008230910520F4682F812F0E94EB0187E65D
:1006000091E00E94C8008A3011F08D30C1F787E672
:1006100091E00E94DC008A3021F487E691E00E949C
:10062000C8000F900F900F900F90DF91CF911F9106
:1006300008951F920F920FB60F9211242F933F939C
:100640004F935F936F937F938F939F93AF93BF93DA
:10065000EF93FF9387E691E00E940A01FF91EF91EB
:10066000BF91AF919F918F917F916F915F914F91CA
:100670003F912F910F900FBE0F901F9018951F92D2
:100680000F920FB60F9211242F938F939F93EF9396
:10069000FF93E0917701F09178018081E0917D01F5
:1006A000F0917E0182FD1BC09081809180018F5F5F
:1006B0008F7320918101821741F0E0918001F0E079
:1006C000E959FE4F958F80938001FF91EF919F91A3
:1006D0008F912F910F900FBE0F901F9018958081D2
:1006E000F4CF1F920F920FB60F9211242F933F93C6
:1006F0008F939F93AF93BF9380914701909148014F
:10070000A0914901B0914A013091460123E0230FA5
:100710002D3758F50196A11DB11D209346018093F8
:10072000470190934801A0934901B0934A018091F9
:100730004B0190914C01A0914D01B0914E01019659
:10074000A11DB11D80934B0190934C01A0934D01CD
:10075000B0934E01BF91AF919F918F913F912F9197
:100760000F900FBE0F901F90189526E8230F02964A
:10077000A11DB11DD2CFE7E6F1E01382128288EE0F
:1007800093E0A0E0B0E084839583A683B78388E0FC
:1007900091E09183808385EC90E09587848784EC59
:1007A00090E09787868780EC90E0918B808B81EC3E
:1007B00090E0938B828B82EC90E0958B848B86EC1F
:1007C00090E0978B868B118E128E138E148EE4E040
:1007D000F2E016821782108611861286138614861E
:1007E000158616861786108A118A128A138A148A29
:1007F000158A0895789484B5826084BD84B581603B
:1008000084BD85B5826085BD85B5816085BD8091DB
:100810006E00816080936E00109281008091810053
:10082000826080938100809181008160809381004B
:10083000809180008160809380008091B10084600D
:100840008093B1008091B00081608093B00080916E
:100850007A00846080937A0080917A00826080932D
:100860007A0080917A00816080937A0080917A008A
:10087000806880937A001092C10010924602109214
:1008800047021092480210924902109206021092FA
:10089000070210920802109209020E946F026B0177
:1008A0007C014B015C0128EB820E2BE0921EA11C07
:1008B000B11C0E946F026C157D058E059F0528F006
:1008C00086169706A806B906A0F70E944A026B0191
:1008D0007C0198EE892E93E0992EA12CB12C0E94D8
:1008E0004A026C197D098E099F09683E7340810593
:1008F0009105A8F331E0831A9108A108B10848EEE8
:10090000C40E43E0D41EE11CF11C81149104A10427
:10091000B10429F7E0917701F091780182E08083BA
:10092000E0917301F09174011082E0917501F091F2
:10093000760180E1808310927F01E0917B01F0914C
:100940007C0186E08083E0917901F0917A018081D9
:1009500080618083E0917901F0917A0180818860E3
:100960008083E0917901F0917A01808180688083B1
:10097000E0917901F0917A0180818F7D80830E94DE
:100980006F026093060270930702809308029093AF
:10099000090286E191E00E947B020E946F026B01D6
:1009A0007C014B015C018AE0880E911CA11CB11CEA
:1009B0000E946F026C157D058E059F0528F0861636
:1009C0009706A806B906A0F781E080931A020E9454
:1009D0006F0260930602709307028093080290935F
:1009E000090287E291E00E947B0260E084E00E94BD
:1009F000190260E086E00E94190261E085E00E9431
:100A0000190261E087E00E9419026091000185E00F
:100A10000E94EB016091020187E00E94EB0184E0FB
:100A20000E94C201909358018093570186E00E9472
:100A3000C201909362018093610100E010E084EFB5
:100A4000882E99249394A12CB12C0E946F02672BBD
:100A5000682B692B09F4F0C00E946F02C0906301FB
:100A6000D0906401E0906501F09066016C157D0501
:100A70008E059F0508F496C1C0906301D090640173
:100A8000E0906501F09066019B01AC012C193D09D5
:100A90004E095F0969017A013AEFC316D104E104F6
:100AA000F10408F4D1C060936301709364018093F2
:100AB0006501909366018092120290921302A092B7
:100AC0001402B092150210921602109217021092A0
:100AD00018021092190280910A0290910B02A091C3
:100AE0000C02B0910D0280930E0290930F02A0931E
:100AF0001002B09311020E946F0260930A02709379
:100B00000B0280930C0290930D0287E691E00E9405
:100B1000DC00843611F40E94CC020E946F026093C4
:100B200006027093070280930802909309020E94C4
:100B30006F026B017C018EE291E00E947B024AE031
:100B400061E070E080E090E00E94880285E391E03F
:100B50000E947B024AE0C701B6010E94880287E337
:100B600091E00E947B0280910A0290910B02A09179
:100B70000C02B0910D02A7019601281B390B4A0BFC
:100B80005B0BCA01B9014AE00E94880287E391E049
:100B90000E947B0260910A0270910B0280910C020C
:100BA00090910D02C0900E02D0900F02E0901002C2
:100BB000F09011026C197D098E099F094AE00E948C
:100BC000880289E391E00E947B020E946F024AE062
:100BD0000E9488028BE391E00E947B0282E491E014
:100BE0000E947B020E946F022B013C017C016B0181
:100BF00035E0C30ED11CE11CF11C0E946F0264158C
:100C000075058605970528F0C616D706E806F90685
:100C1000A0F787E691E00E94DC00843611F40E9480
:100C2000CC020E946F0260930A0270930B028093C1
:100C30000C0290930D0208C00E946F026230710591
:100C40008105910508F008CF84E00E94C201EC0103
:100C500090935801809357018091550190915601CE
:100C6000C817D90751F00E946F0260935101709329
:100C7000520180935301909354010E946F02C090DF
:100C80005101D0905201E0905301F09054016C1941
:100C90007D098E099F096333710581059105E0F097
:100CA00080914F0190915001C817D907A9F0209168
:100CB000000130910101D0935001C0934F01C13028
:100CC000D10551F481E090E0232B11F090E080E019
:100CD00090930101809300016091000185E00E94E2
:100CE000EB01D0935601C093550186E00E94C201EA
:100CF000EC01909362018093610180915F0190917A
:100D00006001C817D90751F00E946F0260935B0120
:100D100070935C0180935D0190935E010E946F026D
:100D2000C0905B01D0905C01E0905D01F0905E01AD
:100D30006C197D098E099F09633371058105910541
:100D4000E0F08091590190915A01C817D907A9F094
:100D50002091020130910301D0935A01C0935901AF
:100D6000C130D10551F481E090E0232B11F090E0E7
:100D700080E090930301809302016091020187E07B
:100D80000E94EB01D0936001C0935F010115110532
:100D900009F45BCE0E94F600882309F456CE0E9427
:100DA000000053CE609363017093640180936501EA
:100DB0009093660161CEFC0188279927E8942191E0
:100DC0002032E9F3293010F02E30C8F32B3241F0F5
:100DD0002D3239F4689404C00E94F906820F911DE7
:100DE000219120532A30C0F31EF4909581959F4F96
:100DF00008957AE0979F902D879F802D910D112463
:100E00000895A1E21A2EAA1BBB1BFD010DC0AA1F4B
:100E1000BB1FEE1FFF1FA217B307E407F50720F063
:100E2000A21BB30BE40BF50B661F771F881F991FDE
:100E30001A9469F760957095809590959B01AC0127
:100E4000BD01CF010895EE0FFF1F0590F491E02D35
:060E50000994F894FFCFA5
:100E560001000100000000002C018C00B90079019E
:100E6600EA00C800DC00564D4450565F317C315FC5
:100E7600564D4450560A00564D4450525F00564D4A
:100E86004450455F003A323A007C005F564D44506C
:060E960045000D0A0000FA
:107E0000112484B714BE81FFF0D085E080938100F7
:107E100082E08093C00088E18093C10086E0809377
:107E2000C20080E18093C4008EE0C9D0259A86E02C
:107E300020E33CEF91E0309385002093840096BBD3
:107E4000B09BFECF1D9AA8958150A9F7CC24DD24C4
:107E500088248394B5E0AB2EA1E19A2EF3E0BF2EE7
:107E6000A2D0813461F49FD0082FAFD0023811F036
:107E7000013811F484E001C083E08DD089C08234E0
:107E800011F484E103C0853419F485E0A6D080C0E4
:107E9000853579F488D0E82EFF2485D0082F10E0AE
:107EA000102F00270E291F29000F111F8ED06801E7
:107EB0006FC0863521F484E090D080E0DECF843638
:107EC00009F040C070D06FD0082F6DD080E0C81688
:107ED00080E7D80618F4F601B7BEE895C0E0D1E017
:107EE00062D089930C17E1F7F0E0CF16F0E7DF06D8
:107EF00018F0F601B7BEE89568D007B600FCFDCFD4
:107F0000A601A0E0B1E02C9130E011968C91119780
:107F100090E0982F8827822B932B1296FA010C0160
:107F200087BEE89511244E5F5F4FF1E0A038BF0790
:107F300051F7F601A7BEE89507B600FCFDCF97BE46
:107F4000E89526C08437B1F42ED02DD0F82E2BD052
:107F50003CD0F601EF2C8F010F5F1F4F84911BD097
:107F6000EA94F801C1F70894C11CD11CFA94CF0C13
:107F7000D11C0EC0853739F428D08EE10CD085E9AC
:107F80000AD08FE07ACF813511F488E018D01DD067
:107F900080E101D065CF982F8091C00085FFFCCF94
:107FA0009093C60008958091C00087FFFCCF809118
:107FB000C00084FD01C0A8958091C6000895E0E648
:107FC000F0E098E1908380830895EDDF803219F02E
:107FD00088E0F5DFFFCF84E1DECF1F93182FE3DFCA
:107FE0001150E9F7F2DF1F91089580E0E8DFEE27F6
:047FF000FF270994CA
:027FFE00040479
:0400000300007E007B
:00000001FF