:100000000C9463000C948B000C948B000C948B006C
:100010000C948B000C948B000C948B000C948B0034
:100020000C948B000C948B000C94CF040C947905E9
:100030000C9488040C948B000C948B000C948B0013
:100040000C943E040C948B000C940C040C94E6036A
:100050000C948B000C948B000C948B000C948B00F4
:100060000C948B000C948B000000000024002700EF
:100070002A0000000000250028002B0000000000DE
:1000800023002600290004040404040404040202DA
:100090000202020203030303030301020408102007
:1000A0004080010204081020010204081020000012
:1000B0000008000201000003040700000000000027
:1000C00000000F06BB0911241FBECFEFD8E0DEBF32
:1000D000CDBF11E0A0E0B1E0E8E6F4E102C0059098
:1000E0000D92AE3FB107D9F723E0AEEFB1E001C00A
:1000F0001D92A23BB207E1F710E0C2E6D0E004C0D7
:100100002197FE010E94210AC136D107C9F70E943A
:100110005A060C94270A0C940000E3ECF2E0A08944
:10012000B18982E08C93A485B5851C92A685B7859C
:100130008FEC8C93108EA489B58986E08C93A2896C
:10014000B3898C9180618C93A289B3898C918860EA
:100150008C93A289B3898C9180688C930288F389EF
:10016000E02D80818F7D80830895AF92BF92CF92E2
:10017000DF92EF92FF920F931F93CF93DF936C0167
:100180007B018B01040F151FEB015E01AE18BF0848
:10019000C017D10759F06991D601ED91FC910190FA
:1001A000F081E02DC6010995892B79F7C501DF9112
:1001B000CF911F910F91FF90EF90DF90CF90BF9064
:1001C000AF900895FC01538D448D252F30E0842F8E
:1001D00090E0821B930B541710F0CF96089501976F
:1001E0000895FC01918D828D981761F0A28DAE0F5C
:1001F000BF2FB11D5D968C91928D9F5F9F73928FE3
:1002000090E008958FEF9FEF0895FC01918D828D0E
:10021000981731F0828DE80FF11D858D90E00895DB
:100220008FEF9FEF0895FC01918D228D892F90E033
:10023000805C9F4F821B91098F739927089583ECEF
:1002400092E00E94130121E0892B09F420E0822F23
:10025000089580E090E0892B29F00E941F01811110
:100260000C9400000895FC01A48DA80FB92FB11DB6
:10027000A35ABF4F2C91848D90E001968F739927DC
:10028000848FA689B7892C93A089B1898C918370BA
:1002900080648C93938D848D981306C00288F389B3
:1002A000E02D80818F7D80830895EF92FF920F93E0
:1002B0001F93CF93DF93EC0181E0888F9B8D8C8D12
:1002C00098131AC0E889F989808185FF15C09FB706
:1002D000F894EE89FF896083E889F98980818370C9
:1002E000806480839FBF81E090E0DF91CF911F9178
:1002F0000F91FF90EF900895F62E0B8D10E00F5F99
:100300001F4F0F731127E02E8C8D8E110CC00FB66E
:1003100007FCFACFE889F989808185FFF5CFCE0106
:100320000E943301F1CFEB8DEC0FFD2FF11DE35A4D
:10033000FF4FF0829FB7F8940B8FEA89FB89808189
:100340008062CFCFCF93DF93EC01888D8823B9F003
:10035000AA89BB89E889F9898C9185FD03C08081D0
:1003600086FD0DC00FB607FCF7CF8C9185FFF2CF4D
:10037000808185FFEDCFCE010E943301E9CFDF916F
:10038000CF910895833081F028F4813099F0823044
:10039000A9F008958730A9F08830C9F08430B1F40D
:1003A000809180008F7D03C0809180008F77809343
:1003B0008000089584B58F7784BD089584B58F7DBE
:1003C000FBCF8091B0008F778093B000089580912B
:1003D000B0008F7DF9CFCF93DF93282F30E0F90164
:1003E000E255FF4F8491F901E656FF4FD491F90190
:1003F000EA57FF4FC491CC23A1F081110E94C201A2
:10040000EC2FF0E0EE0FFF1FE458FF4FA591B491E1
:10041000EC91ED2381E090E009F480E0DF91CF9151
:10042000089580E090E0FACF1F93CF93DF93282FB9
:1004300030E0F901E255FF4F8491F901E656FF4F94
:10044000D491F901EA57FF4FC491CC23A9F0162F9C
:1004500081110E94C201EC2FF0E0EE0FFF1FEE5859
:10046000FF4FA591B4918FB7F894EC91111108C08A
:10047000D095DE23DC938FBFDF91CF911F9108953C
:10048000DE2BF8CFCF93DF9390E0FC01E656FF4FD1
:1004900024918A579F4FFC0184918823C9F090E0F2
:1004A000880F991FFC01E859FF4FA591B491FC01F9
:1004B000EE58FF4FC591D49161110DC09FB7F894CC
:1004C0008C91209582238C938881282328839FBF39
:1004D000DF91CF910895623051F49FB7F8943C9129
:1004E000822F809583238C93E8812E2BEFCF8FB7BB
:1004F000F894EC912E2B2C938FBFEACF3FB7F89452
:1005000080919D0290919E02A0919F02B091A002C5
:1005100026B5A89B05C02F3F19F00196A11DB11D5E
:100520003FBFBA2FA92F982F8827BC01CD01620F9A
:10053000711D811D911D42E0660F771F881F991F55
:100540004A95D1F708952FB7F89460919902709168
:100550009A0280919B0290919C022FBF0895509126
:10056000A5024091A402852F90E0242F30E054177B
:1005700018F0821B930B0895805B9F4FFACF8091F8
:10058000A502E091A4028E1751F0EF5FE03508F06C
:10059000E0E0F0E0E85BFD4F808190E008958FEFB0
:1005A0009FEF08958091A5029091A402891769F0A8
:1005B0009F5F903508F090E0E92FF0E0E85BFD4F99
:1005C00080819093A40290E008958FEF9FEF0895AB
:1005D0009091A2029F5F943408F090E02091A102D4
:1005E0002917E1F32FB7F8943091A302332349F090
:1005F000E92FF0E0E250FE4F80839093A2022FBFDC
:10060000089591E09093A3028093430210924202D6
:1006100082E086BB80916F00826080936F00809142
:1006200080008F7B8068809380008091840090910F
:10063000850040969093890080938800E0CF809158
:10064000A3028111FCCF0895862F0E94E80281E069
:1006500090E0089590E080E00895FB010190002073
:10066000E9F73197AF01461B570B0C94B5008F92F9
:100670009F92AF92BF92EF92FF920F931F93CF93EF
:10068000DF93CDB7DEB7A1970FB6F894DEBF0FBEEC
:10069000CDBF7C01FA01CB0119A2223008F42AE077
:1006A0008E010F5D1F4F822E912CB12CA12CBF010A
:1006B000A50194010E94FF09F901CA016A300CF5F5
:1006C000605DD8016E938D01232B242B252B79F7A8
:1006D00090E080E0109721F0BD01C7010E942D033A
:1006E000A1960FB6F894DEBF0FBECDBFDF91CF91BC
:1006F0001F910F91FF90EF90BF90AF909F908F90C0
:100700000895695CDECF0F931F93CF93DF93EC01C5
:100710000E942D038C016AE271E0CE010E942D033C
:10072000800F911FDF91CF911F910F9108950C942D
:100730002D031F93CF93DF9300D000D0CDB7DEB74A
:1007400083EC92E00E94F10083EC92E00E94F100C1
:1007500010E08A3379F0E1E0F0E0EC0FFD1FE10FEB
:10076000F11D17FDFA9580831F5F83EC92E00E94D4
:10077000F100EFCFCE0101960E94D909182F83EC2A
:1007800092E00E94F1008053990B8230910520F491
:10079000682F812F0E94140283EC92E00E94F100E6
:1007A0008A3011F08D30C1F783EC92E00E94050190
:1007B0008A3021F483EC92E00E94F1000F900F90B8
:1007C0000F900F90DF91CF911F9108951F920F927C
:1007D0000FB60F9211242F933F934F935F936F9314
:1007E0007F938F939F93AF93BF93EF93FF9383EC8C
:1007F00092E00E943301FF91EF91BF91AF919F91E1
:100800008F917F916F915F914F913F912F910F90B9
:100810000FBE0F901F9018951F920F920FB60F9258
:1008200011242F938F939F93EF93FF93E091D30223
:10083000F091D4028081E091D902F091DA0282FD38
:100840001BC090818091DC028F5F8F732091DD024D
:10085000821741F0E091DC02F0E0ED53FD4F958FFF
:100860008093DC02FF91EF919F918F912F910F90D8
:100870000FBE0F901F9018958081F4CF1F920F929A
:100880000FB60F9211242F933F938F939F93AF93A3
:10089000BF938091990290919A02A0919B02B0918E
:1008A0009C023091980223E0230F2D3758F50196D2
:1008B000A11DB11D209398028093990290939A02F2
:1008C000A0939B02B0939C0280919D0290919E0206
:1008D000A0919F02B091A0020196A11DB11D80932D
:1008E0009D0290939E02A0939F02B093A002BF919D
:1008F000AF919F918F913F912F910F900FBE0F90CD
:100900001F90189526E8230F0296A11DB11DD2CF86
:100910001F920F920FB60F9211242F938F939F93D4
:10092000EF93FF9380916F008B7F80936F00809196
:1009300081008F7B809381008091A60220914702E5
:10094000205890914602893020F49695922B8F5F23
:10095000FACF909346028091A5028F5F803508F010
:1009600080E02091A402281739F0E82FF0E0E85B3E
:10097000FD4F90838093A5021092A6028091810082
:100980008F7B8093810010924702FF91EF919F919E
:100990008F912F910F900FBE0F901F9018951F925F
:1009A0000F920FB60F9211242F933F934F935F93A3
:1009B0006F937F938F939F93AF93BF93EF93FF9327
:1009C000809186009091870040914702209181009C
:1009D0004423F1F12F7B2093810010924702309144
:1009E000A60231113CC0411122C02091A7023091D2
:1009F000A802280F391F30938B0020938A0024E02F
:100A000026BB20916F00246020936F002091A902E3
:100A10003091AA02820F931F36952795280F391F10
:100A2000309345022093440281E08093A602FF9117
:100A3000EF91BF91AF919F918F917F916F915F9156
:100A40004F913F912F910F900FBE0F901F901895CF
:100A500020642093810020E820934702C0CF40917A
:100A60004402509145026091A9027091AA02DB01F3
:100A7000A095B095E091470220914602841B950B0A
:100A8000A817B90768F126952E2B460F571F3F5F11
:100A9000861B970B3930A0F32093460280916F009C
:100AA0008B7F80936F008091A5028F5F803508F067
:100AB00080E09091A402981749F0E82FF0E090911F
:100AC0004602E85BFD4F90838093A50280918100F0
:100AD0008F7B80938100109247021092A602A7CFCD
:100AE0002093460250934502409344023093A6025D
:100AF0009ECF1F920F920FB60F9211242F933F9308
:100B00004F935F936F937F938F939F93EF93FF9395
:100B10002091A30260914302809188009091890006
:100B20004091A9025091AA02309142022A3070F5F8
:100B3000840F951F762F7170293009F471E0669546
:100B40002F5F371799F3309180007723E1F0306CF5
:100B500030938000909389008093880070934202C4
:100B6000609343022093A302FF91EF919F918F9195
:100B70007F916F915F914F913F912F910F900FBE99
:100B80000F901F9018953F7B3068E2CF3091A20202
:100B9000E091A1023E1319C02A3051F42BE02093BA
:100BA000A302840F951F9093890080938800DCCF67
:100BB0001092A302809180008F73809380008091B7
:100BC0006F008D7F80936F00CFCFEF5FE43408F02C
:100BD000E0E0E093A102F0E0E250FE4F308130937C
:100BE000430210924202309180003F7B3068309384
:100BF00080002A3071F42091A9023091AA02820F5C
:100C0000931F909389008093880081E08093A302D2
:100C1000ABCF80918400909185004096F2CFE3ECB9
:100C2000F2E01382128288EE93E0A0E0B0E08483C9
:100C30009583A683B7832AE031E03183208325ECB6
:100C400030E03587248724EC30E03787268720EC96
:100C500030E0318B208B21EC30E0338B228B22EC87
:100C600030E0358B248B26EC30E0378B268B118ED1
:100C7000128E138E148EE0E6F3E016821782108631
:100C80001186128613861486158616861786108A94
:100C9000118A128A138A148A158AE6EAF3E013820B
:100CA000128284839583A683B7838CE191E091833C
:100CB00080830895789484B5826084BD84B5816012
:100CC00084BD85B5826085BD85B5816085BD809117
:100CD0006E00816080936E0010928100809181008F
:100CE0008260809381008091810081608093810087
:100CF000809180008160809380008091B100846049
:100D00008093B1008091B00081608093B0008091A9
:100D10007A00846080937A0080917A008260809368
:100D20007A0080917A00816080937A0080917A00C5
:100D3000806880937A001092C1001092A2031092F2
:100D4000A3031092A4031092A503109262031092C1
:100D5000630310926403109265030E94A3026B0167
:100D60007C014B015C0128EB820E2BE0921EA11C42
:100D7000B11C0E94A3026C157D058E059F0528F00D
:100D800086169706A806B906A0F70E947E024B01B8
:100D90005C0198EEC92E93E0D92EE12CF12C0E9433
:100DA0007E02681979098A099B09683E73408105AA
:100DB0009105A8F331E0C31AD108E108F10848EE23
:100DC000840E43E0941EA11CB11CC114D104E104A3
:100DD000F10429F70E948D000E94A3026093620330
:100DE0007093630380936403909365036DE271E0F5
:100DF00083EC92E00E9497030E94A3026B017C01A6
:100E00004B015C018AE0880E911CA11CB11C0E9460
:100E1000A3026C157D058E059F0528F086169706A2
:100E2000A806B906A0F781E0809376030E94A3028A
:100E300060936203709363038093640390936503EC
:100E40006EE371E083EC92E00E9497030E948D00B4
:100E500065E471E083EC92E00E94970360E571E045
:100E600083EC92E00E94830365EB71E083EC92E0F7
:100E70000E94970360EC71E083EC92E00E94830390
:100E80006EE471E083EC92E00E94830310926F00A5
:100E90001092800081E88093810083E896E090932F
:100EA000AA028093A9028BE39CE39093A80280930B
:100EB000A70262E088E00E94420261E089E00E94AD
:100EC000140261E089E00E9442021092A602109290
:100ED000A5021092A4021092A3021092A2021092F4
:100EE000A10280E286BB80936F006CEC71E083EC22
:100EF00092E00E94830360E083E00E94420260E08F
:100F000085E00E94420261E082E00E94420261E0CC
:100F100084E00E94420261E08DE00E94420260E0B3
:100F20008EE00E94420260E08FE00E9442026091E7
:100F3000000182E00E9414026091020184E00E949C
:100F4000140283E00E94EB019093B4028093B302F9
:100F500085E00E94EB019093BE028093BD0200E009
:100F600010E084EF882E99249394A12CB12C332483
:100F700033940E94A302672B682B692B09F402C1EA
:100F80000E94A302C090BF02D090C002E090C102B4
:100F9000F090C2026C157D058E059F0508F4E2C134
:100FA000C090BF02D090C002E090C102F090C20297
:100FB0009B01AC012C193D094E095F0969017A01B9
:100FC0003AEFC316D104E104F10408F4E3C06093DE
:100FD000BF027093C0028093C1029093C2028092BC
:100FE0006E0390926F03A0927003B09271031092FF
:100FF0007203109273031092740310927503809120
:10100000660390916703A0916803B0916903809390
:101010006A0390936B03A0936C03B0936D030E94DB
:10102000A3026093660370936703809368039093B1
:10103000690383EC92E00E940501843611F40E945A
:1010400099030E94A30260936203709363038093E9
:101050006403909365030E94A3026B017C0165EE1B
:1010600071E083EC92E00E9497032AE041E050E0B7
:1010700060E070E083EC92E00E9437036CEE71E078
:1010800083EC92E00E9497032AE0B701A60183EC6B
:1010900092E00E9437036EEE71E083EC92E00E94D2
:1010A00097038091660390916703A0916803B091C4
:1010B0006903B701A601481B590B6A0B7B0B2AE099
:1010C00083EC92E00E9437036EEE71E083EC92E0D5
:1010D0000E949703409166035091670360916803F3
:1010E0007091690380916A0390916B03A0916C03E6
:1010F000B0916D03481B590B6A0B7B0B2AE083EC04
:1011000092E00E94370360EF71E083EC92E00E946E
:1011100097030E94A302AB01BC012AE083EC92E09A
:101120000E94370362EF71E083EC92E00E94830338
:101130000E94A3022B013C017C016B0145E0C40E1F
:10114000D11CE11CF11C0E94A302641575058605E3
:10115000970528F0C616D706E806F906A0F783EC2F
:1011600092E00E940501843611F40E9499030E94C6
:10117000A302609366037093670380936803909360
:10118000690308C00E94A3026230710581059105C0
:1011900008F0F6CE83E00E94EB01EC019093B402DC
:1011A0008093B3028091B1029091B202C817D9071F
:1011B00051F00E94A3026093AD027093AE0280933F
:1011C000AF029093B0020E94A302C090AD02D090F3
:1011D000AE02E090AF02F090B0026C197D098E096A
:1011E0009F096333710581059105E0F08091AB02A1
:1011F0009091AC02C817D907A9F020910001309155
:101200000101D093AC02C093AB02C130D10551F4BF
:1012100081E090E0232B11F090E080E090930101B9
:10122000809300016091000182E00E941402D0933B
:10123000B202C093B10285E00E94EB01EC019093F1
:10124000BE028093BD028091BB029091BC02C81780
:10125000D90751F00E94A3026093B7027093B802BD
:101260008093B9029093BA020E94A302C090B70281
:10127000D090B802E090B902F090BA026C197D09E2
:101280008E099F096333710581059105E0F0809116
:10129000B5029091B602C817D907A9F020910201B2
:1012A00030910301D093B602C093B502C130D1058D
:1012B00051F481E090E0232B11F090E080E09093D6
:1012C0000301809302016091020184E00E941402F4
:1012D000D093BC02C093BB0286EA93E00E94AF02A7
:1012E000892B59F086EA93E00E94D202809305018F
:1012F000682F83EC92E00E94550183EC92E00E94FB
:101300001301892B19F183EC92E00E94F100809384
:1013100005018A3021F08D3011F00E94E8028091A1
:101320000401882341F069EF71E083EC92E00E94B0
:10133000970310920401C09105016C2F83EC92E099
:101340000E945501CA3011F43092040101151105B3
:1013500009F40FCE0E941F01882309F40ACE0E94CF
:10136000000007CE6093BF027093C0028093C10259
:101370009093C20215CE8CE191E09093A7038093E5
:10138000A60380916F008B7F80936F0080916F0028
:101390008F7D80936F008091A4028093A50280913D
:1013A000A3028111FCCF80916F008D7F80936F002D
:1013B0000895FC0188279927E89421912032E9F3C8
:1013C000293010F02E30C8F32B3241F02D3239F491
:1013D000689404C00E94F709820F911D2191205347
:1013E0002A30C0F31EF4909581959F4F08957AE0BE
:1013F000979F902D879F802D910D11240895A1E234
:101400001A2EAA1BBB1BFD010DC0AA1FBB1FEE1F7E
:10141000FF1FA217B307E407F50720F0A21BB30BC9
:10142000E40BF50B661F771F881F991F1A9469F745
:1014300060957095809590959B01AC01BD01CF01A1
:101440000895EE0FFF1F0590F491E02D099410E030
:10145000C2E6D0E004C0FE010E94210A2196C336F4
:08146000D107C9F7F894FFCF92
:10146800010001000120000000005501B500E20064
:10147800A2011301F1000501000000002403B500DA
:101488002A031F03AF02D202BF020D0A00564D44C1
:1014980050565F317C315F564D4450560A00564DC8
:1014A8004450525F00536B657463683A20202000F3
:1014B800453A5C526F626F746963735C4D756C7406
:1014C80069706C6541726475696E6F536F6C757481
:1014D800696F6E735C4D756C74694172647569539C
:1014E8006F6C735C426C7565546F6F7468696E6F6E
:1014F8005F425C426C7565546F6F7468696E6F5FAC
:10150800425C426C7565546F6F7468696E6F5F42B8
:101518002E696E6F0055706C6F616465643A2000C7
:1015280046656220203920323032310042547365DA
:101538007269616C207374617274656420617420CF
:101548003936303000564D4450455F003A323A0043
:0E1558007C005F564D445045000D0A3E0000D9
:107E0000112484B714BE81FFF0D085E080938100F7
:107E100082E08093C00088E18093C10086E0809377
:107E2000C20080E18093C4008EE0C9D0259A86E02C
:107E300020E33CEF91E0309385002093840096BBD3
:107E4000B09BFECF1D9AA8958150A9F7CC24DD24C4
:107E500088248394B5E0AB2EA1E19A2EF3E0BF2EE7
:107E6000A2D0813461F49FD0082FAFD0023811F036
:107E7000013811F484E001C083E08DD089C08234E0
:107E800011F484E103C0853419F485E0A6D080C0E4
:107E9000853579F488D0E82EFF2485D0082F10E0AE
:107EA000102F00270E291F29000F111F8ED06801E7
:107EB0006FC0863521F484E090D080E0DECF843638
:107EC00009F040C070D06FD0082F6DD080E0C81688
:107ED00080E7D80618F4F601B7BEE895C0E0D1E017
:107EE00062D089930C17E1F7F0E0CF16F0E7DF06D8
:107EF00018F0F601B7BEE89568D007B600FCFDCFD4
:107F0000A601A0E0B1E02C9130E011968C91119780
:107F100090E0982F8827822B932B1296FA010C0160
:107F200087BEE89511244E5F5F4FF1E0A038BF0790
:107F300051F7F601A7BEE89507B600FCFDCF97BE46
:107F4000E89526C08437B1F42ED02DD0F82E2BD052
:107F50003CD0F601EF2C8F010F5F1F4F84911BD097
:107F6000EA94F801C1F70894C11CD11CFA94CF0C13
:107F7000D11C0EC0853739F428D08EE10CD085E9AC
:107F80000AD08FE07ACF813511F488E018D01DD067
:107F900080E101D065CF982F8091C00085FFFCCF94
:107FA0009093C60008958091C00087FFFCCF809118
:107FB000C00084FD01C0A8958091C6000895E0E648
:107FC000F0E098E1908380830895EDDF803219F02E
:107FD00088E0F5DFFFCF84E1DECF1F93182FE3DFCA
:107FE0001150E9F7F2DF1F91089580E0E8DFEE27F6
:047FF000FF270994CA
:027FFE00040479
:0400000300007E007B
:00000001FF