:100000000C94060F0C94340F0C94340F0C94340F92
:100010000C94340F0C94340F0C94340F0C94340F54
:100020000C94340F0C94340F0C94340F0C94340F44
:100030000C94340F0C94340F0C94340F0C94340F34
:100040000C94340F0C947C120C94340F0C94340FD9
:100050000C94340F0C94340F0C94340F0C94321213
:100060000C94340F0C94FC110C94D3110C94340F99
:100070000C94340F0C94340F0C94340F0C94340FF4
:100080000C94340F0C94340F0C94340F0C94340FE4
:100090000C94340F0C94340F0C94340F0C94340FD4
:1000A0000C94340F0C94340F0C94340F0C94340FC4
:1000B0000C94340F0C94340F0C94340F0C94340FB4
:1000C0000C94340F0C94340F0C94340F0C94340FA4
:1000D0000C94340F0C94340F0C94340F0C94340F94
:1000E0000C94340F00000A0B02090C0D0E080703D4
:1000F00004010000000000000000000000000000FB
:1001000000000000000000000000000000000000EF
:1001100012111000000000000000000000000000AC
:10012000000000000000000000008A938F91969A62
:1001300091949A938C857C8C7A697C6B5E5662650F
:100140004D585E5D5B586E6B65727983797C8D8CE2
:1001500083859491818A938A838A938A88919893DC
:10016000919F9F9A969D9D91837C91726280695820
:1001700046646B3C4F5E5D5254726E65727E8D7A42
:100180007A9396857C9A9B7C8698917C889B8F88B5
:1001900094A29F93A1A79D96969377888A6072698F
:1001A00059514B6C4A415B51524F676C5E7372817F
:1001B00083798D8C8A888C9A868A96948F8DA29F5B
:1001C00093A6ABA99A98AE9D867A9893465D795E80
:1001D0003A3A7E58275267583762805B697A8A8834
:1001E000728896918386A18F8894A4A18AA4B5A4CD
:1001F000A2A7B0A79D94779D9A43567E6B3A277924
:100200006C1B437259255D8C5E5B7A967E70989B61
:1002100091858CA7948898B2A78FADC2AE93A6C8DB
:10022000A26783C56B2E7586540B567E271E5473AA
:100230003C337375605E7A9A7E778DA2A47E8FB20E
:10024000A4919FC5B59AB5C0B4A2AE9D77AD8648BE
:1002500067726229197254163C6C5929737F5B5E70
:100260007A9D737EA19A9B939FA6A9B0A1B7C0B4B3
:10027000ABA9C0B291799A9B3F4D756E2917694A17
:10028000172559602C447C705B699193838D9AABE0
:10029000A19BAEBBB9A7A9C8C3A7B0C7AE657EB4C2
:1002A000653A547E59083C542E1E38623D3D6965BE
:1002B0006C737E818CA49193B2B5A7A7CCCAAEBE55
:1002C000C5C2B0AEA16E989B4A4862731B096B4AC7
:1002D0001720675B23596B656B7C8C7C9FA78DAB6C
:1002E000C3B99DB2DFC0B2C3D1C2967C8DAD6735B4
:1002F000546C4A09295D411E295E60485162818320
:10030000737C9DB2918DBECEB4A4D3E6C0ADC2D6EF
:10031000A15E91AB59334A6B3C0D30413A2E3D4FB3
:10032000546B525B8D947E73A9BE949BC3CEBBB2BB
:10033000CCC8BCBBBEA4608D964A3C4F6933124406
:100340003A30374856546B5B6791938686B2B59DB9
:10035000B0BEC7C2C7CEB4B4C0B07E518675273117
:100360005B520F204B383A414F52656E587C9A9140
:10037000859DC5B2A4BEC7CECCC7B2ADC7B96548CE
:10038000A67920235D62081C4A41434D524D698382
:100390006773A1AB9193C7BCABC0C7CCCAC7AD98BC
:1003A000B0C05D549A621C1C64440B373D3D5262E0
:1003B0004A3C858F607AADB596AEC2AEBECCC3C0A6
:1003C000CFC394A7BC5E52855D271B4D410F3541BD
:1003D0003C4B69623A7FA6797AA2BC9BA4C5A9B7B7
:1003E000D3CCB9B5C3A2A6A6585E835E29175251D5
:1003F0001E303D4A566758448DA4797CA9C2A1B2EB
:10040000BEA4C3CFC0AEB5BC96A48F446C724123CA
:1004100022542C1B3D3C5260775D5BA78F7591B2D7
:10042000B5A2C3B0A7CECCBCB0BBB594AB813D7078
:100430006233142C5922253C385B6E754458B08ABF
:10044000799DB4ADB4C296B5E1CCADA9C2A79DA1CA
:1004500052548A5D200D3D4D2E3C35416980704AD5
:1004600083A683889FAEABC5B08FBED8C5ABB0B9ED
:100470009DB0913D6B7C4D1B1943292C462E417A32
:100480007F464FA49D889DA29FB9D6A293C8D1C094
:10049000B0B49FA1B764316C6C411E294438564BEF
:1004A0002A568670487593859FA9939BC7C394A7C6
:1004B000C7C2C2B7A4858DA2583F6C54332C3D2CC3
:1004C00030644B38657E6264918085B0A794A2C089
:1004D000AD9DBBB5AEBEBB9F85A78F4369703C2C5D
:1004E00038482E4A643A527C7054729A7C93B5987C
:1004F00091B0B99BA6BCABADC0B5938CAE83336055
:10050000703D37433C2758653C51726759808F7561
:100510009BB99A9AB7B096AEB59FABBCAE9391A675
:100520007C4B6E6C41444A3C2C5269445870565680
:100530007E917286A9939FB4A79AAEB7A1A7B7ABD5
:10054000A4A1A28D5D6575584B483C334B624D4B61
:10055000605D596E86797E9B9393ADB29A91A4A10A
:10056000A7B5A294A2ABA194775E69676459443F92
:100570003D5665595B51516479817E8D8C869BAB6C
:10058000A29196A2A9B4AE9F969AA4A498674F6B25
:10059000726B59463F4B6E6E6060564F65817C733F
:1005A00083818C9F9A8C8694949BABA49693A1A2F2
:1005B0009A9F9A7962737367675B4B465B675E6568
:1005C0005B4854757F7781867E8C9B8D838D8F8C65
:1005D0009BA1969AA29B9A9D9F9B93806B6977792A
:1005E0007064595254646C675D4B526B7A7E7F85A0
:1005F0007E838F8A858893938D969B9A9493919806
:10060000A198938D86817777756C6762646260626A
:100610005E645E5962676E797E7C7A837E798893A8
:100620008D8D939898969A96918D8F969A938885AA
:10063000857C77756E696769656265646064626010
:1006400062676E75797A7C7E8081858F8F8D8D91C2
:100650009A968F919191969894918D8A88837C79BE
:1006600077726E6E6E696565676567656064676CF5
:100670007075797A7C7E8381868A8A8C9498918F32
:100680009191918C8D8F8D8C8C8A8A85807C7572EE
:1006900073706B67696C6B6767696B6B696B6C70A8
:1006A00073777C80818385858586888C8F919193F3
:1006B00093918D8A8C8C88888A888583807C7E79CA
:1006C00073736E6C6E706E6B6C6C6E70706E706E41
:1006D0006E7779777A7E80838686838586888A8C12
:1006E0008C8A8D8C8A8D888586888586888683818C
:1006F0007F7E7C7575737072706E706E706E7072C6
:10070000706E7070727575797E807E818683858645
:100710008A888C8C8A8C8A8D8D8C88868586888642
:10072000838385837E807F7C797575726E7270702D
:100730006E6E70727273737275777777797A7C7E6A
:100740007F81818081838586868588888686888862
:100750008683818381838183818381818081807E7F
:100760007C7A7A7777757372737272707273737240
:100770007373757779797A7C7C7E7E8081818586BA
:100780008685868688888A8A8C8A8A8886858385F3
:10079000817E80807E7A7C7A7C7C7A7C7A797A7998
:1007A00079777977797777757779777977797779CD
:1007B000797A7C7A7C7A7C7E7E7E807E8080818362
:1007C00081838385858385868586858685838583E4
:1007D00083817F8180807E7F7E807E7C7E7C7A7C30
:1007E0007A7C7A7A7977797779777977797779797D
:1007F0007A797A7A7C7C7A7C7E7E7F7E7F8081802B
:1008000081838183818385838385838583858583B4
:10081000818381817F7F7E7F807E7C7E7C7E7C7EEB
:100820007C7E7C7A7A7C7C7A7C7A797A797A797A1D
:10083000797A797A79797A797A797A7C7A7C7C7A18
:100840007C7A7C7E7C7E7F7E8081818381838183B4
:10085000858385868585838583818383817F817F69
:100860007E7F7E7E7C7E7C7A7C7A7C7A7C7A7A7CC7
:100870007A7C7A7C7A7C7A7C7A7C7A7C7A7C7A7CC8
:100880007A7C7A7C7A7C7A7C7E7C7A7C7E7E7C7EAA
:100890007E807E807E7F7E7F818180818381838157
:1008A000838183838183818381808181807E7F7E38
:1008B0007F7E7C7E7C7E7C7C7A7C7A7C7C7A7C7A77
:1008C0007C7A7C7A7C7A7C7C7C7C7C7C7C7C7C7C6E
:1008D0007C7C7C7C7C7C7A7C7A7C7E7C7E7C7E8052
:1008E0007E7F7E7F817F817F817F7C7973778A9A0B
:1008F0009AA1915260A1987A696788A18F737373E6
:100900007088A18F706C81938A5E4F80A993625921
:100910007C96866B5B758C816E6B7E8A8373727935
:100920007058587C937A627396A1867581949375FA
:100930005669969B75607A9DA69688919A8D79776F
:100940007365758A8C837E7E807A777E8388857ACC
:10095000808C8D887A70757564595B605B565B62BC
:10096000676B6E727C888C8583888F8C8683858389
:100970007E807F8385868A8A7C839A9F94949DABB0
:10098000B9A693A1AEA18C888C8F8A77696E754FBA
:100990003056523029384F4D595B5E75918F86988D
:1009A000A4A1989A94867A706760605956627275AD
:1009B000798398ABB4B4B4BEC7C0B0A7A7A99B8CC9
:1009C00086888A887A7081867364462752672E14D7
:1009D0002E514A4F52597E9B917791A9A18F867EC5
:1009E000756C5B4B4A585D5E6B7F919DA9B4BCC82A
:1009F000CAC0B7B5B2AB9F938D8F968F8C949691EA
:100A00009D9B85705B252C541B00043C48657360DE
:100A100094CACF9A9AB49D8F80593838463C354A4B
:100A20006581A1B4B2BECFD6C7BCB09B9693867980
:100A30007F888A94A4ABB7C2B5A6ADAD8159120028
:100A400000370000003872B4B591C7F0EBAD8A6C86
:100A5000485146170010436485919DC7F4EFC7AD18
:100A60009A9B9D8C60547088969DA2ABC5DFD8C2BE
:100A7000BEBEAD917C674D3A3100003C1E304162F4
:100A800093DFFDA6A2A2836E46270010484F62772F
:100A900091ADDAD8B09D948A7C73544D7294A2A71C
:100AA000ABAEC7DAC5B0A6A29B98917F8596989108
:100AB0009F9372592000004B2C3830548FE4DC98FF
:100AC0008C6C736C562C0D30658C9A8C8896B7B9EB
:100AD000947767677C857579819FB7B7B4A4A6B210
:100AE000B0A99A93939BA7ABA49A9FA69F85522CDB
:100AF0000000204F3A565D85B0F7F083624A353AE0
:100B00003F3015549BC0E1D8A181836E483C3837F3
:100B10006CA9B9C3C3B7A6A4A18377807E91A9AEFF
:100B2000A4ABB9BBC8C8B28C7E7554411E0000305E
:100B3000438CB4A2A1C2F7A9623300001C5964809F
:100B4000B9C5F7FFD8803F190008354A79C2E6F4E5
:100B5000FDD38A5E544D5E838C96BCCECFD1CAAD98
:100B6000A1B2A99680695B64643000003C75EACF4D
:100B70009A73ADBB69670800004B9DB4DFC5A7D66B
:100B8000CF8C3D0B0000378AB5E1EFCFCAC58F513E
:100B90002C223F91D1CEC8C5B7BECCB78D818691EE
:100BA0009AA194816B3100002367D5DCAB7C93B5AF
:100BB0006B561600003DA6CCF4E4A6ADB07C370B16
:100BC00000003CA9E4FDF4B58C937E523A3851966E
:100BD000DFE8CCB9A4A2B5B99B88837785A19679C3
:100BE0003A00001C85EAE1B96E859B6B5402000057
:100BF00051BBE8FFD59F8F86653512000454C2FEB5
:100C0000FFE49D75706E60525670A4DADFC9AE9F26
:100C10009FAEB5A68877696E838F5100002765E87F
:100C2000E8B46C6B775D673700044AA9D5F9CF85C6
:100C300075725D4A43251759B4E3F6D1855964703E
:100C4000757A7A7994C3CCBEAE9693AEB9A99479ED
:100C50005659694A00004F6BBEDDAE736E653D525A
:100C60004827337AB0C7DFB97356594D4A584B46B7
:100C700072B2CED5C3855B62727C8A8F8D9FBCC0F9
:100C8000B2AB9893A7B0A18C7256585101065B7C09
:100C9000AEC8A96B59694A46443A3C77B9C2C7B253
:100CA000755258564B595D526B9FC0C2B7916C6BD1
:100CB0007C8683868896B5C3B4A49898A2AB9D839E
:100CC00067564F4D203C86A6C5AD794A595B464FC5
:100CD0004A4362A1BCB5AB8556516264646B5E59F0
:100CE00079A2B2B29D7970858F9188838AA1B5B4BB
:100CF000A6A19FA6ABA6835E4B4A2C015896B2CE06
:100D0000AE7343514A414B4F5677AEB9AD9B704BD2
:100D10004F60626E705F7098AEA99D816977919AFD
:100D20009391949FB0B4A19196A1A4A691705954A7
:100D300037084391ADC0A96E4D60594A4D4D516E73
:100D4000AEBBA491704D566E69655B5B7CA4B5A487
:100D50008D7770859693888893A2AEAD9A919AA26A
:100D6000A1917056545425257EA7B2AD804D586B85
:100D70004D4A545B6CA4C0A68C755852696B544F95
:100D80006C8DAEC2A77E70737C88938F8DA1ADA64B
:100D90009B968C93A2A2866C5E6044206298A4AD60
:100DA0009467526B644F4D4F5B85B5B49885695914
:100DB00069724D375D8DB0C3B285727A81868C8C35
:100DC0008D9FAEA4938C8891A2A48A756E67481CEF
:100DD0004386A4AE9B6E627C72544A41487CADAEA1
:100DE0009B8A7765727044315B8DB4C3AD7C73832D
:100DF000857F7E7F85A1B5A98F8686919D9D8D7A01
:100E0000737252193F7F98A1967567817C5E484442
:100E10004A70A2AB968C837779774A294F86ABC00C
:100E2000B48C818F86757377819BB2A48D888C8DED
:100E3000938C818185837C581E43859394836B704A
:100E40009186644D3F4D799D9B888586868D754141
:100E5000355D8AA2AB9A86919B8D777073839AA138
:100E6000948A8C8F918C837E838A887F73513562BC
:100E70007C798679708591806458526079857F7C11
:100E8000858C938D694D5B7786918F888DA2A18C1F
:100E90007F797A88918A858C8F918D867C818A8CE6
:100EA0008C867C7260515D6C73797E7A808C8575DE
:100EB0006E645E697372737E818185817C7F7F7EC3
:100EC0007F8385868A8A8C8D918F8C8883838380AB
:100ED0007C808386888888837E79706262696B7281
:100EE0007977777E817E7A77727275797775737587
:100EF0007C83858685818385837F7C7E81838686CE
:100F000086858583817F7E7F7E7F808180807E80D5
:100F10007E807C79777977797775737375797A7A4A
:100F2000797779797A7A7A7C7E80818381818381ED
:100F3000838381818385868886858683838181807A
:100F400081807E807E7C7C7A7A79797775737573FF
:100F50007573737577797A797A7C7A7C7C7E7E7FFB
:100F600083818183818081807E7F80818183838171
:100F70008381808181808180818081807E807E806C
:100F80007E807E7C7E7C7E7C7C7A797A79777977AC
:100F90007577757779797A7C7C7E807F817F818196
:100FA0008385838583818383817F8180817F808125
:100FB000807E807E807E7C7A7C7A7A797A7775777B
:100FC000797779797A797A7C7E7C7F81808081805B
:100FD00081838181838385868685838583838180E0
:100FE000818083817F81807E7C7A7C7A7977797A2F
:100FF0007979797775777577757779797A7E7F8062
:101000007F7E7F7E7C7A7C7C7C7E818183858385EC
:10101000858383858385838381807F807E7E7C7AC0
:101020007E7C7E7C7E7C7A7C7C7977777573757329
:101030007273737775797A797A7C7A7C7E7E808117
:10104000858386868586868583858685868685864C
:10105000858385858381817E7C7A797575737272CB
:1010600073737273757577797C7A7C807F818180E8
:101070008180818081807E80818183838583858654
:101080008688868586858381807E8080817F817F3A
:10109000807E7E7C7A7775737573727070727072F1
:1010A0007375757779797A7A797A7C7C7E7F81839A
:1010B00083858586888A888A888A888A88868585BD
:1010C00086858383817C797A7972706E6C6C6E6EA2
:1010D0006B6C6E72737779777A7C7E7F7E7C7E7E96
:1010E0007F808183818586888A8C8A8C8D8C8D8C8B
:1010F0008D8C8C8A888685837E7977777372706E03
:101100006E6C6E6C6E6E7072737577797A7A7C7CA9
:101110007C7A7C7E7F81838183868A8A8C8D8C8D8C
:101120008F8D8F8D8F8C8D8C8888837C777775736E
:10113000706E6965696C6E6C6B6B707375757779C1
:1011400077797A7A7C7A7C7E8081838586868A8CA0
:101150008D8F9191939193918F8D8C8A86807775E5
:1011600075726E6964656769696B69696B707375BF
:10117000757377797A7A7C7A7C7E8181838586889B
:101180008C8D9193939394949694938F8D8A857E6E
:10119000797777706B6764656769676967696E728D
:1011A0007577757577797A7C7C7A7C7F818586887E
:1011B0008C8D919496989698989A989694918D86FD
:1011C0007F7977736E676464626462656562646B7D
:1011D00070727373757577797C7A7C7E7F8385886E
:1011E0008C8C8D919496989A9B9D9B9A9894938DB4
:1011F000867C7977736B625E60606064645E606455
:101200006B6E7272737373777A7C7A7C7E7F81885F
:101210008C8D8F91969A9B9D9F9F9D9F9D98949159
:10122000867C79777069605E5E5D5B60625D60623E
:10123000696E7072737272777A7C7C7E7F80818A2D
:1012400091919194989B9FA1A4A4A1A19F9A968FFC
:10125000837C7A736C655D5B5B595B5E5D5B5D6235
:10126000696C6E7273727275797A7E807E80838CFF
:10127000919396989B9FA2A7A7A7A4A29F9A948AAE
:10128000817A726B645D595956595B595B5B606535
:10129000696E7272707272777C7E807F7E838C91B1
:1012A000989A989DA2A7ADAEADA9A19D9A8F867F71
:1012B000776E655B585956565859595B5D64696B32
:1012C00070706E706E757A7C81807E808C9AA1A120
:1012D000A2A4A9B2BEBEB4A191968C777A7970709F
:1012E00069584F465167645D56444B5E6C7E796029
:1012F0004D41659A9F9891839ABBBEB2A2B0CAD362
:10130000E3E1C2AE9167560800415E738A6470865D
:101310008F7A311725386C857083AECCB2653D432A
:10132000597E836977ADD3D5C2AEAEC7CFC2A48A8A
:101330007C625D72350058818381606E7AAE7E2C4E
:101340003A43628D887781B5AB524B595D7E866E8C
:1013500077B5CEB7B9B5B7D6DFC3A19A85626C6E43
:10136000010B7A707C736B739AAD3A153F4D6C80AC
:10137000776C9FCC72436E6570867064A2D8BCB2E5
:10138000C2C0D5EBCAA49D8C5D60520022816975F4
:101390006E7A7A9D9D311B435665737775A9A15B63
:1013A00062797277756B81BBCAB4C0CACEDCE6BC09
:1013B00098816565651700587A8372707A9F8D30C1
:1013C0001C355B67726C7FA98A707C797277757245
:1013D0008AB2B5B5C0CCD3DDDCB998725B694B007D
:1013E0002A6B707C737C839F7A2C2A4A59626B72B9
:1013F0008D8F8D988D7F77798088949FB0C3D3DD52
:10140000E1DABC967C675631003C7373777E96AE0A
:101410009D382C433D464D5D72869AADA49A887CDA
:101420007C7C8091A4B2C9D8DDE4D5A1817A650124
:1014300000545964737C96B7A9413148413A3F4AF8
:101440004675B4ABA6AE9D9191797098A2A4C3D60F
:10145000DDE1C29F988D3A0017594854628AB7C59A
:101460007A314F583529302252A7A2A1C8BEA69B77
:101470007C678F9F96B7D6DAD8CAB0AD9430002774
:1014800051293F6098BCC3674B7A5B2A231B1B6EB4
:101490009188BBD8BCAE9F7783938094C7CECEDFB4
:1014A000CCB5B28D0B00523C173D6C98B99D5E8057
:1014B0008A4825170837706E98D6D8BCAD988A8CA4
:1014C000807C9DBCC2C7CAC7C0A14D02354614204E
:1014D0005183949472778F6237141741596491CE77
:1014E000DAC7ADA9A48D7E8AA4B0AEB7C3C8B99F30
:1014F000621C514D0D27597E81837286965E270F9F
:10150000354B466BA1CCD1BCB0B7A7858A9FA7A6A7
:10151000AEB7BBB7A97A314664271E486C7A837090
:101520007A986E33143D48355E91BBCAC2AEBCB5E5
:101530008C8DA4A6A6B0B4BCBEAB8A464F5E222258
:101540004A626C7C7079916529234D3D356998B765
:10155000C0BBB2BEA78CA6A99AA1ADB2B9AEA488F1
:10156000526758233A545E6B756E817E4320434B1D
:101570002A52819BB2BBB7C5BB98A6B09D9BAEAEAD
:10158000A6A4A29D6962703C354F5E6773726E8A35
:1015900065254B58273F778DA6ADAECCC2969DBB37
:1015A000A29AABB2ABA1969D7F5169432C4A5B6472
:1015B00070736C8A69274B5E314A73859FA9A2C0FC
:1015C000C39BA4BEA79BB4B4ABA49B9877435960BC
:1015D00033415E62676C6B8C6B275464354677834E
:1015E0009AA7A6BEBCA2A7BBA6A1B0B4AB9D98A467
:1015F0007A3C6E592341646569726C8C672A566225
:10160000304A797E96A2A6C0BC9FA9BEA79FB0B75C
:10161000AD9D969D85385960253C586264726E88F0
:101620006C335E5E3346757A8DA1A1B9B99DA6BEB5
:10163000A796ADB9AB9896A28F41417538225864F0
:1016400062696B81884458724344727A88A19DB55F
:10165000BEA4A6C0B59BA9B9B49B969F914F376E07
:101660005425486762606E778D563A6E4A376281BC
:1016700080939FB2C0A7A4B9B9A1A2B7BEA99AA1ED
:10168000A26E2352792A275B655969728C8C526548
:10169000703D4175798194A1BBB49BABC2AD9BA950
:1016A000B4B4A9949D9F5835755219385E5D5B6C32
:1016B000728A593D73693A4D7E7A8091A2B5A99B91
:1016C000B2BEA69FB0B5B4A69A9B9F6C3A75601443
:1016D00035645B566B758F7A3D647E3C3D7A7F7ACC
:1016E0008CA1B2B09B9FC5AE9BB0B9B0ABA2A19F7D
:1016F0007F3F37622C1E5462525D737A8C643F7256
:1017000072314D857E7793A6ADA798A6BBA69BB4F4
:10171000B9A6ADB29F948C56376B4A1444654F52AC
:10172000777C8A8156547A5B30648375819FA4A745
:10173000A496A7B49B9AB5AE9FB2B9A28F94693A0A
:10174000694614415848567C70888F79675D6951A5
:1017500048647E7E8C9DA2A79D9AA2A69891A6A978
:10176000A1ADB9AD938A80464456272E52524F7090
:101770007A798F837979564F6B5858818F8696A1E5
:10178000989D988F9DA69BA2ABA7A6ADB4A68D856C
:10179000644664481E3F584A58757C8C94868593ED
:1017A00072375E734656868C8A9D969BAD9485A251
:1017B000AB8C91A9A7A2A9ADB7A2755E4D593F19EF
:1017C0002A545E4F6B8898948A8D937E5D564A5456
:1017D0006256658D9A8D9AA69F98938C9698939B46
:1017E000A6A4A1B0B7B0A98D7254414D301C30549D
:1017F00064647F94A7A1948D8D7A5E595D5941529E
:10180000707C7E8DA1A7A7968D938D7F818F9394F9
:1018100098A1ABB0AEAEB0AE8A5E3D234A410F2771
:1018200069777294A9BBB7917C8373443748545845
:10183000646E8094A198949D93838079727A807F5E
:101840008C9698A1ABADABA9A6A2A2A29685705426
:101850002E31624B2C5D86838D918C9F94645160F8
:10186000564348586E8C988FA1BBA77A706B52591B
:101870005D59729AA19DAEAEA19A8D808385797CC7
:1018800093938F9BA7ADB7B9A68D7C511931431B9C
:101890002556728AA79B98AE9F6B58544641444A7E
:1018A0005B8A9F98A9BBB4A28F705B4B3C4A56627F
:1018B00086A9B0B4B7AB988A77656772727A889454
:1018C0009FA9ABA4A9ADA6A1A19481735B383510E3
:1018D0002959585E75A2A6AB98776C6E54333A4A74
:1018E000607C919BABBEBBA2917E675B564B526CFA
:1018F000727EA2A9A49F8D81736E65606C79838FBF
:10190000969B9DA19B918D8C8D8D8D8A8A949D9D9A
:10191000A19D8D776554584F1B31565E737C808F27
:10192000B29F6B645E4D5B5B4D5B8AA4A1B0AB96CE
:101930009B947759585B647C838393A4A99B8A69A1
:1019400054697069707A859AABA18D8F8D868A856E
:10195000777A8D919398938D9398968F8883868CC0
:101960006E4F4B445464463F5872888F8C726C792A
:1019700070695E54546C888D93918D93988D7569C0
:101980006464727E818591989B9A8F81756C606486
:101990006B7381939B9FA19D918A817977797A7EE0
:1019A000888F8F91938D8C8A8580807F7E7F8380C6
:1019B000868F8A83796B5D524437435D67778A8867
:1019C00088918D7C6E625456656E798893949B9B4A
:1019D0008D80776B646B7279818F969BA19B8F85CD
:1019E000796C6C7073797F838C8F8C8A8585868601
:1019F0008583838183868888868381807E818385B1
:101A0000837E79777A8083837C797A797A7C77721E
:101A100072777C81857C75736C6764544651657AF6
:101A20008D9B9486837E77756E625965798A9BA2B9
:101A30009B91887F797572696973808D9B9D988F62
:101A4000887F7775706C727A81858D9A948A888583
:101A50007C7A7E7C777E807E8386817E807A777AB0
:101A60007E7C7C7F8183838581817F7E8083817C76
:101A7000797A7E8185858079757377756C54414B51
:101A80005E7C98A29883796E6C75736B62626B7AD8
:101A900096A6A49A8873676970757C7E7C838F96FE
:101AA0009B9B8F7C6C6767727F8A8C8D8C8C8A8CF9
:101AB000817579726E7985888D918C817E7E7A7A36
:101AC0007E7A777A7E7A80888581817A7779807F3D
:101AD00080817E7A7C7E7C7A7C79777A7C7C7C7E45
:101AE0007E7C7E7A77757779777A7E8081807A7549
:101AF000706760606772818D938F88817A75777562
:101B00007273777C838D939491887E757272737AE9
:101B10008185868A8C8A8A868077706C6E737E8CCB
:101B2000919391887F7C7C7A7A7C7A797C7F838898
:101B30008C88837C77757A7E8081817C7C7A7C7EC0
:101B400080817E7A7A79757777777A7C7A7E7E7AE9
:101B5000797977737575797A7E7E7C7A7C7C7A7CEC
:101B60007F7E7C7A797977737073777E88918F889E
:101B7000817A777A7F808383807A797C8083868874
:101B800083817E7C7A7E8081818381818386888641
:101B900085807A797A7C8183838583818383858339
:101BA0007E7C777373706B6062676E808F96948DA6
:101BB00081726B696B70777E808386888A8A8A835C
:101BC0007A706C6B7079818A8F8F8A86837C797941
:101BD000777577797A7F86888C8A867F7A75737530
:101BE000797A7A7C8083858688857E797572737927
:101BF0007C7E8183818081838183817E7A797977FC
:101C0000797C7E7F818383817F7E7A797773757714
:101C10007A7E818381817C7A777577797A7A7C7E06
:101C20007C7E7C7F80807E7C797977797C818385DE
:101C300083807E7C7A7A7C7E7E807F807E807F7EC1
:101C40007E7F7E7C7E80817F83838180817A7A7CA7
:101C50007F8385888681807E7A7C7C7F8183838573
:101C60008381807C7A7C7A7C7E808183858688866D
:101C70007C695D56525D6E8696A1A49886756962F0
:101C8000626973797E838586888C8C88817A706995
:101C90006B6C727C889194948F857C757070727572
:101CA0007A7F83868885817F7E7C7E807E7C7A7940
:101CB00075757A818A8F938F8880736C69696E7766
:101CC0008086888885817C777775737577797A7A4D
:101CD0007E7E8081807C7A797575777A7C7E808142
:101CE0007E7E807E7C7E7E7C7C7E7E7C7E7E807E18
:101CF0007F81837F807C7A7A7C7E808183818081F2
:101D000080818183858381807C7A7C7A7C808185D7
:101D10008586837F7E7C7C7C7E8083858381807EBC
:101D20007A7C7A7C7E807E807E7C7C7E8081837FD4
:101D300079736C6B6C727A858C8D8D8881797370F8
:101D40006E73757C7F8383817F7E00002200250077
:101D500028002B002E003100340002010000050194
:101D600008010B0100002100240027002A002D009B
:101D70003000330001010000040107010A010505DC
:101D80000505070508080808020202020A0A0808F1
:101D9000040404040101010101010101030303031F
:101DA00003030303040707070C0C0C0C0C0C0C0CAE
:101DB0000202020206060606060606060B0B0B0BBF
:101DC0000B0B0B0B010210202008081020401020E4
:101DD00040800201020108040201010204081020EF
:101DE00040808040201008040201800402018040ED
:101DF0002010080402010804020101020408102056
:101E000040800102040810204080EC1211241FBE03
:101E1000CFEFD1E2DEBFCDBF00E00CBF23E0A2E4F4
:101E2000B2E001C01D92A933B207E1F712E0A0E0D1
:101E3000B2E0E4EFFBE200E00BBF02C007900D92BE
:101E4000A234B107D9F71FE0C6E0DFE000E005C02B
:101E500021970109802FFE01C3D6C530D10780E04C
:101E60000807B1F7F8D3C4C60C94000090E0FC0159
:101E7000EC53F24E24918258924EFC0184918823B7
:101E800099F090E0880F991FFC01EC59F24EA59152
:101E9000B491FC01E65BF24E859194918FB7F89472
:101EA000EC91E22BEC938FBF0895AF92BF92CF924B
:101EB000DF92EF92FF920F931F93CF93DF936C010A
:101EC0007B018B01040F151FEB015E01AE18BF08EB
:101ED000C017D10759F06991D601ED91FC9101909D
:101EE000F081E02DC6011995892B79F7C501DF91A5
:101EF000CF911F910F91FF90EF90DF90CF90BF9007
:101F0000AF900895FC01538D448D252F30E0842F30
:101F100090E0821B930B541710F0CF960895019711
:101F20000895FC01918D828D981761F0A28DAE0FFE
:101F3000BF2FB11D5D968C91928D9F5F9F73928F85
:101F400090E008958FEF9FEF0895FC01918D828DB1
:101F5000981731F0828DE80FF11D858D90E008957E
:101F60008FEF9FEF0895FC01918D228D892F90E0D6
:101F7000805C9F4F821B91098F739927089586E596
:101F800092E0F1DF21E0892B09F420E0822F08950F
:101F9000FC01A48DA80FB92FB11DA35ABF4F2C91DE
:101FA000848D90E001968F739927848FA689B789D5
:101FB0002C93A089B1898C91837080648C93938DCC
:101FC000848D981306C00288F389E02D80818F7D6F
:101FD00080830895EF92FF920F931F93CF93DF9327
:101FE000EC0181E0888F9B8D8C8D98131AC0E88955
:101FF000F989808185FF15C09FB7F894EE89FF8924
:102000006083E889F98980818370806480839FBFC1
:1020100081E090E0DF91CF911F910F91FF90EF90C1
:102020000895F62E0B8D10E00F5F1F4F0F731127D1
:10203000E02E8C8D8E110BC00FB607FCFACFE8890D
:10204000F989808185FFF5CFCE01A2DFF2CFEB8D3C
:10205000EC0FFD2FF11DE35AFF4FF0829FB7F8946C
:102060000B8FEA89FB8980818062D0CFCF93DF9389
:10207000EC01888D8823B1F0AA89BB89E889F989A8
:102080008C9185FD03C0808186FD0CC00FB607FCD6
:10209000F7CF8C9185FFF2CF808185FFEDCFCE0108
:1020A00077DFEACFDF91CF91089580E090E0892B30
:1020B00021F065DF81110E94000080E090E0892B13
:1020C00049F080E090E0892B29F00E940000811106
:1020D0000E94000080E090E0892B49F080E090E0D1
:1020E000892B29F00E94000081110E94000080E0ED
:1020F00090E0892B49F080E090E0892B29F00E9444
:10210000000081110C9400000895282F30E0F9019F
:10211000EC51FF4F9491F901EC53F24E4491225847
:10212000324EF9012491222309F434C0992309F194
:1021300091509231F0F4E92FF0E08827EE55FF4EF0
:102140008F4F4EC5D310D710B410CB10CF10B9108D
:10215000DA10E010E410EA10EE10F210F810FC10A3
:10216000B910001106110A11809180008F778093B9
:102170008000E22FF0E0EE0FFF1FE65BF24EA5912C
:10218000B4918FB7F894EC91611148C040954E23FB
:102190004C938FBF0895809180008F7DE8CF809110
:1021A0008000877FE4CF84B58F7784BDE2CF84B58C
:1021B0008F7DFBCF8091B0008F778093B000D9CF17
:1021C0008091B0008F7DF9CF809190008F778093C0
:1021D0009000CFCF809190008F7DF9CF80919000BB
:1021E000877FF5CF8091A0008F778093A000C1CF2B
:1021F0008091A0008F7DF9CF8091A000877FF5CFDF
:10220000809120018F7780932001B3CF80912001AE
:102210008F7DF9CF80912001877FF5CF4E2BB8CFEE
:102220003FB7F8948091470290914802A0914902EB
:10223000B0914A0226B5A89B05C02F3F19F0019620
:10224000A11DB11D3FBFBA2FA92F982F8827BC0110
:10225000CD01620F711D811D911D42E0660F771F38
:10226000881F991F4A95D1F708952FB7F894609168
:1022700043027091440280914502909146022FBF23
:102280000895FC0101900020E9F73197AF01481B48
:10229000590BBC0186E592E008CE8F929F92AF92D7
:1022A000BF920F931F93CF93DF93CDB7DEB7A19764
:1022B0000FB6F894DEBF0FBECDBF19A2423008F4AE
:1022C0004AE08E010F5D1F4F842E912CB12CA12C62
:1022D000A501940163D4E62FB901CA01EA30ECF4F8
:1022E000E05DD801EE938D01232B242B252B81F764
:1022F00090E080E0109711F0CD01C3DFA1960FB6FA
:10230000F894DEBF0FBECDBFDF91CF911F910F912B
:10231000BF90AF909F908F900895E95CE2CF1F939C
:10232000CF93DF9300D01F92CDB7DEB786E592E062
:10233000F8DD86E592E0F5DD10E08A3371F0E1E04A
:10234000F0E0EC0FFD1FE10FF11D17FDFA95808302
:102350001F5F86E592E0E5DDF0CFCE010196F9D36F
:10236000182F86E592E0DDDD8053990B82309105D0
:1023700018F4682F812FC9DE86E592E0D2DD8A301D
:1023800011F08D30C9F786E592E0DFDD8A3019F46F
:1023900086E592E0C6DD0F900F900F900F90DF91D1
:1023A000CF911F9108951F920F920FB60F92112493
:1023B0000BB60F922F933F934F935F936F937F933F
:1023C0008F939F93AF93BF93EF93FF9386E592E034
:1023D000DFDDFF91EF91BF91AF919F918F917F9141
:1023E0006F915F914F913F912F910F900BBE0F9086
:1023F0000FBE0F901F9018951F920F920FB60F925D
:1024000011240BB60F922F938F939F93EF93FF930B
:10241000E0916602F09167028081E0916C02F09198
:102420006D0282FD1DC0908180916F028F5F8F735E
:1024300020917002821741F0E0916F02F0E0EA5AB9
:10244000FD4F958F80936F02FF91EF919F918F9138
:102450002F910F900BBE0F900FBE0F901F901895ED
:102460008081F2CF1F920F920FB60F9211242F93FB
:102470003F938F939F93AF93BF938091430290912B
:102480004402A0914502B09146023091420223E0FD
:10249000230F2D3758F50196A11DB11D209342023F
:1024A0008093430290934402A0934502B093460266
:1024B0008091470290914802A0914902B0914A024E
:1024C0000196A11DB11D8093470290934802A093ED
:1024D0004902B0934A02BF91AF919F918F913F9172
:1024E0002F910F900FBE0F901F90189526E8230F85
:1024F0000296A11DB11DD2CF1F920F920FB60F925F
:1025000011240BB60F922F933F934F935F936F93CA
:102510007F938F939F93AF93BF93EF93FF9380919C
:102520004B0290914C0220914E0230914F02821743
:10253000930708F443C080914D0240914B025091A3
:102540004C02B901680F711D6417750771F5809110
:102550006F008D7F80936F00809181008E7F8093CC
:1025600081008091B1008E7F8093B10060E08BE0AC
:10257000CCDD80914B0290914C02019690934C02DD
:1025800080934B02FF91EF91BF91AF919F918F91FB
:102590007F916F915F914F913F912F910F900BBE63
:1025A0000F900FBE0F901F90189540914B025091C5
:1025B0004C02820F841B8093B300DBCF80914B02CF
:1025C00090914C02E0915002F0915102E80FF91FF6
:1025D000E491E093B300CDCFE6E5F2E013821282FE
:1025E00088EE93E0A0E0B0E084839583A683B78370
:1025F00084E092E09183808385EC90E095878487E6
:1026000084EC90E09787868780EC90E0918B808BBC
:1026100081EC90E0938B828B82EC90E0958B848BA5
:1026200086EC90E0978B868B118E128E138E148E13
:10263000E3EFF2E016821782108611861286138667
:102640001486158616861786108A118A128A138AAE
:10265000148A158A0895789484B5826084BD84B5FF
:10266000816084BD85B5826085BD85B5816085BD8D
:1026700080916E00816080936E0010928100809145
:1026800081008260809381008091810081608093CD
:102690008100809180008160809380008091B100F2
:1026A00084608093B1008091B00081608093B0001D
:1026B000809191008260809391008091910081606F
:1026C0008093910080919000816080939000809130
:1026D000A10082608093A1008091A100816080931D
:1026E000A1008091A00081608093A00080912101D1
:1026F000826080932101809121018160809321017A
:102700008091200181608093200180917A00846013
:1027100080937A0080917A00826080937A00809121
:102720007A00816080937A0080917A00806880933B
:102730007A001092C1001092350310923603109265
:102740003703109238031092F5021092F60210929D
:10275000F7021092F80289DD6B017C014B015C01EC
:1027600028EB820E2BE0921EA11CB11C7EDD6C15A5
:102770007D058E059F0528F086169706A806B906E2
:10278000A8F74EDD4B015C0198EEC92E93E0D92EDF
:10279000E12CF12C45DD681979098A099B09683E0D
:1027A000734081059105B0F331E0C31AD108E10807
:1027B000F10848EE840E43E0941EA11CB11CC11424
:1027C000D104E104F10431F7E0916602F09167026F
:1027D00082E08083E0916202F09163021082E091D6
:1027E0006402F091650280E1808310926E02E091B4
:1027F0006A02F0916B0286E08083E0916802F091BA
:102800006902808180618083E0916802F0916902B1
:10281000808188608083E0916802F0916902808104
:1028200080688083E0916802F091690280818F7DE9
:1028300080831BDD6093F5027093F6028093F702AC
:102840009093F80282E192E01CDD0FDD6B017C01C8
:102850004B015C018AE0880E911CA11CB11C05DDB6
:102860006C157D058E059F0528F086169706A8062F
:10287000B906A8F781E080930903F7DC6093F502BD
:102880007093F6028093F7029093F80283E292E04D
:10289000F8DC8AE0EBDA8AE291E0909351028093CF
:1028A000500280E29CE190934F0280934E028BE0B5
:1028B000DDDA8091B6008F798093B6008091B00008
:1028C00083608093B0008091B100877F8093B100D6
:1028D0008091B0008F7B80688093B0008091B000C1
:1028E0008F7C8093B0008091B100887F816080935D
:1028F000B100E0915002F0915102E491E093B300F5
:10290000F89480918100877E886080938100809117
:1029100080008C7F8093800080918100887F81601F
:102920008093810080ED97E09093890080938800E8
:1029300080916F00826080936F0080914E02909131
:102940004F020197E0915002F0915102E80FF91FF8
:10295000E491E0934D0210924C0210924B02789455
:1029600084EF882E99249394A12CB12C7EDC672BC4
:10297000682B692B09F4D8C078DCC0905202D09043
:102980005302E0905402F09055026C157D058E05BF
:102990009F0508F4D5C0C0905202D0905302E09039
:1029A0005402F09055029B01AC012C193D094E09CF
:1029B0005F0969017A013AEFC316D104E104F10419
:1029C00008F4B9C06093520270935302809354028A
:1029D000909355028092010390920203A092030308
:1029E000B09204031092050310920603109207039D
:1029F000109208038091F9029091FA02A091FB02D3
:102A0000B091FC028093FD029093FE02A093FF021E
:102A1000B09300032ADC6093F9027093FA0280936A
:102A2000FB029093FC0286E592E08FDA843609F48B
:102A300076DC1BDC6093F5027093F6028093F7025C
:102A40009093F80212DC6B017C018AE292E019DCBF
:102A50004AE061E070E080E090E01FDC81E392E01A
:102A600010DC4AE0C701B60118DC83E392E009DC20
:102A70008091F9029091FA02A091FB02B091FC02C0
:102A8000A7019601281B390B4A0B5B0BCA01B90140
:102A90004AE003DC83E392E0F4DB6091F902709199
:102AA000FA028091FB029091FC02C090FD02D0904E
:102AB000FE02E090FF02F09000036C197D098E0980
:102AC0009F094AE0EADB85E392E0DBDBCEDB4AE00C
:102AD000E4DB87E392E0D5DB8EE392E0D2DBC5DB7B
:102AE0006B017C012B013C0135E0430E511C611C44
:102AF000711CBBDB6C157D058E059F0528F0461605
:102B0000570668067906A8F786E592E01EDA84364D
:102B100009F405DCAADB6093F9027093FA02809352
:102B2000FB029093FC0207C0A0DB623071058105B7
:102B3000910508F021CF61E08AE0E7DAB6DA16CF36
:102B40006093520270935302809354029093550203
:102B500022CFFC0188279927E89421912032E9F3BC
:102B6000293010F02E30C8F32B3239F02D3231F4E9
:102B7000689403C00BD0820F911D219120532A30FD
:102B8000C8F31EF4909581959F4F08957AE0979F22
:102B9000902D879F802D910D11240895A1E21A2E6A
:102BA000AA1BBB1BFD010DC0AA1FBB1FEE1FFF1FF1
:102BB000A217B307E407F50720F0A21BB30BE40B41
:102BC000F50B661F771F881F991F1A9469F7609588
:102BD0007095809590959B01AC01BD01CF01089542
:102BE000EE0FFF1F881F8BBF0790F691E02D199401
:042BF000F894FFCF87
:102BF40000000000EA0F550F820F3610B30F910F3B
:102C0400A50F564D4450565F317C315F564D4450AC
:102C1400560A00564D4450525F00564D4450455F8D
:102C2400003A323A007C005F564D445045000D0A8C
:022C340000009E
:020000023000CC
:10E000000D9489F10D94B2F10D94B2F10D94B2F129
:10E010000D94B2F10D94B2F10D94B2F10D94B2F1F0
:10E020000D94B2F10D94B2F10D94B2F10D94B2F1E0
:10E030000D94B2F10D94B2F10D94B2F10D94B2F1D0
:10E040000D94B2F10D94B2F10D94B2F10D94B2F1C0
:10E050000D94B2F10D94B2F10D94B2F10D94B2F1B0
:10E060000D94B2F10D94B2F10D94B2F10D94B2F1A0
:10E070000D94B2F10D94B2F10D94B2F10D94B2F190
:10E080000D94B2F10D94B2F10D94B2F10D94B2F180
:10E090000D94B2F10D94B2F10D94B2F10D94B2F170
:10E0A0000D94B2F10D94B2F10D94B2F10D94B2F160
:10E0B0000D94B2F10D94B2F10D94B2F10D94B2F150
:10E0C0000D94B2F10D94B2F10D94B2F10D94B2F140
:10E0D0000D94B2F10D94B2F10D94B2F10D94B2F130
:10E0E0000D94B2F141546D656761323536300041AF
:10E0F000726475696E6F206578706C6F72657220DE
:10E1000073746B3530305632206279204D4C530099
:10E11000426F6F746C6F616465723E004875683F52
:10E1200000436F6D70696C6564206F6E203D200048
:10E130004350552054797065202020203D20005FF9
:10E140005F4156525F415243485F5F3D2000415658
:10E1500052204C696243205665723D20004743437C
:10E160002056657273696F6E203D20004350552024
:10E1700049442020202020203D20004C6F7720663D
:10E18000757365202020203D20004869676820665F
:10E190007573652020203D200045787420667573D6
:10E1A00065202020203D20004C6F636B2066757336
:10E1B000652020203D20004D617220203720323024
:10E1C000313300312E362E3800342E332E350056A2
:10E1D00023202020414444522020206F7020636F70
:10E1E00064652020202020696E73747275637469E1
:10E1F0006F6E2061646472202020496E74657272B3
:10E20000757074006E6F20766563746F7200726A49
:10E210006D702020006A6D70200057686174207056
:10E220006F72743A00506F7274206E6F7420737541
:10E2300070706F72746564004D7573742062652030
:10E2400061206C6574746572002000577269747483
:10E25000696E672045450052656164696E672045B7
:10E26000450045452065727220636E743D00504F35
:10E27000525400303D5A65726F2061646472003FF1
:10E280003D43505520737461747300403D454550C3
:10E29000524F4D207465737400423D426C696E6B41
:10E2A000204C454400453D44756D70204545505215
:10E2B0004F4D00463D44756D7020464C415348001B
:10E2C000483D48656C70004C3D4C69737420492F83
:10E2D0004F20506F72747300513D51756974005234
:10E2E0003D44756D702052414D00563D73686F7707
:10E2F00020696E7465727275707420566563746FF0
:10E30000727300593D506F727420626C696E6B00BD
:10E310002A0011241FBECFEFD1E2DEBFCDBF01E046
:10E320000CBF12E0A0E0B2E0EEE1FDEF03E00BBFB6
:10E3300002C007900D92A030B107D9F712E0A0E01B
:10E34000B2E001C01D92AE30B107E1F70F9460F367
:10E350000D948DFE01E20EBF0FEF0DBF11241FBE05
:10E360000D9460F30D9400F020E030E040ED57E0B4
:10E3700005C0FA013197F1F72F5F3F4F2817390792
:10E38000C0F308959C01260F311DC901A0E0B0E043
:10E390002F5F3F4FABBFFC018791882361F08093D3
:10E3A000C6008091C00086FFFCCF8091C0008064D1
:10E3B0008093C000EACF08958DE08093C6008091DD
:10E3C000C00086FFFCCF8091C00080648093C000B5
:10E3D0008AE08093C6008091C00086FFFCCF8091C8
:10E3E000C00080648093C00008950F94C2F10F9420
:10E3F000DCF10895FC019081992359F09093C600B7
:10E400008091C00086FFFCCF8091C0008064809323
:10E41000C0003196992379F70895282F982F929567
:10E420009F70892F805D8A3308F0895F8093C600D2
:10E430008091C00086FFFCCF8091C00080648093F3
:10E44000C000822F8F70982F905D9A3308F0995FEB
:10E450009093C6008091C00086FFFCCF8091C000E1
:10E4600080648093C00008959C01FB01853691056E
:10E470001CF46330710594F0C90164E670E00F94F8
:10E480002EFE605D7F4F6093C6008091C00086FFC6
:10E49000FCCF8091C00080648093C0002B30310598
:10E4A00014F43297B4F0C90164E670E00F942EFEC4
:10E4B0006AE070E00F942EFE605D7F4F6093C600AF
:10E4C0008091C00086FFFCCF8091C0008064809363
:10E4D000C000C9016AE070E00F942EFEC0968093E0
:10E4E000C6008091C00086FFFCCF8091C000806490
:10E4F0008093C00008951F93182F8EE692EE60E07F
:10E500000F94C2F11093C6008091C00086FFFCCF2B
:10E510008091C00080648093C0000F94DCF11F9153
:10E5200008952F923F924F925F926F927F928F92B7
:10E530009F92AF92BF92CF92DF92EF92FF920F9392
:10E540001F93DF93CF93CDB7DEB762970FB6F894E2
:10E55000DEBF0FBECDBF382E622ECA01DB015C01CB
:10E560006D01772420E2222E2E010894411C511CBB
:10E570008BC081E0A81680E0B80681E0C80680E084
:10E58000D80628F0C601AA27BB270F940DF2BB2797
:10E59000AD2D9C2D8B2D0F940DF28A2D0F940DF225
:10E5A0002092C6008091C00086FFFCCF8091C00001
:10E5B00080648093C0009DE29093C6008091C0006B
:10E5C00086FFFCCF8091C00080648093C0002092C1
:10E5D000C6008091C00086FFFCCF8091C00080649F
:10E5E0008093C00019828601750188249924A1E0D6
:10E5F0003A1651F03A1620F0B2E03B1661F409C029
:10E600000BBFF701779007C0C7010F9477FE782EF4
:10E6100002C0F7017080872D0F940DF22092C60082
:10E620008091C00086FFFCCF8091C0008064809301
:10E63000C000872D8052F401EF70F0708F3520F408
:10E64000E40DF51D708204C0E40DF51D8EE280839B
:10E650000894E11CF11C011D111D0894811C911CE2
:10E6600090E18916910409F0C2CF80E190E0A0E02A
:10E67000B0E0A80EB91ECA1EDB1E198AC2010F9493
:10E68000FAF10F94DCF16A94662009F072CF629679
:10E690000FB6F894DEBF0FBECDBFCF91DF911F91B3
:10E6A0000F91FF90EF90DF90CF90BF90AF909F9031
:10E6B0008F907F906F905F904F903F902F90089534
:10E6C0002F923F924F925F926F927F928F929F9282
:10E6D000AF92BF92CF92DF92EF92FF920F931F9370
:10E6E000DF93CF93CDB7DEB7CD53D1400FB6F894BB
:10E6F000DEBF0FBECDBF01E20EBF0FEF0DBF94B75F
:10E70000F894A89514BE80916000886180936000A1
:10E7100010926000789493FF05C0E0910002F091A0
:10E7200001021995279A2F9A8091C00082608093E8
:10E73000C00080E18093C40088E18093C1000000A4
:10E74000EE24FF24870144E0A42EB12CCC24DD2448
:10E7500024C0C5010197F1F70894E11CF11C011DCB
:10E76000111D21E2E2162EE4F20620E0020720E06D
:10E77000120718F031E0C32ED12CC801B70127ECE5
:10E780003BE140E050E00F9441FE611571058105C9
:10E79000910519F485B1805885B98091C00087FD35
:10E7A00003C0C114D104A9F2A6014F5F5F4FC25E3E
:10E7B000DE4F59834883CE51D140C25EDE4F8881FF
:10E7C0009981CE51D140019711F00D9410FEC05D9A
:10E7D000DE4F19821882C053D14060E0C15DDE4F28
:10E7E0001882CF52D14088249924C35DDE4F19820C
:10E7F0001882CD52D140C05EDE4F188219821A8233
:10E800001B82C052D140CE5CDE4F188219821A8220
:10E810001B82C253D140EE24FF2487010BBFF701B6
:10E8200007911691C45CDE4F19830883CC53D14005
:10E830000D940BFEC25EDE4F28813981CE51D1404E
:10E840002130310509F52091C600C25EDE4F1982E4
:10E850001882CE51D14022C02F5F3F4F4F4F5F4FA4
:10E86000213082E138078AE7480780E0580780F0C6
:10E87000C45CDE4FE881F981CC53D140EF5FFF4F9C
:10E8800019F0EE27FF27099420E030E040E050E047
:10E890008091C00087FFE0CF2091C600C35DDE4FAE
:10E8A00048815981CD52D1404F5F5F4FC35DDE4FEC
:10E8B00059834883CD52D140213209F063C64A3092
:10E8C000510508F05FC60894811C911C53E0851621
:10E8D000910409F059C600E010E018C081E280936D
:10E8E000C6008091C00086FFFCCF8091C00080648C
:10E8F0008093C0002F5F3F4F2931310579F70F9486
:10E90000DCF10F5F1F4F0530110519F020E030E0FA
:10E91000E5CF10920A0210920B0210920C02109294
:10E920000D02109206021092070210920802109235
:10E930000902109202021092030210920402109235
:10E9400005028FEE90EE60E00F94F5F180E191EE1C
:10E9500060E00F94C2F18091C00087FFFCCF9091DE
:10E96000C600903608F09F759032B8F09093C600BC
:10E970008091C00086FFFCCF8091C00080648093AE
:10E98000C000A0E2A093C6008091C00086FFFCCF2B
:10E990008091C00080648093C000983409F4D7C18E
:10E9A0009934B8F4923409F459C1933458F490333B
:10E9B00019F1903308F4E3C59F33A1F1903409F0C5
:10E9C000DEC5BDC0953409F470C1963409F0D7C5D1
:10E9D00098C1923509F42BC2933538F49C3409F46C
:10E9E000F5C1913509F0CBC518C2963509F445C279
:10E9F000993509F0C4C567C483E792EE62E00F94CD
:10EA0000F5F110920602109207021092080210927D
:10EA1000090210920A0210920B0210920C0210923C
:10EA20000D0213C18FE792EE62E00F94F5F18FEEC5
:10EA300090EE60E00F94F5F181E291EE60E00F94CA
:10EA4000C2F187EB91EE60E00F94F5F180E391EE77
:10EA500060E00F94C2F184EE90EE60E00F94F5F167
:10EA60008FE391EE60E00F94C2F186E090E061E008
:10EA700070E00F9434F20F94DCF18DE591EE60E0DC
:10EA80000F94C2F189EC91EE60E00F94F5F18EE401
:10EA900091EE60E00F94C2F183EC91EE60E00F9490
:10EAA000F5F18CE691EE60E00F94C2F18EE10F94E7
:10EAB0000DF288E90F940DF281E00F940DF20F949E
:10EAC000DCF18BE791EE60E00F94C2F119E0E0E039
:10EAD000F0E010935700E4918E2F0F940DF20F94F5
:10EAE000DCF18AE891EE60E00F94C2F1E3E0F0E03F
:10EAF00010935700E4918E2F0F940DF20F94DCF1D8
:10EB000089E991EE60E00F94C2F1E2E0F0E0109349
:10EB10005700E4918E2F0F940DF20F94DCF188EAE8
:10EB200091EE60E00F94C2F1E1E0F0E01093570045
:10EB30001491812F0F940DF20F94DCF107CF8BE825
:10EB400092EE62E00F94F5F18BE492EE60E00F94A8
:10EB5000F5F10F94DCF100E010E019C0C8016F2D51
:10EB60000F947FFEFF2031F489E492EE60E00F9471
:10EB7000C2F10BC0F092C6008091C00086FFFCCFAE
:10EB80008091C00080648093C0000F5F1F4FC80158
:10EB900081519F41A0E0B0E0ABBFFC01F790BAE229
:10EBA000FB1621F0E2E000301E07C1F60F94DCF105
:10EBB0000F94DCF187E592EE60E00F94F5F10F948D
:10EBC000DCF1CC24DD2400E010E01EC0C8010F946D
:10EBD00077FEF82E882331F489E492EE60E00F94FA
:10EBE000C2F10BC08093C6008091C00086FFFCCFAD
:10EBF0008091C00080648093C000FE1419F00894D6
:10EC0000C11CD11C0F5F1F4FC80181519F41A0E063
:10EC1000B0E0ABBFFC01E790FAE2EF1621F022E092
:10EC20000030120799F60F94DCF10F94DCF182E6C4
:10EC300092EE60E00F94C2F1C60161E070E00F94C3
:10EC400034F20F94DCF10F94DCF110920202109276
:10EC50000302109204021092050278CE89E992EE26
:10EC600062E00F94F5F1279A2F9A16C02F9880E052
:10EC700090E0E0EDF7E03197F1F7019684369105E9
:10EC8000C1F72F9A80E090E0E0EDF7E03197F1F7DF
:10EC9000019684369105C1F78091C00087FFE6CFC9
:10ECA0008091C00087FFFCCF64C485EA92EE62E0E9
:10ECB0000F94F5F140910202509103026091040219
:10ECC0007091050281E020E10F9491F2809102029F
:10ECD00090910302A0910402B091050280509F4FD1
:10ECE000AF4FBF4F8093020290930302A0930402A0
:10ECF000B093050280509041A040B04008F426CE69
:10ED0000A4CF83EB92EE62E00F94F5F140910602FE
:10ED100050910702609108027091090280E020E1A1
:10ED20000F9491F28091060290910702A09108023F
:10ED3000B091090280509F4FAF4FBF4F80930602A2
:10ED400090930702A0930802B0930902FFCD80ECD4
:10ED500092EE62E00F94F5F183E792EE60E00F949B
:10ED6000F5F18FE792EE60E00F94F5F18BE892EE0B
:10ED700060E00F94F5F189E992EE60E00F94F5F10F
:10ED800085EA92EE60E00F94F5F183EB92EE60E09D
:10ED90000F94F5F180EC92EE60E00F94F5F187ECC2
:10EDA00092EE60E00F94F5F188ED92EE60E00F9442
:10EDB000F5F18FED92EE60E00F94F5F18AEE92EEB0
:10EDC00060E00F94F5F183E093EEBDCD87EC92EE19
:10EDD00062E00F94F5F181E40F947BF282E40F94EA
:10EDE0007BF283E40F947BF284E40F947BF285E45E
:10EDF0000F947BF286E40F947BF287E40F947BF20E
:10EE000088E40F947BF28AE40F947BF28BE40F94F6
:10EE10007BF28CE40F947BF299CD88ED92EE62E068
:10EE20000F94F5F1772473948824992409C48FED05
:10EE300092EE62E00F94F5F140910A0250910B02BC
:10EE400060910C0270910D0282E020E10F9491F22A
:10EE500080910A0290910B02A0910C02B0910D02D8
:10EE600080509F4FAF4FBF4F80930A0290930B0289
:10EE7000A0930C02B0930D0269CD8AEE92EE62E08F
:10EE80000F94F5F184EE90EE60E00F94F5F18FECC5
:10EE900091EE60E00F94F5F1662477244301CC5D98
:10EEA000DE4F19821882C452D140D401C301B695F5
:10EEB000A79597958795CA5DDE4F88839983AA8326
:10EEC000BB83C652D140CC5DDE4FA881B981C4520C
:10EED000D1401196CC5DDE4FB983A883C452D14096
:10EEE000CD0162E070E00F9434F2B0E2B093C6005E
:10EEF0008091C00086FFFCCF8091C0008064809329
:10EF0000C000EDE2E093C6008091C00086FFFCCF18
:10EF10008091C00080648093C000F0E2F093C6004E
:10EF20008091C00086FFFCCF8091C00080648093F8
:10EF3000C000CA5DDE4FE880F9800A811B81C6529D
:10EF4000D140BB27A12F902F8F2D0F940DF2CA5DBA
:10EF5000DE4F8881C652D1400F940DF2B0E2FB2EF5
:10EF6000F092C6008091C00086FFFCCF8091C00067
:10EF700080648093C0000DE30093C6008091C000C0
:10EF800086FFFCCF8091C00080648093C00010E2B7
:10EF90001093C6008091C00086FFFCCF8091C00016
:10EFA00080648093C0008BBEF3012791C65DDE4F65
:10EFB0002883CA52D140A22EBB24CC24DD2408943D
:10EFC000611C711C811C911C8BBEF3018791282E42
:10EFD0003324442455240894611C711C811C911C09
:10EFE0008BBEF3013791C55DDE4F3883CB52D140E4
:10EFF0000894611C711C811C911C8BBEF30147910C
:10F00000C45DDE4F4883CC52D140ADEFEA2EAFEF66
:10F01000FA2EAFEF0A2FAFEF1A2F6E0C7F1C801E57
:10F02000911E142D032DF22CEE24EA0CFB1C0C1D5A
:10F030001D1D0F940DF220E22093C6008091C000A8
:10F0400086FFFCCF8091C00080648093C000C65DC5
:10F05000DE4F8881CA52D1400F940DF230E23093D6
:10F06000C6008091C00086FFFCCF8091C000806404
:10F070008093C000C45DDE4F8881CC52D1400F9494
:10F080000DF240E24093C6008091C00086FFFCCFA5
:10F090008091C00080648093C000C55DDE4F888190
:10F0A000CB52D1400F940DF250E25093C6008091A4
:10F0B000C00086FFFCCF8091C00080648093C000B8
:10F0C0008FEFE8168FEFF80680E0080780E018075A
:10F0D00031F484E092EE60E00F94C2F1DFC0D80119
:10F0E000C7018070907CA070B0708050904CA040A0
:10F0F000B040D1F52FEF3FE340E050E0E222F322B1
:10F1000004231523CA5DDE4FA880B980CA80DB8046
:10F11000C652D140AE0CBF1CC01ED11EAA0CBB1CD7
:10F12000CC1CDD1C8EE092EE60E00F94C2F1BB2798
:10F13000A12F902F8F2D0F940DF28E2D0F940DF285
:10F1400030E23093C6008091C00086FFFCCF8091F2
:10F15000C00080648093C0004EE34093C60080915D
:10F16000C00086FFFCCF87C08EE09EEFA0E0B0E03D
:10F17000E822F9220A231B239CE0E91694E9F90608
:10F1800090E0090790E0190709F088C0C45DDE4FE0
:10F19000A881CC52D140EA2EFF2400E010E0102FCD
:10F1A0000F2DFE2CEE24C55DDE4FB881CB52D14031
:10F1B000EB0EF11C011D111DD601C501817090706F
:10F1C000A070B070DC0199278827E80EF91E0A1F8D
:10F1D0001B1F20EF30E040E050E0A222B322C42207
:10F1E000D52241E1AA0CBB1CCC1CDD1C4A95D1F7F1
:10F1F000EA0CFB1C0C1D1D1D81E090E0A0E0B0E0BE
:10F20000282239224A225B2235E1220C331C441C7D
:10F21000551C3A95D1F7E20CF31C041D151D57013E
:10F220006801AA0CBB1CCC1CDD1C85E192EE60E0E1
:10F230000F94C2F1C801AA27BB270F940DF2BB2778
:10F24000A12F902F8F2D0F940DF28E2D0F940DF274
:10F2500090E29093C6008091C00086FFFCCF809121
:10F26000C00080648093C000AEE3A093C60080918C
:10F27000C00086FFFCCF8091C00080648093C000F6
:10F28000C601AA27BB270F940DF2BB27AD2D9C2DDD
:10F290008B2D0F940DF28A2D0F940DF20F94DCF14B
:10F2A000CC5DDE4FE881F981C452D140F99709F471
:10F2B0004DCBF4E0EF2EF12C012D112D6E0C7F1CA7
:10F2C000801E911EF2CD83E093EE62E00F94F5F183
:10F2D0008AE192EE60E00F94C2F18091C00087FF56
:10F2E000FCCF1091C6001F751093C6008091C0001E
:10F2F00086FFFCCF8091C00080648093C0000F9493
:10F30000DCF1812F81548A3108F036C1163409F4BA
:10F3100095C0173490F4133409F44EC0143430F40B
:10F320001134F1F0123409F01DC130C0143409F465
:10F3300059C0153409F016C16BC01A3409F4C4C0A1
:10F340001B3438F4173409F48FC0183409F00AC19B
:10F35000A1C01B3409F4D2C01C3409F003C1E8C0B9
:10F360008FEF81B90DC082B1809582B980E090E0C5
:10F37000E0EDF7E03197F1F70196883C9105C1F790
:10F380008091C00087FFEFCF12B8EFC08FEF84B934
:10F390000DC085B1809585B980E090E0E0EDF7E0A3
:10F3A0003197F1F70196883C9105C1F78091C00033
:10F3B00087FFEFCF15B8D9C08FEF87B90DC088B1DF
:10F3C000809588B980E090E0E0EDF7E03197F1F7C3
:10F3D0000196883C9105C1F78091C00087FFEFCF6F
:10F3E00018B8C3C08FEF8AB90DC08BB180958BB9A7
:10F3F00080E090E0E0EDF7E03197F1F70196883C8E
:10F400009105C1F78091C00087FFEFCF1BB8ADC059
:10F410008FEF8DB90DC08EB180958EB980E090E0F0
:10F42000E0EDF7E03197F1F70196883C9105C1F7DF
:10F430008091C00087FFEFCF1EB897C08FEF80BBD1
:10F440000DC081B3809581BB80E090E0E0EDF7E0F6
:10F450003197F1F70196883C9105C1F78091C00082
:10F4600087FFEFCF11BA81C08FEF83BB0DC084B38C
:10F47000809584BB80E090E0E0EDF7E03197F1F714
:10F480000196883C9105C1F78091C00087FFEFCFBE
:10F4900014BA6BC08FEF809301010FC080910201FD
:10F4A00080958093020180E090E0E0EDF7E03197F5
:10F4B000F1F70196883C9105C1F78091C00087FF64
:10F4C000EDCF1092020151C08FEF809304010FC065
:10F4D0008091050180958093050180E090E0E0ED4A
:10F4E000F7E03197F1F70196883C9105C1F78091DB
:10F4F000C00087FFEDCF1092050137C08FEF8093DA
:10F5000007010FC08091080180958093080180E079
:10F5100090E0E0EDF7E03197F1F70196883C910536
:10F52000C1F78091C00087FFEDCF109208011DC088
:10F530008FEF80930A010FC080910B01809580931B
:10F540000B0180E090E0E0EDF7E03197F1F70196F4
:10F55000883C9105C1F78091C00087FFEDCF1092E4
:10F560000B0103C085E292EEEEC98091C00087FFD7
:10F57000FCCF8091C600EAC988E392EEE4C98CE131
:10F5800091EEE1C988249924933011F1943028F444
:10F59000913089F09230B8F408C0953061F195301F
:10F5A000F0F0963009F048C043C02B3109F042C951
:10F5B00091E06BE13FC96227C15DDE4F2883CF52E6
:10F5C000D14092E037C9B22FA0E0622793E032C960
:10F5D000822F90E0A82BB92B622794E02BC92E3004
:10F5E00009F039C3622795E0C05DDE4F19821882A9
:10F5F000C053D1401FC9E1E0F0E0EC0FFD1FC05D3A
:10F60000DE4F08811981C053D140E00FF11F2083E4
:10F610000F5F1F4FC05DDE4F19830883C053D14079
:10F6200062270A171B0709F005C9D80196E002C92D
:10F63000261709F010C303C0973009F0FBC87724E0
:10F640009981933109F412C19431C8F4963009F4C8
:10F65000D8C0973050F4923009F406C1933009F4C1
:10F660006DC0913009F059C253C0913109F477C08F
:10F67000923108F0BBC0903109F04FC2F5C098310B
:10F6800009F487C0993150F4953109F4EFC09531F0
:10F6900008F4C6C1963109F040C2C2C19A3109F4DA
:10F6A0006CC09A3108F491C09B3109F45BC09D3164
:10F6B00009F033C29D81903359F48F81882311F46E
:10F6C0009EE11CC0813011F091E018C098E916C08D
:10F6D000892F807591F0903539F4E0E0F0E089E011
:10F6E0008093570094910AC0983539F4E3E0F0E034
:10F6F00089E080935700949101C090E01A821B82A8
:10F700008D818C831D829E831F8227E030E009C299
:10F710001A8288E08B8381E48C8386E58D8382E581
:10F720008E8389E48F8383E5888780E589878FE5E9
:10F730008A8782E38B872BE030E0F3C18A818139AD
:10F7400041F0823941F0803911F48FE005C080E04A
:10F7500003C082E001C08AE01A828B8344C0772410
:10F76000739482C08D81882311F48EE12CC0813086
:10F7700011F081E028C088E926C01A82E1E0F0E0BB
:10F7800089E08093570084918B831C8224E030E0D1
:10F79000C8C18B81803589F48C81883039F4E2E0EE
:10F7A000F0E089E08093570084910DC0E0E0F0E044
:10F7B00089E080935700849106C0E3E0F0E089E09F
:10F7C0008093570084911A82DFCF8D81836C99E0FA
:10F7D000E1E0F0E0082E90935700E89507B600FCB2
:10F7E000FDCF1A821B8223E030E09BC180EC8A832C
:10F7F000CE5CDE4F188219821A821B82C253D1401E
:10F800008EC18A8190E0A0E0B0E0582F44273327D2
:10F8100022278B8190E0A0E0B0E0DC0199278827C7
:10F82000282B392B4A2B5B2B8D8190E0A0E0B0E098
:10F83000282B392B4A2B5B2B8C8190E0A0E0B0E089
:10F84000BA2FA92F982F8827282B392B4A2B5B2BCF
:10F85000220F331F441F551FC05EDE4F288339839C
:10F860004A835B83C052D1401A8259C13A81C95C34
:10F87000DE4F3883C753D140CA5CDE4F1882C6536F
:10F88000D1408B81C82EDD24CA5CDE4F488159816E
:10F89000C653D140C42AD52A933109F082C0CE5C28
:10F8A000DE4F88819981AA81BB81C253D1408050AB
:10F8B000904CA340B04030F583E0CE5CDE4FE88052
:10F8C000F9800A811B81C253D140F70100935B008C
:10F8D00080935700E89507B600FCFDCFCE5CDE4F65
:10F8E000088119812A813B81C253D14000501F4FAA
:10F8F0002F4F3F4FCE5CDE4F088319832A833B8313
:10F90000C253D140C05EDE4F488159816A817B81FC
:10F91000C052D140DE011B9631E08C9111962C91A2
:10F9200011971296C75CDE4F2883C953D140C85C3B
:10F93000DE4F1882C853D14090E0C85CDE4FE881AA
:10F94000F981C853D1408E2B9F2B0C01FA01609393
:10F950005B0030935700E89511244E5F5F4F6F4F67
:10F960007F4F0EEFE02E0FEFF02ECE0CDF1CC114F8
:10F97000D10499F685E0C05EDE4F088119812A81A5
:10F980003B81C052D140F80120935B008093570027
:10F99000E89507B600FCFDCF81E180935700E8951C
:10F9A00035C0C05EDE4F88819981AA81BB81C0527B
:10F9B000D140B695A795979587957C018601ABE0D8
:10F9C000AA2EB12CAC0EBD1E0BC0D5016D915D01F0
:10F9D000C7010F947FFE0894E11CF11C01501040F8
:10F9E0000115110591F7A60160E070E0440F551F65
:10F9F000661F771FC05EDE4FE880F9800A811B8199
:10FA0000C052D1404E0D5F1D601F711F1A82C05E33
:10FA1000DE4F488359836A837B83C052D1407FC0C5
:10FA2000FA80C55CDE4FF882CB53D140C65CDE4F16
:10FA30001882CA53D1408B81C82EDD24C65CDE4FAC
:10FA400008811981CA53D140C02AD12A1A828981DA
:10FA5000BE016D5F7F4F843121F59601C05EDE4FA0
:10FA6000E880F9800A811B81C052D1400BBFF701A9
:10FA700087919691DB018C9311969C936E5F7F4FDB
:10FA8000D801C7010296A11DB11DC05EDE4F88835B
:10FA90009983AA83BB83C052D14022503040F1F6F3
:10FAA00036C0C05EDE4F288139814A815B81C052F9
:10FAB000D1400894C108D108760100E010E0089414
:10FAC000C11CD11C0894E11CF11C011D111DE20E8A
:10FAD000F31E041F151F21BDBB27A52F942F832FB5
:10FAE00082BD2F5F3F4F4F4F5F4FF89A80B5DB01CC
:10FAF0008D93BD012E153F054007510761F7C05E8C
:10FB0000DE4F288339834A835B83C052D1409601FC
:10FB10002D5F3F4FFB01108204C080EC8A8322E0FE
:10FB200030E08BE18093C6008091C00086FFFCCF5F
:10FB30008091C00080648093C000C15DDE4FF88179
:10FB4000CF52D140F093C6008091C00086FFFCCF19
:10FB50008091C00080648093C000432F3093C60022
:10FB60008091C00086FFFCCF8091C00080648093AC
:10FB7000C000922F2093C6008091C00086FFFCCF6A
:10FB80008091C00080648093C0008EE08093C600A6
:10FB90008091C00086FFFCCF8091C000806480937C
:10FBA000C00065E1C15DDE4FE880CF52D1406E25D7
:10FBB00069276427FE01319610C090819093C6009A
:10FBC0008091C00086FFFCCF31968091C000806498
:10FBD0008093C0006927215030402115310569F715
:10FBE0006093C6008091C00086FFFCCF8091C0006A
:10FBF00080648093C00085B1805885B9772081F4F6
:10FC0000C15DDE4F0881CF52D1400F5FC15DDE4F35
:10FC10000883CF52D14090E0A0E0B0E00D941AF4F8
:10FC200027982F9880E090E020ED37E0F901319798
:10FC3000F1F7019684369105C9F700008091C00064
:10FC40008D7F8093C00081E180935700E895EE2777
:10FC5000FF270994FFCF90E00D941AF497FB092E2B
:10FC600007260AD077FD04D02ED006D000201AF443
:10FC7000709561957F4F0895F6F7909581959F4F08
:10FC80000895A1E21A2EAA1BBB1BFD010DC0AA1FDD
:10FC9000BB1FEE1FFF1FA217B307E407F50720F0F5
:10FCA000A21BB30BE40BF50B661F771F881F991F70
:10FCB0001A9469F760957095809590959B01AC01B9
:10FCC000BD01CF010895AA1BBB1B51E107C0AA1FAC
:10FCD000BB1FA617B70710F0A61BB70B881F991FED
:10FCE0005A95A9F780959095BC01CD010895F99991
:10FCF000FECF92BD81BDF89A992780B50895262F31
:10FD0000F999FECF1FBA92BD81BD20BD0FB6F89400
:0EFD1000FA9AF99A0FBE01960895F894FFCF63
:040000033000E000E9
:00000001FF