:100000000C94720E0C949A0E0C949A0E0C949A0EF8
:100010000C949A0E0C949A0E0C949A0E0C949A0EC0
:100020000C949A0E0C949A0E0C949A0E0C94B01197
:100030000C949A0E0C949A0E0C949A0E0C949A0EA0
:100040000C9466110C949A0E0C9434110C940E11AD
:100050000C949A0E0C949A0E0C949A0E0C949A0E80
:100060000C949A0E0C949A0E0000000024002700B5
:100070002A0000000000250028002B0000000008D6
:10008000000201000003040700000000000000005F
:1000900000000000230026002900040404040404D6
:1000A0000404020202020202030303030303010227
:1000B00004081020408001020408102001020408F6
:1000C00010208A938F91969A91949A938C857C8C28
:1000D0007A697C6B5E5662654D585E5D5B586E6BEF
:1000E00065727983797C8D8C83859491818A938ADA
:1000F000838A938A88919893919F9F9A969D9D91C8
:10010000837C91726280695846646B3C4F5E5D529D
:1001100054726E65727E8D7A7A9396857C9A9B7CFA
:100120008698917C889B8F8894A29F93A1A79D9687
:10013000969377888A60726959514B6C4A415B513A
:10014000524F676C5E73728183798D8C8A888C9A2A
:10015000868A96948F8DA29F93A6ABA99A98AE9DFE
:10016000867A9893465D795E3A3A7E582752675868
:100170003762805B697A8A88728896918386A18FBC
:100180008894A4A18AA4B5A4A2A7B0A79D94779DA2
:100190009A43567E6B3A27796C1B437259255D8CC6
:1001A0005E5B7A967E70989B91858CA7948898B2B6
:1001B000A78FADC2AE93A6C8A26783C56B2E758606
:1001C000540B567E271E54733C337375605E7A9AC7
:1001D0007E778DA2A47E8FB2A4919FC5B59AB5C03B
:1001E000B4A2AE9D77AD8648677262291972541623
:1001F0003C6C5929737F5B5E7A9D737EA19A9B93B9
:100200009FA6A9B0A1B7C0B4ABA9C0B291799A9B7F
:100210003F4D756E2917694A172559602C447C702B
:100220005B699193838D9AABA19BAEBBB9A7A9C81B
:10023000C3A7B0C7AE657EB4653A547E59083C5436
:100240002E1E38623D3D69656C737E818CA491934E
:10025000B2B5A7A7CCCAAEBEC5C2B0AEA16E989BC0
:100260004A4862731B096B4A1720675B23596B6509
:100270006B7C8C7C9FA78DABC3B99DB2DFC0B2C332
:10028000D1C2967C8DAD6735546C4A09295D411EFB
:10029000295E604851628183737C9DB2918DBECE90
:1002A000B4A4D3E6C0ADC2D6A15E91AB59334A6BBC
:1002B0003C0D30413A2E3D4F546B525B8D947E7312
:1002C000A9BE949BC3CEBBB2CCC8BCBBBEA4608D40
:1002D000964A3C4F693312443A30374856546B5B68
:1002E0006791938686B2B59DB0BEC7C2C7CEB4B47F
:1002F000C0B07E51867527315B520F204B383A4192
:100300004F52656E587C9A91859DC5B2A4BEC7CEEA
:10031000CCC7B2ADC7B96548A67920235D62081C79
:100320004A41434D524D69836773A1AB9193C7BC5A
:10033000ABC0C7CCCAC7AD98B0C05D549A621C1C94
:1003400064440B373D3D52624A3C858F607AADB5BF
:1003500096AEC2AEBECCC3C0CFC394A7BC5E52851E
:100360005D271B4D410F35413C4B69623A7FA679B1
:100370007AA2BC9BA4C5A9B7D3CCB9B5C3A2A6A683
:10038000585E835E291752511E303D4A56675844C5
:100390008DA4797CA9C2A1B2BEA4C3CFC0AEB5BCA6
:1003A00096A48F446C72412322542C1B3D3C526016
:1003B000775D5BA78F7591B2B5A2C3B0A7CECCBC59
:1003C000B0BBB594AB813D706233142C5922253CEF
:1003D000385B6E754458B08A799DB4ADB4C296B599
:1003E000E1CCADA9C2A79DA152548A5D200D3D4D1F
:1003F0002E3C35416980704A83A683889FAEABC589
:10040000B08FBED8C5ABB0B99DB0913D6B7C4D1BD4
:100410001943292C462E417A7F464FA49D889DA2E0
:100420009FB9D6A293C8D1C0B0B49FA1B764316CB4
:100430006C411E294438564B2A5686704875938560
:100440009FA9939BC7C394A7C7C2C2B7A4858DA217
:10045000583F6C54332C3D2C30644B38657E6264BD
:10046000918085B0A794A2C0AD9DBBB5AEBEBB9F29
:1004700085A78F4369703C2C38482E4A643A527CD9
:100480007054729A7C93B59891B0B99BA6BCABADF1
:10049000C0B5938CAE833360703D37433C275865BD
:1004A0003C51726759808F759BB99A9AB7B096AED6
:1004B000B59FABBCAE9391A67C4B6E6C41444A3C5D
:1004C0002C526944587056567E917286A9939FB4F7
:1004D000A79AAEB7A1A7B7ABA4A1A28D5D657558C9
:1004E0004B483C334B624D4B605D596E86797E9B29
:1004F0009393ADB29A91A4A1A7B5A294A2ABA194F3
:10050000775E69676459443F3D5665595B51516454
:1005100079817E8D8C869BABA29196A2A9B4AE9F69
:10052000969AA4A498674F6B726B59463F4B6E6EB8
:100530006060564F65817C7383818C9F9A8C869412
:10054000949BABA49693A1A29A9F9A7962737367C6
:10055000675B4B465B675E655B4854757F7781865A
:100560007E8C9B8D838D8F8C9BA1969AA29B9A9D4E
:100570009F9B93806B6977797064595254646C6760
:100580005D4B526B7A7E7F857E838F8A85889393BD
:100590008D969B9A94939198A198938D8681777765
:1005A000756C6762646260625E645E5962676E79F0
:1005B0007E7C7A837E7988938D8D939898969A968F
:1005C000918D8F969A938885857C77756E6967691A
:1005D000656265646064626062676E75797A7C7E6C
:1005E0008081858F8F8D8D919A968F91919196981C
:1005F00094918D8A88837C7977726E6E6E69656559
:10060000676567656064676C7075797A7C7E8381E5
:10061000868A8A8C9498918F9191918C8D8F8D8CF4
:100620008C8A8A85807C757273706B67696C6B6766
:1006300067696B6B696B6C7073777C808183858570
:100640008586888C8F91919393918D8A8C8C8888E4
:100650008A888583807C7E7973736E6C6E706E6B16
:100660006C6C6E70706E706E6E7779777A7E808348
:100670008686838586888A8C8C8A8D8C8A8D8885EF
:1006800086888586888683817F7E7C757573707287
:10069000706E706E706E7072706E7070727575794B
:1006A0007E807E81868385868A888C8C8A8C8A8DE2
:1006B0008D8C888685868886838385837E807F7CF3
:1006C000797575726E7270706E6E7072727373720D
:1006D00075777777797A7C7E7F8181808183858643
:1006E00086858888868688888683818381838183BE
:1006F000818381818081807E7C7A7A77777573723D
:1007000073727270727373727373757779797A7C9E
:100710007C7E7E80818185868685868688888A8A99
:100720008C8A8A8886858385817E80807E7A7C7AA1
:100730007C7C7A7C7A797A79797779777977777529
:100740007779777977797779797A7C7A7C7A7C7E10
:100750007E7E807E8080818381838385858385867C
:10076000858685868583858383817F8180807E7F62
:100770007E807E7C7E7C7A7C7A7C7A7A79777977C7
:1007800079777977797779797A797A7A7C7C7A7CD2
:100790007E7E7F7E7F80818081838183818385834C
:1007A0008385838583858583818381817F7F7E7F28
:1007B000807E7C7E7C7E7C7E7C7E7C7A7A7C7C7A71
:1007C0007C7A797A797A797A797A797A79797A798F
:1007D0007A797A7C7A7C7C7A7C7A7C7E7C7E7F7E5D
:1007E00080818183818381838583858685858385D7
:1007F00083818383817F817F7E7F7E7E7C7E7C7A06
:100800007C7A7C7A7C7A7A7C7A7C7A7C7A7C7A7C38
:100810007A7C7A7C7A7C7A7C7A7C7A7C7A7C7A7C28
:100820007E7C7A7C7E7E7C7E7E807E807E7F7E7FEC
:10083000818180818381838183818383818381839B
:1008400081808181807E7F7E7F7E7C7E7C7E7C7CC1
:100850007A7C7A7C7C7A7C7A7C7A7C7A7C7A7C7CE6
:100860007C7C7C7C7C7C7C7C7C7C7C7C7C7C7A7CCA
:100870007A7C7E7C7E7C7E807E7F7E7F817F817F96
:10088000817F7C7973778A9A9AA1915260A1987A34
:10089000696788A18F7373737088A18F706C81935F
:1008A0008A5E4F80A99362597C96866B5B758C81BA
:1008B0006E6B7E8A837372797058587C937A6273F8
:1008C00096A18675819493755669969B75607A9DFD
:1008D000A69688919A8D79777365758A8C837E7ECA
:1008E000807A777E8388857A808C8D887A7075751A
:1008F00064595B605B565B62676B6E727C888C854B
:1009000083888F8C868385837E807F8385868A8A91
:100910007C839A9F94949DABB9A693A1AEA18C8839
:100920008C8F8A77696E754F3056523029384F4D0B
:10093000595B5E75918F8698A4A1989A94867A7077
:100940006760605956627275798398ABB4B4B4BE6F
:10095000C7C0B0A7A7A99B8C86888A887A70818631
:100960007364462752672E142E514A4F52597E9B6C
:10097000917791A9A18F867E756C5B4B4A585D5E1D
:100980006B7F919DA9B4BCC8CAC0B7B5B2AB9F93E9
:100990008D8F968F8C9496919D9B85705B252C54A2
:1009A0001B00043C4865736094CACF9A9AB49D8F2B
:1009B00080593838463C354A6581A1B4B2BECFD69D
:1009C000C7BCB09B969386797F888A94A4ABB7C244
:1009D000B5A6ADAD8159120000370000003872B4E1
:1009E000B591C7F0EBAD8A6C4851461700104364CF
:1009F00085919DC7F4EFC7AD9A9B9D8C605470881C
:100A0000969DA2ABC5DFD8C2BEBEAD917C674D3A04
:100A10003100003C1E30416293DFFDA6A2A2836E2E
:100A200046270010484F627791ADDAD8B09D948A7E
:100A30007C73544D7294A2A7ABAEC7DAC5B0A6A220
:100A40009B98917F859698919F9372592000004BB7
:100A50002C3830548FE4DC988C6C736C562C0D3031
:100A6000658C9A8C8896B7B9947767677C85757919
:100A7000819FB7B7B4A4A6B2B0A99A93939BA7AB32
:100A8000A49A9FA69F85522C0000204F3A565D8560
:100A9000B0F7F083624A353A3F3015549BC0E1D835
:100AA000A181836E483C38376CA9B9C3C3B7A6A4EB
:100AB000A18377807E91A9AEA4ABB9BBC8C8B28C24
:100AC0007E7554411E000030438CB4A2A1C2F7A928
:100AD000623300001C596480B9C5F7FFD8803F1904
:100AE0000008354A79C2E6F4FDD38A5E544D5E8330
:100AF0008C96BCCECFD1CAADA1B2A99680695B64F9
:100B0000643000003C75EACF9A73ADBB696708009A
:100B1000004B9DB4DFC5A7D6CF8C3D0B0000378AB4
:100B2000B5E1EFCFCAC58F512C223F91D1CEC8C5B8
:100B3000B7BECCB78D8186919AA194816B310000AC
:100B40002367D5DCAB7C93B56B561600003DA6CC75
:100B5000F4E4A6ADB07C370B00003CA9E4FDF4B58D
:100B60008C937E523A385196DFE8CCB9A4A2B5B93D
:100B70009B88837785A196793A00001C85EAE1B9C4
:100B80006E859B6B5402000051BBE8FFD59F8F869A
:100B9000653512000454C2FEFFE49D75706E60520C
:100BA0005670A4DADFC9AE9F9FAEB5A68877696E8E
:100BB000838F5100002765E8E8B46C6B775D673779
:100BC00000044AA9D5F9CF8575725D4A43251759A6
:100BD000B4E3F6D185596470757A7A7994C3CCBE42
:100BE000AE9693AEB9A994795659694A00004F6BF5
:100BF000BEDDAE736E653D524827337AB0C7DFB9AC
:100C00007356594D4A584B4672B2CED5C3855B6276
:100C1000727C8A8F8D9FBCC0B2AB9893A7B0A18C19
:100C20007256585101065B7CAEC8A96B59694A4699
:100C3000443A3C77B9C2C7B2755258564B595D52C7
:100C40006B9FC0C2B7916C6B7C8683868896B5C358
:100C5000B4A49898A2AB9D8367564F4D203C86A6BE
:100C6000C5AD794A595B464F4A4362A1BCB5AB85D5
:100C700056516264646B5E5979A2B2B29D797085F7
:100C80008F9188838AA1B5B4A6A19FA6ABA6835EE7
:100C90004B4A2C015896B2CEAE7343514A414B4F4A
:100CA0005677AEB9AD9B704B4F60626E705F7098B7
:100CB000AEA99D816977919A9391949FB0B4A191C7
:100CC00096A1A4A69170595437084391ADC0A96E5E
:100CD0004D60594A4D4D516EAEBBA491704D566E4C
:100CE00069655B5B7CA4B5A48D77708596938888D5
:100CF00093A2AEAD9A919AA2A19170565454252513
:100D00007EA7B2AD804D586B4D4A545B6CA4C0A613
:100D10008C755852696B544F6C8DAEC2A77E707340
:100D20007C88938F8DA1ADA69B968C93A2A2866C96
:100D30005E6044206298A4AD9467526B644F4D4F3F
:100D40005B85B5B49885695969724D375D8DB0C3BF
:100D5000B285727A81868C8C8D9FAEA4938C88919B
:100D6000A2A48A756E67481C4386A4AE9B6E627C03
:100D700072544A41487CADAE9B8A776572704431AB
:100D80005B8DB4C3AD7C7383857F7E7F85A1B5A960
:100D90008F8686919D9D8D7A737252193F7F98A19F
:100DA000967567817C5E48444A70A2AB968C8377C7
:100DB00079774A294F86ABC0B48C818F867573775B
:100DC000819BB2A48D888C8D938C818185837C5886
:100DD0001E43859394836B709186644D3F4D799D3E
:100DE0009B888586868D7541355D8AA2AB9A8691F2
:100DF0009B8D777073839AA1948A8C8F918C837E5C
:100E0000838A887F735135627C7986797085918079
:100E10006458526079857F7C858C938D694D5B77B2
:100E200086918F888DA2A18C7F797A88918A858C12
:100E30008F918D867C818A8C8C867C7260515D6CF2
:100E400073797E7A808C85756E645E697372737E49
:100E5000818185817C7F7F7E7F8385868A8A8C8D58
:100E6000918F8C88838383807C8083868888888325
:100E70007E79706262696B727977777E817E7A772C
:100E800072727579777573757C83858685818385A4
:100E9000837F7C7E8183868686858583817F7E7F36
:100EA0007E7F808180807E807E807C797779777973
:100EB0007775737375797A7A797779797A7A7A7CB2
:100EC0007E808183818183818383818183858688FC
:100ED000868586838381818081807E807E7C7C7A0A
:100EE0007A797977757375737573737577797A799C
:100EF0007A7C7A7C7C7E7E7F838181838180818005
:100F00007E7F8081818383818381808181808180D4
:100F1000818081807E807E807E807E7C7E7C7E7CE7
:100F20007C7A797A797779777577757779797A7C38
:100F30007C7E807F817F818183858385838183839C
:100F4000817F8180817F8081807E807E807E7C7AAF
:100F50007C7A7A797A777577797779797A797A7C00
:100F60007E7C7F818080818081838181838385866F
:100F70008685838583838180818083817F81807E54
:100F80007C7A7C7A7977797A7979797775777577D8
:100F9000757779797A7E7F807F7E7F7E7C7A7C7C94
:100FA0007C7E818183858385858383858385838317
:100FB00081807F807E7E7C7A7E7C7E7C7E7C7A7C5B
:100FC0007C797777757375737273737775797A79BE
:100FD0007A7C7A7C7E7E80818583868685868685FE
:100FE0008385868586868586858385858381817EC2
:100FF0007C7A79757573727273737273757577799C
:101000007C7A7C807F8181808180818081807E80EC
:10101000818183838583858686888685868583818D
:10102000807E8080817F817F807E7E7C7A777573F1
:1010300075737270707270727375757779797A7A68
:10104000797A7C7C7E7F818383858586888A888A7D
:10105000888A888A8886858586858383817C797A53
:101060007972706E6C6C6E6E6B6C6E727377797772
:101070007A7C7E7F7E7C7E7E7F8081838185868870
:101080008A8C8A8C8D8C8D8C8D8C8C8A88868583BD
:101090007E7977777372706E6E6C6E6C6E6E707236
:1010A000737577797A7A7C7C7C7A7C7E7F81838188
:1010B00083868A8A8C8D8C8D8F8D8F8D8F8C8D8C75
:1010C0008888837C77777573706E6965696C6E6CE0
:1010D0006B6B70737575777977797A7A7C7A7C7EA9
:1010E0008081838586868A8C8D8F9191939193914F
:1010F0008F8D8C8A8680777575726E696465676975
:10110000696B69696B707375757377797A7A7C7AB4
:101110007C7E8181838586888C8D91939393949432
:101120009694938F8D8A857E797777706B676465E7
:101130006769676967696E727577757577797A7CA3
:101140007C7A7C7F818586888C8D91949698969800
:10115000989A989694918D867F7977736E67646478
:10116000626462656562646B7072737375757779BA
:101170007C7A7C7E7F8385888C8C8D919496989ADE
:101180009B9D9B9A9894938D867C7977736B625E16
:1011900060606064645E60646B6E727273737377B8
:1011A0007A7C7A7C7E7F81888C8D8F91969A9B9DAC
:1011B0009F9F9D9F9D989491867C79777069605ED2
:1011C0005E5D5B60625D6062696E707273727277A1
:1011D0007A7C7C7E7F80818A91919194989B9FA15B
:1011E000A4A4A1A19F9A968F837C7A736C655D5BA2
:1011F0005B595B5E5D5B5D62696C6E72737272758A
:10120000797A7E807E80838C919396989B9FA2A70B
:10121000A7A7A4A29F9A948A817A726B645D595998
:1012200056595B595B5B6065696E7272707272775A
:101230007C7E807F7E838C91989A989DA2A7ADAE8C
:10124000ADA9A19D9A8F867F776E655B58595656DA
:101250005859595B5D64696B70706E706E757A7CFD
:1012600081807E808C9AA1A1A2A4A9B2BEBEB4A1A5
:1012700091968C777A79707069584F465167645DA2
:1012800056444B5E6C7E79604D41659A9F98918380
:101290009ABBBEB2A2B0CAD3E3E1C2AE9167560810
:1012A00000415E738A6470868F7A311725386C85A9
:1012B0007083AECCB2653D43597E836977ADD3D59B
:1012C000C2AEAEC7CFC2A48A7C625D7235005881BF
:1012D0008381606E7AAE7E2C3A43628D887781B5C9
:1012E000AB524B595D7E866E77B5CEB7B9B5B7D6E2
:1012F000DFC3A19A85626C6E010B7A707C736B738D
:101300009AAD3A153F4D6C80776C9FCC72436E65F9
:1013100070867064A2D8BCB2C2C0D5EBCAA49D8C42
:101320005D605200228169756E7A7A9D9D311B4302
:101330005665737775A9A15B62797277756B81BB0E
:10134000CAB4C0CACEDCE6BC988165656517005892
:101350007A8372707A9F8D301C355B67726C7FA9BF
:101360008A707C79727775728AB2B5B5C0CCD3DDDC
:10137000DCB998725B694B002A6B707C737C839F2D
:101380007A2C2A4A59626B728D8F8D988D7F77796E
:101390008088949FB0C3D3DDE1DABC967C67563178
:1013A000003C7373777E96AE9D382C433D464D5D71
:1013B00072869AADA49A887C7C7C8091A4B2C9D8AC
:1013C000DDE4D5A1817A650100545964737C96B738
:1013D000A9413148413A3F4A4675B4ABA6AE9D910A
:1013E00091797098A2A4C3D6DDE1C29F988D3A008E
:1013F00017594854628AB7C57A314F583529302277
:1014000052A7A2A1C8BEA69B7C678F9F96B7D6DACB
:10141000D8CAB0AD9430002751293F6098BCC3674B
:101420004B7A5B2A231B1B6E9188BBD8BCAE9F777F
:1014300083938094C7CECEDFCCB5B28D0B00523CE7
:10144000173D6C98B99D5E808A4825170837706EE5
:1014500098D6D8BCAD988A8C807C9DBCC2C7CAC7C0
:10146000C0A14D02354614205183949472778F6247
:1014700037141741596491CEDAC7ADA9A48D7E8A7D
:10148000A4B0AEB7C3C8B99F621C514D0D27597E99
:1014900081837286965E270F354B466BA1CCD1BCFB
:1014A000B0B7A7858A9FA7A6AEB7BBB7A97A3146C2
:1014B00064271E486C7A83707A986E33143D4835E1
:1014C0005E91BBCAC2AEBCB58C8DA4A6A6B0B4BC9E
:1014D000BEAB8A464F5E22224A626C7C707991656F
:1014E00029234D3D356998B7C0BBB2BEA78CA6A9CC
:1014F0009AA1ADB2B9AEA488526758233A545E6B34
:10150000756E817E4320434B2A52819BB2BBB7C587
:10151000BB98A6B09D9BAEAEA6A4A29D6962703C8E
:10152000354F5E6773726E8A65254B58273F778DFE
:10153000A6ADAECCC2969DBBA29AABB2ABA1969D16
:101540007F5169432C4A5B6470736C8A69274B5ED8
:10155000314A73859FA9A2C0C39BA4BEA79BB4B404
:10156000ABA49B987743596033415E62676C6B8C88
:101570006B275464354677839AA7A6BEBCA2A7BB47
:10158000A6A1B0B4AB9D98A47A3C6E592341646582
:1015900069726C8C672A5662304A797E96A2A6C020
:1015A000BC9FA9BEA79FB0B7AD9D969D85385960D9
:1015B000253C586264726E886C335E5E3346757A81
:1015C0008DA1A1B9B99DA6BEA796ADB9AB9896A2BB
:1015D0008F4141753822586462696B818844587222
:1015E0004344727A88A19DB5BEA4A6C0B59BA9B993
:1015F000B49B969F914F376E5425486762606E7713
:101600008D563A6E4A37628180939FB2C0A7A4B9C3
:10161000B9A1A2B7BEA99AA1A26E2352792A275BCB
:10162000655969728C8C5265703D4175798194A1C0
:10163000BBB49BABC2AD9BA9B4B4A9949D9F5835D4
:10164000755219385E5D5B6C728A593D73693A4D0B
:101650007E7A8091A2B5A99BB2BEA69FB0B5B4A672
:101660009A9B9F6C3A75601435645B566B758F7AE4
:101670003D647E3C3D7A7F7A8CA1B2B09B9FC5AE23
:101680009BB0B9B0ABA2A19F7F3F37622C1E5462C2
:10169000525D737A8C643F7272314D857E7793A66A
:1016A000ADA798A6BBA69BB4B9A6ADB29F948C5625
:1016B000376B4A1444654F52777C8A8156547A5B63
:1016C00030648375819FA4A7A496A7B49B9AB5AEF6
:1016D0009FB2B9A28F94693A694614415848567C22
:1016E00070888F79675D695148647E7E8C9DA2A762
:1016F0009D9AA2A69891A6A9A1ADB9AD938A80465C
:101700004456272E52524F707A798F837979564FEB
:101710006B5858818F8696A1989D988F9DA69BA205
:10172000ABA7A6ADB4A68D85644664481E3F584A53
:1017300058757C8C9486859372375E734656868C7A
:101740008A9D969BAD9485A2AB8C91A9A7A2A9ADC9
:10175000B7A2755E4D593F192A545E4F6B88989415
:101760008A8D937E5D564A546256658D9A8D9AA6EF
:101770009F98938C9698939BA6A4A1B0B7B0A98D7F
:101780007254414D301C305464647F94A7A1948DF1
:101790008D7A5E595D594152707C7E8DA1A7A796C6
:1017A0008D938D7F818F939498A1ABB0AEAEB0AE88
:1017B0008A5E3D234A410F2769777294A9BBB7918E
:1017C0007C83734437485458646E8094A198949DE8
:1017D00093838079727A807F8C9698A1ABADABA908
:1017E000A6A2A2A2968570542E31624B2C5D8683F0
:1017F0008D918C9F94645160564348586E8C988F9D
:10180000A1BBA77A706B52595D59729AA19DAEAE79
:10181000A19A8D808385797C93938F9BA7ADB7B96F
:10182000A68D7C511931431B2556728AA79B98AE11
:101830009F6B58544641444A5B8A9F98A9BBB4A207
:101840008F705B4B3C4A566286A9B0B4B7AB988A9E
:1018500077656772727A88949FA9ABA4A9ADA6A197
:10186000A19481735B3835102959585E75A2A6ABD7
:1018700098776C6E54333A4A607C919BABBEBBA2A6
:10188000917E675B564B526C727EA2A9A49F8D819C
:10189000736E65606C79838F969B9DA19B918D8CF7
:1018A0008D8D8D8A8A949D9DA19D8D776554584F0D
:1018B0001B31565E737C808FB29F6B645E4D5B5BA9
:1018C0004D5B8AA4A1B0AB969B947759585B647C1E
:1018D000838393A4A99B8A6954697069707A859AF5
:1018E000ABA18D8F8D868A85777A8D919398938D14
:1018F0009398968F8883868C6E4F4B445464463FF2
:101900005872888F8C726C7970695E54546C888DB3
:1019100093918D93988D75696464727E8185919899
:101920009B9A8F81756C60646B7381939B9FA19D63
:10193000918A817977797A7E888F8F91938D8C8A3D
:101940008580807F7E7F8380868F8A83796B5D52DE
:101950004437435D67778A8888918D7C6E625456E0
:10196000656E798893949B9B8D80776B646B72799D
:10197000818F969BA19B8F85796C6C7073797F8327
:101980008C8F8C8A858586868583838183868888EB
:10199000868381807E818385837E79777A80838345
:1019A0007C797A797A7C777272777C81857C7573A1
:1019B0006C6764544651657A8D9B9486837E7775F7
:1019C0006E625965798A9BA29B91887F797572694D
:1019D0006973808D9B9D988F887F7775706C727A04
:1019E00081858D9A948A88857C7A7E7C777E807EBC
:1019F0008386817E807A777A7E7C7C7F81838385F3
:101A000081817F7E8083817C797A7E8185858079E2
:101A1000757377756C54414B5E7C98A29883796E90
:101A20006C75736B62626B7A96A6A49A8873676909
:101A300070757C7E7C838F969B9B8F7C6C676772B6
:101A40007F8A8C8D8C8C8A8C817579726E79858871
:101A50008D918C817E7E7A7A7E7A777A7E7A808882
:101A60008581817A7779807F80817E7A7C7E7C7A9D
:101A70007C79777A7C7C7C7E7E7C7E7A77757779C0
:101A8000777A7E8081807A75706760606772818DF9
:101A9000938F88817A7577757273777C838D939431
:101AA00091887E757272737A8185868A8C8A8A861D
:101AB0008077706C6E737E8C919391887F7C7C7A3A
:101AC0007A7C7A797C7F83888C88837C77757A7E30
:101AD0008081817C7C7A7C7E80817E7A7A79757740
:101AE00077777A7C7A7E7E7A797977737575797A69
:101AF0007E7E7C7A7C7C7A7C7F7E7C7A7979777337
:101B00007073777E88918F88817A777A7F808383DC
:101B1000807A797C8083868883817E7C7A7E8081CE
:101B2000818381818386888685807A797A7C8183A6
:101B300083858381838385837E7C777373706B60F9
:101B400062676E808F96948D81726B696B70777E01
:101B5000808386888A8A8A837A706C6B7079818A9E
:101B60008F8F8A86837C7979777577797A7F868873
:101B70008C8A867F7A757375797A7A7C808385867C
:101B800088857E79757273797C7E8183818081837B
:101B90008183817E7A797977797C7E7F8183838165
:101BA0007F7E7A79777375777A7E818381817C7A7B
:101BB000777577797A7A7C7E7C7E7C7F80807E7C6C
:101BC000797977797C81838583807E7C7A7A7C7E43
:101BD0007E807F807E807F7E7E7F7E7C7E80817F18
:101BE00083838180817A7A7C7F8385888681807EE9
:101BF0007A7C7C7F818383858381807C7A7C7A7CFC
:101C00007E808183858688867C695D56525D6E867E
:101C100096A1A49886756962626973797E838586C8
:101C2000888C8C88817A70696B6C727C88919494B2
:101C30008F857C75707072757A7F83868885817FC9
:101C40007E7C7E807E7C7A7975757A818A8F938F8F
:101C50008880736C69696E778086888885817C77D7
:101C60007775737577797A7A7E7E8081807C7A79D0
:101C70007575777A7C7E80817E7E807E7C7E7E7CA0
:101C80007C7E7E7C7E7E807E7F81837F807C7A7A74
:101C90007C7E808183818081808181838583818036
:101CA0007C7A7C7A7C8081858586837F7E7C7C7C47
:101CB0007E8083858381807E7A7C7A7C7E807E8034
:101CC0007E7C7C7E8081837F79736C6B6C727A857D
:101CD0008C8D8D88817973706E73757C7F83838121
:101CE0007F7E621211241FBECFEFD8E0DEBFCDBFD2
:101CF00022E0AAE2B1E001C01D92AE31B207E1F7E5
:101D000011E0A0E0B1E0E2EEF7E202C005900D9232
:101D1000AA32B107D9F71EE0C2E7DEE004C021977E
:101D2000FE010E94E913C137D107C9F70E94A11231
:101D30000C94EF130C940000CF92DF92EF92FF927D
:101D40000F931F932FB7F894C0903001D0903101BA
:101D5000E0903201F09033012FBF6C0D7D1D8E1D80
:101D60009F1D4FB7F89400913001109131012091DF
:101D70003201309133014FBF0C151D052E053F0573
:101D800028F0601771078207930758F71F910F918A
:101D9000FF90EF90DF90CF900895AF92BF92CF92D7
:101DA000DF92EF92FF920F931F93CF93DF936C011B
:101DB0007B018B01040F151FEB015E01AE18BF08FC
:101DC000C017D10759F06991D601ED91FC910190AE
:101DD000F081E02DC6010995892B79F7C501DF91C6
:101DE000CF911F910F91FF90EF90DF90CF90BF9018
:101DF000AF900895FC01538D448D252F30E0842F42
:101E000090E0821B930B541710F0CF960895019722
:101E10000895FC01918D828D981761F0A28DAE0F0F
:101E2000BF2FB11D5D968C91928D9F5F9F73928F96
:101E300090E008958FEF9FEF0895FC01918D828DC2
:101E4000981731F0828DE80FF11D858D90E008958F
:101E50008FEF9FEF0895FC01918D228D892F90E0E7
:101E6000805C9F4F821B91098F73992708958BE3A4
:101E700091E00E942B0F21E0892B09F420E0822FB2
:101E8000089580E090E0892B29F00E94370F81119E
:101E90000C9400000895FC01A48DA80FB92FB11D6A
:101EA000A35ABF4F2C91848D90E001968F73992790
:101EB000848FA689B7892C93A089B1898C9183706E
:101EC00080648C93938D848D981306C00288F38967
:101ED000E02D80818F7D80830895EF92FF920F9394
:101EE0001F93CF93DF93EC0181E0888F9B8D8C8DC6
:101EF00098131AC0E889F989808185FF15C09FB7BA
:101F0000F894EE89FF896083E889F989808183707C
:101F1000806480839FBF81E090E0DF91CF911F912B
:101F20000F91FF90EF900895F62E0B8D10E00F5F4C
:101F30001F4F0F731127E02E8C8D8E110CC00FB622
:101F400007FCFACFE889F989808185FFF5CFCE01BA
:101F50000E944B0FF1CFEB8DEC0FFD2FF11DE35ADB
:101F6000FF4FF0829FB7F8940B8FEA89FB8980813D
:101F70008062CFCFCF93DF93EC01888D8823B9F0B7
:101F8000AA89BB89E889F9898C9185FD03C0808184
:101F900086FD0DC00FB607FCF7CF8C9185FFF2CF01
:101FA000808185FFEDCFCE010E944B0FE9CFDF91FD
:101FB000CF91089590E0FC01E458FF4F2491FC017B
:101FC000E255FF4F3491FC01E656FF4FE491EE23BA
:101FD000C9F0222339F0233001F1A8F4213019F19E
:101FE000223029F1F0E0EE0FFF1FEE58FF4FA591D0
:101FF000B4918FB7F894EC91611126C030953E23CF
:102000003C938FBF08952730A9F02830C9F02430C1
:1020100049F7809180008F7D03C0809180008F7789
:1020200080938000DFCF84B58F7784BDDBCF84B50C
:102030008F7DFBCF8091B0008F778093B000D2CF9F
:102040008091B0008F7DF9CF3E2BDACFCF93DF9315
:1020500090E0FC01E255FF4F249186569F4FFC0112
:1020600084918823D1F090E0880F991FFC01E859F2
:10207000FF4FA591B491FC01EE58FF4FC591D4914B
:1020800061110EC09FB7F8948C91E22FE0958E23DA
:102090008C932881E223E8839FBFDF91CF9108953D
:1020A0008FB7F894EC91E22BEC938FBFF6CF82ECD4
:1020B00090E090933A018093390180E29CE1909303
:1020C00038018093370161E08BE00E942610E6EB37
:1020D000F0E080818F798083E0EBF0E080818360A5
:1020E0008083A1EBB0E08C91877F8C9380818F7B84
:1020F0008068808380818F7C80838C91887F8160E1
:102100008C93E0913901F0913A01E491E093B300AE
:10211000F894E1E8F0E08081877E88608083A0E821
:10212000B0E08C918C7F8C938081887F81608083EC
:1021300080ED97E09093890080938800EFE6F0E0CF
:10214000808182608083809137019091380101976E
:10215000E0913901F0913A01E80FF91FE491E09321
:1021600036011092350110923401789408953FB7EA
:10217000F89480912B0190912C01A0912D01B091A8
:102180002E0126B5A89B05C02F3F19F00196A11D71
:10219000B11D3FBFBA2FA92F982F8827BC01CD01B1
:1021A000620F711D811D911D42E0660F771F881F10
:1021B000991F4A95D1F708958F929F92AF92BF923F
:1021C000CF92DF92EF92FF924B015C010E94B71019
:1021D0006B017C010E94B7106C197D098E099F0963
:1021E000683E734081059105A8F321E0821A9108A9
:1021F000A108B10888EEC80E83E0D81EE11CF11CCE
:1022000081149104A104B10429F7FF90EF90DF90AD
:10221000CF90BF90AF909F908F9008951F920F9294
:102220000FB60F9211242F933F934F935F936F93A9
:102230007F938F939F93AF93BF93EF93FF938BE322
:1022400091E00E944B0FFF91EF91BF91AF919F9151
:102250008F917F916F915F914F913F912F910F904F
:102260000FBE0F901F9018951F920F920FB60F92EE
:1022700011242F938F939F93EF93FF93E0914B0142
:10228000F0914C018081E0915101F091520182FD69
:102290001BC09081809154018F5F8F7320915501F5
:1022A000821741F0E0915401F0E0E55CFE4F958F1C
:1022B00080935401FF91EF919F918F912F910F90F7
:1022C0000FBE0F901F9018958081F4CF1F920F9230
:1022D0000FB60F9211242F933F938F939F93AF9339
:1022E000BF938091300190913101A0913201B09162
:1022F000330130912A0123E0230F2D3758F5019641
:10230000A11DB11D20932A018093300190933101CA
:10231000A0933201B093330180912B0190912C0155
:10232000A0912D01B0912E010196A11DB11D8093A8
:102330002B0190932C01A0932D01B0932E01BF91FE
:10234000AF919F918F913F912F910F900FBE0F9062
:102350001F90189526E8230F0296A11DB11DD2CF1C
:102360001F920F920FB60F9211242F933F934F930A
:102370005F936F937F938F939F93AF93BF93EF93ED
:10238000FF93809134019091350120913701309174
:1023900038018217930708F442C0809136014091BA
:1023A000340150913501B901680F711D641775072B
:1023B00069F580916F008D7F80936F00809181001F
:1023C0008E7F809381008091B1008E7F8093B100D9
:1023D00060E08BE00E94DA0F80913401909135012A
:1023E00001969093350180933401FF91EF91BF9155
:1023F000AF919F918F917F916F915F914F913F919D
:102400002F910F900FBE0F901F901895409134019F
:1024100050913501820F841B8093B300DDCF8091F2
:10242000340190913501E0913901F0913A01E80FC2
:10243000F91FE491E093B300CFCFCF92DF92EF92F8
:10244000FF920F931F93E82FF92F05C00150110938
:102450002109310961F1908196239417B9F305C0E0
:10246000015011092109310911F19081962394132A
:10247000F7CFC12CD12CE12CF12C0AC08FEFC81A58
:10248000D80AE80AF80A0C151D052E053F0579F053
:1024900080818623841791F36C2D7D2D8E2D9F2DA9
:1024A0001F910F91FF90EF90DF90CF90089560E023
:1024B00070E080E090E01F910F91FF90EF90DF902F
:1024C000CF900895EBE3F1E01382128288EE93E05F
:1024D000A0E0B0E084839583A683B78384E091E095
:1024E0009183808385EC90E09587848784EC90E0ED
:1024F0009787868780EC90E0918B808B81EC90E0D1
:10250000938B828B82EC90E0958B848B86EC90E0B1
:10251000978B868B118E128E138E148EE8EDF1E060
:1025200016821782108611861286138614861586E7
:1025300016861786108A118A128A138A148A158AB7
:102540000895789484B5826084BD84B5816084BD2B
:1025500085B5826085BD85B5816085BD80916E0041
:10256000816080936E001092810080918100826072
:1025700080938100809181008160809381008091AF
:1025800080008160809380008091B100846080939E
:10259000B1008091B00081608093B00080917A009A
:1025A000846080937A0080917A00826080937A00C0
:1025B00080917A00816080937A0080917A008068AF
:1025C00080937A001092C10010921A0210921B029E
:1025D00010921C0210921D021092DA011092DB017F
:1025E0001092DC011092DD0168EB7BE080E090E06E
:1025F0000E949C0E68EE73E080E090E00E94DC1088
:10260000E0914B01F0914C0182E08083E091470121
:10261000F09148011082E0914901F0914A0180E176
:10262000808310925301E0914F01F091500186E0B8
:102630008083E0914D01F0914E0180818061808323
:10264000E0914D01F0914E01808188608083E0919E
:102650004D01F0914E01808180688083E0914D01B1
:10266000F0914E0180818F7D80832FB7F894809107
:10267000300190913101A0913201B09133012FBF0F
:102680008093DA019093DB01A093DC01B093DD012C
:1026900040E150E062E171E08BE391E00E94CD0EF9
:1026A0006AE070E080E090E00E949C0E81E0809300
:1026B000EE012FB7F8948091300190913101A091F3
:1026C0003201B09133012FBF8093DA019093DB0187
:1026D000A093DC01B093DD0146E050E063E271E0DD
:1026E0008BE391E00E94CD0E0E94571068EB7BE0D7
:1026F00080E090E00E94DC10C3E0D0E09FE0E92E93
:10270000F12C28EBC22E20E0D22E34EAA32E30E0AA
:10271000B32E40E0842E40E0942E61E08AE00E94D7
:10272000261060E08AE00E94DA0FCE010197F1F7EF
:1027300061E08AE00E94DA0FC7010197F1F760E0DB
:102740008AE00E94DA0F60E08AE00E942610F6011B
:102750006491F5018491E82FF0E0EE0FFF1FE05740
:10276000FF4F8591949100E412E42FE030E0462F72
:102770000E941D12611571058105910551F06F5F71
:102780007F4F8F4F9F4F9F7064347240810591053A
:1027900070F480912F0181110AC00E94571068EBDC
:1027A0007BE080E090E00E94DC1010922F0164E654
:1027B00070E080E090E00E94DC108114910409F444
:1027C000ACCF0E94370F882309F4A7CF0E940000E6
:1027D000A4CFEE0FFF1F0590F491E02D0994F8941B
:0227E000FFCF29
:1027E200000000006D0FCD0EFA0EBA0F2B0F090F6D
:1027F2001D0F564D4450565F317C315F564D44504B
:0A280200560A00564D4450525F0084
:107800000C94343C0C94513C0C94513C0C94513CE1
:107810000C94513C0C94513C0C94513C0C94513CB4
:107820000C94513C0C94513C0C94513C0C94513CA4
:107830000C94513C0C94513C0C94513C0C94513C94
:107840000C94513C0C94513C0C94513C0C94513C84
:107850000C94513C0C94513C0C94513C0C94513C74
:107860000C94513C0C94513C11241FBECFEFD8E036
:10787000DEBFCDBF11E0A0E0B1E0ECE9FFE702C060
:1078800005900D92A230B107D9F712E0A2E0B1E065
:1078900001C01D92AD30B107E1F70E942D3D0C945F
:1078A000CC3F0C94003C982F959595959595959582
:1078B000905D8F708A307CF0282F295A8091C0000B
:1078C00085FFFCCF9093C6008091C00085FFFCCF60
:1078D0002093C6000895282F205DF0CF982F809127
:1078E000C00085FFFCCF9093C6000895EF92FF92F1
:1078F0000F931F93EE24FF2487018091C00087FD22
:1079000017C00894E11CF11C011D111D81E4E8164B
:1079100082E4F8068FE0080780E0180770F3E09132
:107920000401F091050109958091C00087FFE9CF1E
:107930008091C6001F910F91FF90EF9008950E94D3
:10794000763C982F8091C00085FFFCCF9093C600B5
:1079500091362CF490330CF09053892F089597555D
:10796000892F08951F930E949F3C182F0E949F3CCF
:107970001295107F810F1F9108951F93182F882350
:1079800021F00E94763C1150E1F71F9108951F935A
:10799000182F0E94763C803249F0809103018F5F5E
:1079A000809303018530C1F01F9108958091C0003C
:1079B00085FFFCCF84E18093C6008091C00085FFE5
:1079C000FCCF1093C6008091C00085FFFCCF80E102
:1079D0008093C6001F910895E0910401F091050184
:1079E00009951F9108950E94763C803241F0809164
:1079F00003018F5F80930301853081F008958091AA
:107A0000C00085FFFCCF84E18093C6008091C00058
:107A100085FFFCCF80E18093C6000895E0910401CA
:107A2000F09105010995089540E951E08823A1F0FE
:107A30002D9A28EE33E0FA013197F1F721503040CA
:107A4000D1F72D9828EE33E0FA013197F1F7215064
:107A50003040D1F7815061F708953F924F925F9285
:107A60006F927F928F929F92AF92BF92CF92DF924E
:107A7000EF92FF920F931F93CF93DF93000080E16B
:107A80008093C4001092C50088E18093C10086E015
:107A90008093C2005098589A259A81E00E94143D24
:107AA00024E1F22E9EE1E92E85E9D82E0FE0C02ECA
:107AB00010E1B12EAA24A394B1E49B2EA6E58A2E50
:107AC000F2E57F2EE0E26E2E79E4572E63E5462E36
:107AD00050E5352E0E94763C8033B1F18133B9F107
:107AE000803409F46FC0813409F476C0823409F41B
:107AF00085C0853409F488C0803531F1823521F1A3
:107B0000813511F1853509F485C0863509F48DC0BC
:107B1000843609F496C0843709F403C1853709F423
:107B200072C1863709F466C0809103018F5F80932C
:107B30000301853079F6E0910401F0910501099582
:107B40000E94763C803351F60E94F33CC3CF0E94E2
:107B5000763C803249F78091C00085FFFCCFF092DF
:107B6000C6008091C00085FFFCCF9092C600809136
:107B7000C00085FFFCCF8092C6008091C00085FFC9
:107B8000FCCF7092C6008091C00085FFFCCF609250
:107B9000C6008091C00085FFFCCF5092C600809146
:107BA000C00085FFFCCF4092C6008091C00085FFD9
:107BB000FCCF3092C6008091C00085FFFCCFB09210
:107BC000C60088CF0E94763C863808F4BDCF0E945C
:107BD000763C0E94F33C7ECF0E94763C803809F4CC
:107BE0009CC0813809F40BC1823809F43CC1883942
:107BF00009F48FC080E00E94C73C6CCF84E10E94F2
:107C0000BD3C0E94F33C66CF85E00E94BD3C0E94D3
:107C1000F33C60CF0E94763C809306010E94763C44
:107C2000809307010E94F33C55CF0E94763C80333D
:107C300009F41DC183E00E94BD3C80E00E94C73C66
:107C400049CF0E94763C809309020E94763C809343
:107C5000080280910C028E7F80930C020E94763C79
:107C6000853409F415C18091080290910902892B8D
:107C700089F000E010E00E94763CF801E85FFE4FDA
:107C800080830F5F1F4F80910802909109020817AF
:107C9000190788F30E94763C803209F045CF809125
:107CA0000C0280FF01C16091060170910701660F0F
:107CB000771F7093070160930601A0910802B091AD
:107CC00009021097C9F0E8E0F1E09B01AD014E0F09
:107CD0005F1FF999FECF32BD21BD819180BDFA9A17
:107CE000F99A2F5F3F4FE417F50799F76A0F7B1F4B
:107CF00070930701609306018091C00085FFFCCF5F
:107D0000F092C6008091C00085FFFCCFB092C60003
:107D1000E1CE83E00E94C73CDDCE82E00E94C73CFA
:107D2000D9CE0E94763C809309020E94763C8093D3
:107D300008028091060190910701880F991F909386
:107D40000701809306010E94763C853409F4A6C0A1
:107D500080910C028E7F80930C020E94763C8032D0
:107D600009F0B8CE8091C00085FFFCCFF092C6002C
:107D7000609108027091090261157105B9F140E046
:107D800050E080910C02A82FA170B82FB27011C0E2
:107D9000BB2309F45CC0E0910601F0910701319624
:107DA000F0930701E09306014F5F5F4F46175707B7
:107DB000E8F4AA2369F3F999FECF209106013091E6
:107DC000070132BD21BDF89A90B58091C00085FFB2
:107DD000FCCF9093C6002F5F3F4F30930701209355
:107DE00006014F5F5F4F4617570718F38091C00099
:107DF00085FDE5CE8091C00085FFF8CFE0CE81E023
:107E00000E94C73C67CE0E94763C803209F08CCE3F
:107E10008091C00085FFFCCFF092C6008091C00029
:107E200085FFFCCFE092C6008091C00085FFFCCFAB
:107E3000D092C6008091C00085FFFCCFC092C600E2
:107E40008091C00085FFFCCFB092C60043CEE09188
:107E50000601F091070194918091C00085FFFCCF4D
:107E60009093C6009CCF80E10E94C73C33CE0E9415
:107E7000763C0E94763C182F0E94763C112309F430
:107E800083C0113009F484C08FE00E94C73C22CE29
:107E900080910C02816080930C02E5CE80910C02EF
:107EA000816080930C0259CF809107018823880F4D
:107EB000880B8A2180930B02809106019091070123
:107EC000880F991F90930701809306018091080203
:107ED00080FF09C080910802909109020196909359
:107EE000090280930802F894F999FECF1127E091D6
:107EF0000601F0910701C8E0D1E08091080290915D
:107F00000902103091F40091570001700130D9F34B
:107F100003E000935700E89500915700017001308D
:107F2000D9F301E100935700E89509901990009169
:107F3000570001700130D9F301E000935700E89534
:107F40001395103498F011270091570001700130FB
:107F5000D9F305E000935700E895009157000170B0
:107F60000130D9F301E100935700E895329602976A
:107F700009F0C7CF103011F00296E5CF112480919F
:107F8000C00085FFB9CEBCCE8EE10E94C73CA2CD19
:0C7F900085E90E94C73C9ECDF894FFCF0D
:027F9C00800063
:040000030000780081
:00000001FF